{
	"contracts/Staking_dApp/StakeRoyalty.sol": {
		"StakeRoyalty": {
			"abi": [
				{
					"inputs": [
						{
							"internalType": "address",
							"name": "distributor",
							"type": "address"
						},
						{
							"internalType": "contract IERC20",
							"name": "stakingToken_",
							"type": "address"
						},
						{
							"internalType": "contract IERC20",
							"name": "rewardToken_",
							"type": "address"
						},
						{
							"internalType": "uint64",
							"name": "duration",
							"type": "uint64"
						}
					],
					"stateMutability": "nonpayable",
					"type": "constructor"
				},
				{
					"anonymous": false,
					"inputs": [
						{
							"indexed": true,
							"internalType": "address",
							"name": "newDistributor",
							"type": "address"
						}
					],
					"name": "DistributorUpdated",
					"type": "event"
				},
				{
					"anonymous": false,
					"inputs": [
						{
							"indexed": false,
							"internalType": "uint256",
							"name": "reward",
							"type": "uint256"
						}
					],
					"name": "RewardAdded",
					"type": "event"
				},
				{
					"anonymous": false,
					"inputs": [
						{
							"indexed": true,
							"internalType": "address",
							"name": "user",
							"type": "address"
						},
						{
							"indexed": false,
							"internalType": "uint256",
							"name": "reward",
							"type": "uint256"
						}
					],
					"name": "RewardPaid",
					"type": "event"
				},
				{
					"anonymous": false,
					"inputs": [
						{
							"indexed": true,
							"internalType": "address",
							"name": "user",
							"type": "address"
						},
						{
							"indexed": false,
							"internalType": "uint256",
							"name": "amount",
							"type": "uint256"
						}
					],
					"name": "Staked",
					"type": "event"
				},
				{
					"anonymous": false,
					"inputs": [
						{
							"indexed": true,
							"internalType": "address",
							"name": "user",
							"type": "address"
						},
						{
							"indexed": false,
							"internalType": "uint256",
							"name": "amount",
							"type": "uint256"
						}
					],
					"name": "Withdrawn",
					"type": "event"
				},
				{
					"inputs": [
						{
							"internalType": "address",
							"name": "account",
							"type": "address"
						}
					],
					"name": "balanceOf",
					"outputs": [
						{
							"internalType": "uint256",
							"name": "",
							"type": "uint256"
						}
					],
					"stateMutability": "view",
					"type": "function"
				},
				{
					"inputs": [
						{
							"internalType": "uint256",
							"name": "amount",
							"type": "uint256"
						}
					],
					"name": "depositRewardTokens",
					"outputs": [],
					"stateMutability": "payable",
					"type": "function"
				},
				{
					"inputs": [
						{
							"internalType": "address",
							"name": "account",
							"type": "address"
						}
					],
					"name": "earned",
					"outputs": [
						{
							"internalType": "uint256",
							"name": "",
							"type": "uint256"
						}
					],
					"stateMutability": "view",
					"type": "function"
				},
				{
					"inputs": [],
					"name": "exit",
					"outputs": [],
					"stateMutability": "payable",
					"type": "function"
				},
				{
					"inputs": [],
					"name": "getOwner",
					"outputs": [
						{
							"internalType": "address",
							"name": "",
							"type": "address"
						}
					],
					"stateMutability": "view",
					"type": "function"
				},
				{
					"inputs": [],
					"name": "getReward",
					"outputs": [],
					"stateMutability": "payable",
					"type": "function"
				},
				{
					"inputs": [],
					"name": "getRewardForDuration",
					"outputs": [
						{
							"internalType": "uint256",
							"name": "",
							"type": "uint256"
						}
					],
					"stateMutability": "view",
					"type": "function"
				},
				{
					"inputs": [],
					"name": "lastTimeRewardApplicable",
					"outputs": [
						{
							"internalType": "uint256",
							"name": "",
							"type": "uint256"
						}
					],
					"stateMutability": "view",
					"type": "function"
				},
				{
					"inputs": [
						{
							"internalType": "uint256",
							"name": "reward",
							"type": "uint256"
						}
					],
					"name": "notifyRewardAmount",
					"outputs": [],
					"stateMutability": "payable",
					"type": "function"
				},
				{
					"inputs": [],
					"name": "rewardPerToken",
					"outputs": [
						{
							"internalType": "uint256",
							"name": "",
							"type": "uint256"
						}
					],
					"stateMutability": "view",
					"type": "function"
				},
				{
					"inputs": [],
					"name": "rewardToken",
					"outputs": [
						{
							"internalType": "contract IERC20",
							"name": "",
							"type": "address"
						}
					],
					"stateMutability": "view",
					"type": "function"
				},
				{
					"inputs": [
						{
							"internalType": "address",
							"name": "newDistributor",
							"type": "address"
						}
					],
					"name": "setDistributor",
					"outputs": [],
					"stateMutability": "payable",
					"type": "function"
				},
				{
					"inputs": [
						{
							"internalType": "uint256",
							"name": "amount",
							"type": "uint256"
						}
					],
					"name": "stake",
					"outputs": [],
					"stateMutability": "payable",
					"type": "function"
				},
				{
					"inputs": [],
					"name": "stakingToken",
					"outputs": [
						{
							"internalType": "contract IERC20",
							"name": "",
							"type": "address"
						}
					],
					"stateMutability": "view",
					"type": "function"
				},
				{
					"inputs": [],
					"name": "totalAmountStaked",
					"outputs": [
						{
							"internalType": "uint256",
							"name": "",
							"type": "uint256"
						}
					],
					"stateMutability": "view",
					"type": "function"
				},
				{
					"inputs": [
						{
							"internalType": "uint256",
							"name": "amount",
							"type": "uint256"
						}
					],
					"name": "withdraw",
					"outputs": [],
					"stateMutability": "payable",
					"type": "function"
				}
			],
			"devdoc": {
				"kind": "dev",
				"methods": {},
				"version": 1
			},
			"evm": {
				"assembly": "    /* \"contracts/Staking_dApp/StakeRoyalty.sol\":629:6737  contract StakeRoyalty is ReentrancyGuard {... */\n  mstore(0x40, 0xc0)\n    /* \"contracts/Staking_dApp/StakeRoyalty.sol\":1102:1384  constructor(address distributor, IERC20 stakingToken_, IERC20 rewardToken_, uint64 duration) {... */\n  callvalue\n  dup1\n  iszero\n  tag_1\n  jumpi\n  0x00\n  dup1\n  revert\ntag_1:\n  pop\n  mload(0x40)\n  sub(codesize, bytecodeSize)\n  dup1\n  bytecodeSize\n  dup4\n  codecopy\n  dup2\n  add\n  0x40\n  dup2\n  swap1\n  mstore\n  tag_2\n  swap2\n  tag_3\n  jump\t// in\ntag_2:\n    /* \"contracts/Staking_dApp/ReentrancyGuard.sol\":1749:1750  1 */\n  0x01\n    /* \"contracts/Staking_dApp/ReentrancyGuard.sol\":1860:1867  _status */\n  0x00\n    /* \"contracts/Staking_dApp/ReentrancyGuard.sol\":1860:1882  _status = _NOT_ENTERED */\n  sstore\n  sub(shl(0xa0, 0x01), 0x01)\n    /* \"contracts/Staking_dApp/StakeRoyalty.sol\":1206:1234  stakingToken = stakingToken_ */\n  dup1\n  dup5\n  and\n  0x80\n  mstore\n    /* \"contracts/Staking_dApp/StakeRoyalty.sol\":1245:1271  rewardToken = rewardToken_ */\n  dup3\n  and\n  0xa0\n  mstore\n    /* \"contracts/Staking_dApp/StakeRoyalty.sol\":1307:1324  duration * 1 days */\n  tag_8\n    /* \"contracts/Staking_dApp/StakeRoyalty.sol\":1307:1315  duration */\n  dup2\n    /* \"contracts/Staking_dApp/StakeRoyalty.sol\":1318:1324  1 days */\n  0x015180\n    /* \"contracts/Staking_dApp/StakeRoyalty.sol\":1307:1324  duration * 1 days */\n  tag_9\n  jump\t// in\ntag_8:\n    /* \"contracts/Staking_dApp/StakeRoyalty.sol\":1282:1288  _state */\n  0x01\n    /* \"contracts/Staking_dApp/StakeRoyalty.sol\":1282:1324  _state.rewardsDuration = duration * 1 days */\n  dup1\n  sload\n  sub(shl(0x40, 0x01), 0x01)\n  swap3\n  swap1\n  swap3\n  and\n  0x010000000000000000\n  mul\n  not(sub(shl(0x80, 0x01), shl(0x40, 0x01)))\n  swap1\n  swap3\n  and\n  swap2\n  swap1\n  swap2\n  or\n  swap1\n  sstore\n  pop\n  pop\n    /* \"contracts/Staking_dApp/StakeRoyalty.sol\":1335:1353  _state.distributor */\n  0x02\n    /* \"contracts/Staking_dApp/StakeRoyalty.sol\":1335:1376  _state.distributor = uint160(distributor) */\n  dup1\n  sload\n  sub(shl(0xa0, 0x01), 0x01)\n  swap1\n  swap4\n  and\n  not(sub(shl(0xa0, 0x01), 0x01))\n  swap1\n  swap4\n  and\n  swap3\n  swap1\n  swap3\n  or\n  swap1\n  swap2\n  sstore\n  pop\n    /* \"contracts/Staking_dApp/StakeRoyalty.sol\":629:6737  contract StakeRoyalty is ReentrancyGuard {... */\n  jump(tag_12)\n    /* \"#utility.yul\":14:145   */\ntag_11:\n  sub(shl(0xa0, 0x01), 0x01)\n    /* \"#utility.yul\":89:120   */\n  dup2\n  and\n    /* \"#utility.yul\":79:121   */\n  dup2\n  eq\n    /* \"#utility.yul\":69:139   */\n  tag_14\n  jumpi\n    /* \"#utility.yul\":135:136   */\n  0x00\n    /* \"#utility.yul\":132:133   */\n  dup1\n    /* \"#utility.yul\":125:137   */\n  revert\n    /* \"#utility.yul\":69:139   */\ntag_14:\n    /* \"#utility.yul\":14:145   */\n  pop\n  jump\t// out\n    /* \"#utility.yul\":150:871   */\ntag_3:\n    /* \"#utility.yul\":274:280   */\n  0x00\n    /* \"#utility.yul\":282:288   */\n  dup1\n    /* \"#utility.yul\":290:296   */\n  0x00\n    /* \"#utility.yul\":298:304   */\n  dup1\n    /* \"#utility.yul\":351:354   */\n  0x80\n    /* \"#utility.yul\":339:348   */\n  dup6\n    /* \"#utility.yul\":330:337   */\n  dup8\n    /* \"#utility.yul\":326:349   */\n  sub\n    /* \"#utility.yul\":322:355   */\n  slt\n    /* \"#utility.yul\":319:372   */\n  iszero\n  tag_16\n  jumpi\n    /* \"#utility.yul\":368:369   */\n  0x00\n    /* \"#utility.yul\":365:366   */\n  dup1\n    /* \"#utility.yul\":358:370   */\n  revert\n    /* \"#utility.yul\":319:372   */\ntag_16:\n    /* \"#utility.yul\":400:409   */\n  dup5\n    /* \"#utility.yul\":394:410   */\n  mload\n    /* \"#utility.yul\":419:450   */\n  tag_17\n    /* \"#utility.yul\":444:449   */\n  dup2\n    /* \"#utility.yul\":419:450   */\n  tag_11\n  jump\t// in\ntag_17:\n    /* \"#utility.yul\":519:521   */\n  0x20\n    /* \"#utility.yul\":504:522   */\n  dup7\n  add\n    /* \"#utility.yul\":498:523   */\n  mload\n    /* \"#utility.yul\":469:474   */\n  swap1\n  swap5\n  pop\n    /* \"#utility.yul\":532:565   */\n  tag_18\n    /* \"#utility.yul\":498:523   */\n  dup2\n    /* \"#utility.yul\":532:565   */\n  tag_11\n  jump\t// in\ntag_18:\n    /* \"#utility.yul\":636:638   */\n  0x40\n    /* \"#utility.yul\":621:639   */\n  dup7\n  add\n    /* \"#utility.yul\":615:640   */\n  mload\n    /* \"#utility.yul\":584:591   */\n  swap1\n  swap4\n  pop\n    /* \"#utility.yul\":649:682   */\n  tag_19\n    /* \"#utility.yul\":615:640   */\n  dup2\n    /* \"#utility.yul\":649:682   */\n  tag_11\n  jump\t// in\ntag_19:\n    /* \"#utility.yul\":753:755   */\n  0x60\n    /* \"#utility.yul\":738:756   */\n  dup7\n  add\n    /* \"#utility.yul\":732:757   */\n  mload\n    /* \"#utility.yul\":701:708   */\n  swap1\n  swap3\n  pop\n  sub(shl(0x40, 0x01), 0x01)\n    /* \"#utility.yul\":788:820   */\n  dup2\n  and\n    /* \"#utility.yul\":776:821   */\n  dup2\n  eq\n    /* \"#utility.yul\":766:839   */\n  tag_20\n  jumpi\n    /* \"#utility.yul\":835:836   */\n  0x00\n    /* \"#utility.yul\":832:833   */\n  dup1\n    /* \"#utility.yul\":825:837   */\n  revert\n    /* \"#utility.yul\":766:839   */\ntag_20:\n    /* \"#utility.yul\":150:871   */\n  swap4\n  swap7\n  swap3\n  swap6\n  pop\n  swap1\n  swap4\n  pop\n  pop\n  jump\t// out\n    /* \"#utility.yul\":876:1243   */\ntag_9:\n    /* \"#utility.yul\":915:922   */\n  0x00\n  sub(shl(0x40, 0x01), 0x01)\n    /* \"#utility.yul\":985:995   */\n  dup3\n  dup2\n  and\n    /* \"#utility.yul\":1015:1025   */\n  dup5\n  dup3\n  and\n    /* \"#utility.yul\":1048:1059   */\n  dup2\n  iszero\n    /* \"#utility.yul\":1041:1060   */\n  iszero\n    /* \"#utility.yul\":1070:1082   */\n  dup3\n  dup5\n  div\n    /* \"#utility.yul\":1062:1083   */\n  dup3\n  gt\n    /* \"#utility.yul\":1037:1084   */\n  and\n    /* \"#utility.yul\":1034:1204   */\n  iszero\n  tag_22\n  jumpi\n    /* \"#utility.yul\":1126:1136   */\n  0x4e487b71\n    /* \"#utility.yul\":1121:1124   */\n  0xe0\n    /* \"#utility.yul\":1117:1137   */\n  shl\n    /* \"#utility.yul\":1114:1115   */\n  0x00\n    /* \"#utility.yul\":1107:1138   */\n  mstore\n    /* \"#utility.yul\":1161:1165   */\n  0x11\n    /* \"#utility.yul\":1158:1159   */\n  0x04\n    /* \"#utility.yul\":1151:1166   */\n  mstore\n    /* \"#utility.yul\":1189:1193   */\n  0x24\n    /* \"#utility.yul\":1186:1187   */\n  0x00\n    /* \"#utility.yul\":1179:1194   */\n  revert\n    /* \"#utility.yul\":1034:1204   */\ntag_22:\n    /* \"#utility.yul\":1224:1237   */\n  mul\n  swap5\n    /* \"#utility.yul\":876:1243   */\n  swap4\n  pop\n  pop\n  pop\n  pop\n  jump\t// out\ntag_12:\n    /* \"contracts/Staking_dApp/StakeRoyalty.sol\":629:6737  contract StakeRoyalty is ReentrancyGuard {... */\n  mload(0x80)\n  mload(0xa0)\n  codecopy(0x00, dataOffset(sub_0), dataSize(sub_0))\n  0x00\n  assignImmutable(\"0x6357266b9d53c0f9af6b7cc53f59dc85b165702d9398eebfa95f674cadfbd638\")\n  0x00\n  assignImmutable(\"0x3a2a6f4e0dcd4611e0c200ca45f55d44b54b380ac384ae0bef4a36eff139c211\")\n  return(0x00, dataSize(sub_0))\nstop\n\nsub_0: assembly {\n        /* \"contracts/Staking_dApp/StakeRoyalty.sol\":629:6737  contract StakeRoyalty is ReentrancyGuard {... */\n      mstore(0x40, 0x80)\n      jumpi(tag_1, lt(calldatasize, 0x04))\n      shr(0xe0, calldataload(0x00))\n      dup1\n      0x75619ab5\n      gt\n      tag_18\n      jumpi\n      dup1\n      0xcd3daf9d\n      gt\n      tag_19\n      jumpi\n      dup1\n      0xcd3daf9d\n      eq\n      tag_14\n      jumpi\n      dup1\n      0xe9fad8ee\n      eq\n      tag_15\n      jumpi\n      dup1\n      0xf7c618c1\n      eq\n      tag_16\n      jumpi\n      dup1\n      0xfe961f61\n      eq\n      tag_17\n      jumpi\n      0x00\n      dup1\n      revert\n    tag_19:\n      dup1\n      0x75619ab5\n      eq\n      tag_10\n      jumpi\n      dup1\n      0x80faa57d\n      eq\n      tag_11\n      jumpi\n      dup1\n      0x893d20e8\n      eq\n      tag_12\n      jumpi\n      dup1\n      0xa694fc3a\n      eq\n      tag_13\n      jumpi\n      0x00\n      dup1\n      revert\n    tag_18:\n      dup1\n      0x3c6b16ab\n      gt\n      tag_20\n      jumpi\n      dup1\n      0x3c6b16ab\n      eq\n      tag_6\n      jumpi\n      dup1\n      0x3d18b912\n      eq\n      tag_7\n      jumpi\n      dup1\n      0x70a08231\n      eq\n      tag_8\n      jumpi\n      dup1\n      0x72f702f3\n      eq\n      tag_9\n      jumpi\n      0x00\n      dup1\n      revert\n    tag_20:\n      dup1\n      0x8cc262\n      eq\n      tag_2\n      jumpi\n      dup1\n      0x16c621e0\n      eq\n      tag_3\n      jumpi\n      dup1\n      0x1c1f78eb\n      eq\n      tag_4\n      jumpi\n      dup1\n      0x2e1a7d4d\n      eq\n      tag_5\n      jumpi\n    tag_1:\n      0x00\n      dup1\n      revert\n        /* \"contracts/Staking_dApp/StakeRoyalty.sol\":2190:2427  function earned(address account) public view returns (uint256)... */\n    tag_2:\n      callvalue\n      dup1\n      iszero\n      tag_21\n      jumpi\n      0x00\n      dup1\n      revert\n    tag_21:\n      pop\n      tag_22\n      tag_23\n      calldatasize\n      0x04\n      tag_24\n      jump\t// in\n    tag_23:\n      tag_25\n      jump\t// in\n    tag_22:\n      mload(0x40)\n        /* \"#utility.yul\":451:476   */\n      swap1\n      dup2\n      mstore\n        /* \"#utility.yul\":439:441   */\n      0x20\n        /* \"#utility.yul\":424:442   */\n      add\n        /* \"contracts/Staking_dApp/StakeRoyalty.sol\":2190:2427  function earned(address account) public view returns (uint256)... */\n    tag_26:\n      mload(0x40)\n      dup1\n      swap2\n      sub\n      swap1\n      return\n        /* \"contracts/Staking_dApp/StakeRoyalty.sol\":4583:4848  function depositRewardTokens(uint256 amount) external payable onlyDistributor... */\n    tag_3:\n      tag_28\n      tag_29\n      calldatasize\n      0x04\n      tag_30\n      jump\t// in\n    tag_29:\n      tag_31\n      jump\t// in\n    tag_28:\n      stop\n        /* \"contracts/Staking_dApp/StakeRoyalty.sol\":2058:2182  function getRewardForDuration() external view returns (uint256)... */\n    tag_4:\n      callvalue\n      dup1\n      iszero\n      tag_32\n      jumpi\n      0x00\n      dup1\n      revert\n    tag_32:\n      pop\n      tag_22\n      tag_34\n      jump\t// in\n        /* \"contracts/Staking_dApp/StakeRoyalty.sol\":2841:3179  function withdraw(uint256 amount) public payable nonReentrant updateReward(msg.sender)... */\n    tag_5:\n      tag_28\n      tag_37\n      calldatasize\n      0x04\n      tag_30\n      jump\t// in\n    tag_37:\n      tag_38\n      jump\t// in\n        /* \"contracts/Staking_dApp/StakeRoyalty.sol\":4856:5764  function notifyRewardAmount(uint256 reward) public payable updateReward(address(0)) onlyDistributor... */\n    tag_6:\n      tag_28\n      tag_40\n      calldatasize\n      0x04\n      tag_30\n      jump\t// in\n    tag_40:\n      tag_41\n      jump\t// in\n        /* \"contracts/Staking_dApp/StakeRoyalty.sol\":3187:3512  function getReward() public payable nonReentrant updateReward(msg.sender)... */\n    tag_7:\n      tag_28\n      tag_43\n      jump\t// in\n        /* \"contracts/Staking_dApp/StakeRoyalty.sol\":1544:1661  function balanceOf(address account) external view returns (uint256)... */\n    tag_8:\n      callvalue\n      dup1\n      iszero\n      tag_44\n      jumpi\n      0x00\n      dup1\n      revert\n    tag_44:\n      pop\n      tag_22\n      tag_46\n      calldatasize\n      0x04\n      tag_24\n      jump\t// in\n    tag_46:\n      sub(shl(0xa0, 0x01), 0x01)\n        /* \"contracts/Staking_dApp/StakeRoyalty.sol\":1635:1653  _balances[account] */\n      and\n        /* \"contracts/Staking_dApp/StakeRoyalty.sol\":1603:1610  uint256 */\n      0x00\n        /* \"contracts/Staking_dApp/StakeRoyalty.sol\":1635:1653  _balances[account] */\n      swap1\n      dup2\n      mstore\n        /* \"contracts/Staking_dApp/StakeRoyalty.sol\":1635:1644  _balances */\n      0x08\n        /* \"contracts/Staking_dApp/StakeRoyalty.sol\":1635:1653  _balances[account] */\n      0x20\n      mstore\n      0x40\n      swap1\n      keccak256\n      sload\n      swap1\n        /* \"contracts/Staking_dApp/StakeRoyalty.sol\":1544:1661  function balanceOf(address account) external view returns (uint256)... */\n      jump\n        /* \"contracts/Staking_dApp/StakeRoyalty.sol\":1015:1051  IERC20 public immutable stakingToken */\n    tag_9:\n      callvalue\n      dup1\n      iszero\n      tag_49\n      jumpi\n      0x00\n      dup1\n      revert\n    tag_49:\n      pop\n      tag_50\n      immutable(\"0x3a2a6f4e0dcd4611e0c200ca45f55d44b54b380ac384ae0bef4a36eff139c211\")\n      dup2\n      jump\n    tag_50:\n      mload(0x40)\n      sub(shl(0xa0, 0x01), 0x01)\n        /* \"#utility.yul\":850:882   */\n      swap1\n      swap2\n      and\n        /* \"#utility.yul\":832:883   */\n      dup2\n      mstore\n        /* \"#utility.yul\":820:822   */\n      0x20\n        /* \"#utility.yul\":805:823   */\n      add\n        /* \"contracts/Staking_dApp/StakeRoyalty.sol\":1015:1051  IERC20 public immutable stakingToken */\n      tag_26\n        /* \"#utility.yul\":672:889   */\n      jump\n        /* \"contracts/Staking_dApp/StakeRoyalty.sol\":4351:4575  function setDistributor(address newDistributor) external payable onlyDistributor... */\n    tag_10:\n      tag_28\n      tag_55\n      calldatasize\n      0x04\n      tag_24\n      jump\t// in\n    tag_55:\n      tag_56\n      jump\t// in\n        /* \"contracts/Staking_dApp/StakeRoyalty.sol\":1787:1919  function lastTimeRewardApplicable() external view returns (uint256)... */\n    tag_11:\n      callvalue\n      dup1\n      iszero\n      tag_57\n      jumpi\n      0x00\n      dup1\n      revert\n    tag_57:\n      pop\n      tag_22\n      tag_59\n      jump\t// in\n        /* \"contracts/Staking_dApp/StakeRoyalty.sol\":1669:1779  function getOwner() external view returns (address)... */\n    tag_12:\n      callvalue\n      dup1\n      iszero\n      tag_61\n      jumpi\n      0x00\n      dup1\n      revert\n    tag_61:\n      pop\n        /* \"contracts/Staking_dApp/StakeRoyalty.sol\":1752:1770  _state.distributor */\n      and(sub(shl(0xa0, 0x01), 0x01), sload(0x02))\n        /* \"contracts/Staking_dApp/StakeRoyalty.sol\":1669:1779  function getOwner() external view returns (address)... */\n      jump(tag_50)\n        /* \"contracts/Staking_dApp/StakeRoyalty.sol\":2480:2833  function stake(uint256 amount) external payable nonReentrant updateReward(msg.sender)... */\n    tag_13:\n      tag_28\n      tag_67\n      calldatasize\n      0x04\n      tag_30\n      jump\t// in\n    tag_67:\n      tag_68\n      jump\t// in\n        /* \"contracts/Staking_dApp/StakeRoyalty.sol\":1927:2050  function rewardPerToken() external view returns (uint256)... */\n    tag_14:\n      callvalue\n      dup1\n      iszero\n      tag_69\n      jumpi\n      0x00\n      dup1\n      revert\n    tag_69:\n      pop\n      tag_22\n      tag_71\n      jump\t// in\n        /* \"contracts/Staking_dApp/StakeRoyalty.sol\":3520:4300  function exit() external payable... */\n    tag_15:\n      tag_28\n      tag_74\n      jump\t// in\n        /* \"contracts/Staking_dApp/StakeRoyalty.sol\":1058:1093  IERC20 public immutable rewardToken */\n    tag_16:\n      callvalue\n      dup1\n      iszero\n      tag_75\n      jumpi\n      0x00\n      dup1\n      revert\n    tag_75:\n      pop\n      tag_50\n      immutable(\"0x6357266b9d53c0f9af6b7cc53f59dc85b165702d9398eebfa95f674cadfbd638\")\n      dup2\n      jump\n        /* \"contracts/Staking_dApp/StakeRoyalty.sol\":1433:1536  function totalAmountStaked() external view returns (uint256)... */\n    tag_17:\n      callvalue\n      dup1\n      iszero\n      tag_79\n      jumpi\n      0x00\n      dup1\n      revert\n    tag_79:\n      pop\n        /* \"contracts/Staking_dApp/StakeRoyalty.sol\":1517:1528  _totalStake */\n      sload(0x05)\n        /* \"contracts/Staking_dApp/StakeRoyalty.sol\":1433:1536  function totalAmountStaked() external view returns (uint256)... */\n      jump(tag_22)\n        /* \"contracts/Staking_dApp/StakeRoyalty.sol\":2190:2427  function earned(address account) public view returns (uint256)... */\n    tag_25:\n      sub(shl(0xa0, 0x01), 0x01)\n        /* \"contracts/Staking_dApp/StakeRoyalty.sol\":2402:2419  _rewards[account] */\n      dup2\n      and\n        /* \"contracts/Staking_dApp/StakeRoyalty.sol\":2244:2251  uint256 */\n      0x00\n        /* \"contracts/Staking_dApp/StakeRoyalty.sol\":2402:2419  _rewards[account] */\n      swap1\n      dup2\n      mstore\n        /* \"contracts/Staking_dApp/StakeRoyalty.sol\":2402:2410  _rewards */\n      0x07\n        /* \"contracts/Staking_dApp/StakeRoyalty.sol\":2402:2419  _rewards[account] */\n      0x20\n      swap1\n      dup2\n      mstore\n      0x40\n      dup1\n      dup4\n      keccak256\n      sload\n        /* \"contracts/Staking_dApp/StakeRoyalty.sol\":2349:2372  _userRewardPerTokenPaid */\n      0x06\n        /* \"contracts/Staking_dApp/StakeRoyalty.sol\":2349:2381  _userRewardPerTokenPaid[account] */\n      swap1\n      swap3\n      mstore\n      dup3\n      keccak256\n      sload\n        /* \"contracts/Staking_dApp/StakeRoyalty.sol\":2334:2345  _totalStake */\n      sload(0x05)\n        /* \"contracts/Staking_dApp/StakeRoyalty.sol\":2395:2399  1e18 */\n      0x0de0b6b3a7640000\n      swap2\n        /* \"contracts/Staking_dApp/StakeRoyalty.sol\":2349:2381  _userRewardPerTokenPaid[account] */\n      swap1\n        /* \"contracts/Staking_dApp/StakeRoyalty.sol\":2312:2346  _state.rewardPerToken(_totalStake) */\n      tag_84\n      swap1\n        /* \"contracts/Staking_dApp/StakeRoyalty.sol\":2312:2318  _state */\n      0x01\n      swap1\n        /* \"contracts/Staking_dApp/StakeRoyalty.sol\":2312:2333  _state.rewardPerToken */\n      tag_85\n        /* \"contracts/Staking_dApp/StakeRoyalty.sol\":2312:2346  _state.rewardPerToken(_totalStake) */\n      jump\t// in\n    tag_84:\n        /* \"contracts/Staking_dApp/StakeRoyalty.sol\":2312:2381  _state.rewardPerToken(_totalStake) - _userRewardPerTokenPaid[account] */\n      tag_86\n      swap2\n      swap1\n      tag_87\n      jump\t// in\n    tag_86:\n      sub(shl(0xa0, 0x01), 0x01)\n        /* \"contracts/Staking_dApp/StakeRoyalty.sol\":2276:2294  _balances[account] */\n      dup6\n      and\n      0x00\n      swap1\n      dup2\n      mstore\n        /* \"contracts/Staking_dApp/StakeRoyalty.sol\":2276:2285  _balances */\n      0x08\n        /* \"contracts/Staking_dApp/StakeRoyalty.sol\":2276:2294  _balances[account] */\n      0x20\n      mstore\n      0x40\n      swap1\n      keccak256\n      sload\n        /* \"contracts/Staking_dApp/StakeRoyalty.sol\":2276:2392  _balances[account] * (... */\n      tag_88\n      swap2\n      swap1\n      tag_89\n      jump\t// in\n    tag_88:\n        /* \"contracts/Staking_dApp/StakeRoyalty.sol\":2276:2399  _balances[account] * (... */\n      tag_90\n      swap2\n      swap1\n      tag_91\n      jump\t// in\n    tag_90:\n        /* \"contracts/Staking_dApp/StakeRoyalty.sol\":2276:2419  _balances[account] * (... */\n      tag_92\n      swap2\n      swap1\n      tag_93\n      jump\t// in\n    tag_92:\n        /* \"contracts/Staking_dApp/StakeRoyalty.sol\":2269:2419  return _balances[account] * (... */\n      swap3\n        /* \"contracts/Staking_dApp/StakeRoyalty.sol\":2190:2427  function earned(address account) public view returns (uint256)... */\n      swap2\n      pop\n      pop\n      jump\t// out\n        /* \"contracts/Staking_dApp/StakeRoyalty.sol\":4583:4848  function depositRewardTokens(uint256 amount) external payable onlyDistributor... */\n    tag_31:\n        /* \"contracts/Staking_dApp/StakeRoyalty.sol\":6350:6368  _state.distributor */\n      and(sub(shl(0xa0, 0x01), 0x01), sload(0x02))\n        /* \"contracts/Staking_dApp/StakeRoyalty.sol\":6328:6338  msg.sender */\n      caller\n        /* \"contracts/Staking_dApp/StakeRoyalty.sol\":6328:6369  msg.sender == address(_state.distributor) */\n      eq\n        /* \"contracts/Staking_dApp/StakeRoyalty.sol\":6320:6389  require(msg.sender == address(_state.distributor), \"Not distributor\") */\n      tag_95\n      jumpi\n      mload(0x40)\n      shl(0xe5, 0x461bcd)\n      dup2\n      mstore\n      0x04\n      add\n      tag_96\n      swap1\n      tag_97\n      jump\t// in\n    tag_96:\n      mload(0x40)\n      dup1\n      swap2\n      sub\n      swap1\n      revert\n    tag_95:\n        /* \"contracts/Staking_dApp/StakeRoyalty.sol\":4694:4695  0 */\n      0x00\n        /* \"contracts/Staking_dApp/StakeRoyalty.sol\":4685:4691  amount */\n      dup2\n        /* \"contracts/Staking_dApp/StakeRoyalty.sol\":4685:4695  amount > 0 */\n      gt\n        /* \"contracts/Staking_dApp/StakeRoyalty.sol\":4677:4725  require(amount > 0, \"Must be greater than zero\") */\n      tag_99\n      jumpi\n      mload(0x40)\n      shl(0xe5, 0x461bcd)\n      dup2\n      mstore\n      0x04\n      add\n      tag_96\n      swap1\n      tag_101\n      jump\t// in\n    tag_99:\n        /* \"contracts/Staking_dApp/StakeRoyalty.sol\":4738:4801  rewardToken.safeTransferFrom(msg.sender, address(this), amount) */\n      tag_102\n      sub(shl(0xa0, 0x01), 0x01)\n        /* \"contracts/Staking_dApp/StakeRoyalty.sol\":4738:4749  rewardToken */\n      immutable(\"0x6357266b9d53c0f9af6b7cc53f59dc85b165702d9398eebfa95f674cadfbd638\")\n        /* \"contracts/Staking_dApp/StakeRoyalty.sol\":4738:4766  rewardToken.safeTransferFrom */\n      and\n        /* \"contracts/Staking_dApp/StakeRoyalty.sol\":4767:4777  msg.sender */\n      caller\n        /* \"contracts/Staking_dApp/StakeRoyalty.sol\":4787:4791  this */\n      address\n        /* \"contracts/Staking_dApp/StakeRoyalty.sol\":4794:4800  amount */\n      dup5\n        /* \"contracts/Staking_dApp/StakeRoyalty.sol\":4738:4766  rewardToken.safeTransferFrom */\n      tag_103\n        /* \"contracts/Staking_dApp/StakeRoyalty.sol\":4738:4801  rewardToken.safeTransferFrom(msg.sender, address(this), amount) */\n      jump\t// in\n    tag_102:\n        /* \"contracts/Staking_dApp/StakeRoyalty.sol\":4814:4840  notifyRewardAmount(amount) */\n      tag_104\n        /* \"contracts/Staking_dApp/StakeRoyalty.sol\":4833:4839  amount */\n      dup2\n        /* \"contracts/Staking_dApp/StakeRoyalty.sol\":4814:4832  notifyRewardAmount */\n      tag_41\n        /* \"contracts/Staking_dApp/StakeRoyalty.sol\":4814:4840  notifyRewardAmount(amount) */\n      jump\t// in\n    tag_104:\n        /* \"contracts/Staking_dApp/StakeRoyalty.sol\":4583:4848  function depositRewardTokens(uint256 amount) external payable onlyDistributor... */\n      pop\n      jump\t// out\n        /* \"contracts/Staking_dApp/StakeRoyalty.sol\":2058:2182  function getRewardForDuration() external view returns (uint256)... */\n    tag_34:\n        /* \"contracts/Staking_dApp/StakeRoyalty.sol\":2113:2120  uint256 */\n      0x00\n        /* \"contracts/Staking_dApp/StakeRoyalty.sol\":2145:2174  _state.getRewardForDuration() */\n      tag_106\n        /* \"contracts/Staking_dApp/StakeRoyalty.sol\":2145:2151  _state */\n      0x01\n        /* \"contracts/Staking_dApp/StakeRoyalty.sol\":2145:2172  _state.getRewardForDuration */\n      tag_107\n        /* \"contracts/Staking_dApp/StakeRoyalty.sol\":2145:2174  _state.getRewardForDuration() */\n      jump\t// in\n    tag_106:\n        /* \"contracts/Staking_dApp/StakeRoyalty.sol\":2138:2174  return _state.getRewardForDuration() */\n      swap1\n      pop\n        /* \"contracts/Staking_dApp/StakeRoyalty.sol\":2058:2182  function getRewardForDuration() external view returns (uint256)... */\n      swap1\n      jump\t// out\n        /* \"contracts/Staking_dApp/StakeRoyalty.sol\":2841:3179  function withdraw(uint256 amount) public payable nonReentrant updateReward(msg.sender)... */\n    tag_38:\n        /* \"contracts/Staking_dApp/ReentrancyGuard.sol\":2311:2332  _nonReentrantBefore() */\n      tag_109\n        /* \"contracts/Staking_dApp/ReentrancyGuard.sol\":2311:2330  _nonReentrantBefore */\n      tag_110\n        /* \"contracts/Staking_dApp/ReentrancyGuard.sol\":2311:2332  _nonReentrantBefore() */\n      jump\t// in\n    tag_109:\n        /* \"contracts/Staking_dApp/StakeRoyalty.sol\":2916:2926  msg.sender */\n      caller\n        /* \"contracts/Staking_dApp/StakeRoyalty.sol\":5867:5899  _state.updateReward(_totalStake) */\n      tag_112\n        /* \"contracts/Staking_dApp/StakeRoyalty.sol\":5887:5898  _totalStake */\n      sload(0x05)\n        /* \"contracts/Staking_dApp/StakeRoyalty.sol\":5867:5873  _state */\n      0x01\n        /* \"contracts/Staking_dApp/StakeRoyalty.sol\":5867:5886  _state.updateReward */\n      tag_113\n      swap1\n        /* \"contracts/Staking_dApp/StakeRoyalty.sol\":5867:5899  _state.updateReward(_totalStake) */\n      swap2\n      swap1\n      0xffffffff\n      and\n      jump\t// in\n    tag_112:\n      sub(shl(0xa0, 0x01), 0x01)\n        /* \"contracts/Staking_dApp/StakeRoyalty.sol\":5916:5937  account != address(0) */\n      dup2\n      and\n      iszero\n        /* \"contracts/Staking_dApp/StakeRoyalty.sol\":5912:6078  if (account != address(0)) {... */\n      tag_114\n      jumpi\n        /* \"contracts/Staking_dApp/StakeRoyalty.sol\":5974:5989  earned(account) */\n      tag_115\n        /* \"contracts/Staking_dApp/StakeRoyalty.sol\":5981:5988  account */\n      dup2\n        /* \"contracts/Staking_dApp/StakeRoyalty.sol\":5974:5980  earned */\n      tag_25\n        /* \"contracts/Staking_dApp/StakeRoyalty.sol\":5974:5989  earned(account) */\n      jump\t// in\n    tag_115:\n      sub(shl(0xa0, 0x01), 0x01)\n        /* \"contracts/Staking_dApp/StakeRoyalty.sol\":5954:5971  _rewards[account] */\n      dup3\n      and\n      0x00\n      swap1\n      dup2\n      mstore\n        /* \"contracts/Staking_dApp/StakeRoyalty.sol\":5954:5962  _rewards */\n      0x07\n        /* \"contracts/Staking_dApp/StakeRoyalty.sol\":5954:5971  _rewards[account] */\n      0x20\n      swap1\n      dup2\n      mstore\n      0x40\n      dup1\n      dup4\n      keccak256\n        /* \"contracts/Staking_dApp/StakeRoyalty.sol\":5954:5989  _rewards[account] = earned(account) */\n      swap4\n      swap1\n      swap4\n      sstore\n        /* \"contracts/Staking_dApp/StakeRoyalty.sol\":6039:6066  _state.rewardPerTokenStored */\n      sload(0x04)\n        /* \"contracts/Staking_dApp/StakeRoyalty.sol\":6004:6027  _userRewardPerTokenPaid */\n      0x06\n        /* \"contracts/Staking_dApp/StakeRoyalty.sol\":6004:6036  _userRewardPerTokenPaid[account] */\n      swap1\n      swap2\n      mstore\n      swap2\n      swap1\n      keccak256\n        /* \"contracts/Staking_dApp/StakeRoyalty.sol\":6004:6066  _userRewardPerTokenPaid[account] = _state.rewardPerTokenStored */\n      sstore\n        /* \"contracts/Staking_dApp/StakeRoyalty.sol\":5912:6078  if (account != address(0)) {... */\n    tag_114:\n        /* \"contracts/Staking_dApp/StakeRoyalty.sol\":2961:2962  0 */\n      0x00\n        /* \"contracts/Staking_dApp/StakeRoyalty.sol\":2952:2958  amount */\n      dup3\n        /* \"contracts/Staking_dApp/StakeRoyalty.sol\":2952:2962  amount > 0 */\n      gt\n        /* \"contracts/Staking_dApp/StakeRoyalty.sol\":2944:2992  require(amount > 0, \"Must be greater than zero\") */\n      tag_117\n      jumpi\n      mload(0x40)\n      shl(0xe5, 0x461bcd)\n      dup2\n      mstore\n      0x04\n      add\n      tag_96\n      swap1\n      tag_101\n      jump\t// in\n    tag_117:\n        /* \"contracts/Staking_dApp/StakeRoyalty.sol\":3020:3026  amount */\n      dup2\n        /* \"contracts/Staking_dApp/StakeRoyalty.sol\":3005:3016  _totalStake */\n      0x05\n      0x00\n        /* \"contracts/Staking_dApp/StakeRoyalty.sol\":3005:3026  _totalStake -= amount */\n      dup3\n      dup3\n      sload\n      tag_119\n      swap2\n      swap1\n      tag_87\n      jump\t// in\n    tag_119:\n      swap1\n      swap2\n      sstore\n      pop\n      pop\n        /* \"contracts/Staking_dApp/StakeRoyalty.sol\":3047:3057  msg.sender */\n      caller\n        /* \"contracts/Staking_dApp/StakeRoyalty.sol\":3037:3058  _balances[msg.sender] */\n      0x00\n      swap1\n      dup2\n      mstore\n        /* \"contracts/Staking_dApp/StakeRoyalty.sol\":3037:3046  _balances */\n      0x08\n        /* \"contracts/Staking_dApp/StakeRoyalty.sol\":3037:3058  _balances[msg.sender] */\n      0x20\n      mstore\n      0x40\n      dup2\n      keccak256\n        /* \"contracts/Staking_dApp/StakeRoyalty.sol\":3037:3068  _balances[msg.sender] -= amount */\n      dup1\n      sload\n        /* \"contracts/Staking_dApp/StakeRoyalty.sol\":3062:3068  amount */\n      dup5\n      swap3\n        /* \"contracts/Staking_dApp/StakeRoyalty.sol\":3037:3058  _balances[msg.sender] */\n      swap1\n        /* \"contracts/Staking_dApp/StakeRoyalty.sol\":3037:3068  _balances[msg.sender] -= amount */\n      tag_120\n      swap1\n        /* \"contracts/Staking_dApp/StakeRoyalty.sol\":3062:3068  amount */\n      dup5\n      swap1\n        /* \"contracts/Staking_dApp/StakeRoyalty.sol\":3037:3068  _balances[msg.sender] -= amount */\n      tag_87\n      jump\t// in\n    tag_120:\n      swap1\n      swap2\n      sstore\n      pop\n        /* \"contracts/Staking_dApp/StakeRoyalty.sol\":3079:3124  stakingToken.safeTransfer(msg.sender, amount) */\n      tag_121\n      swap1\n      pop\n      sub(shl(0xa0, 0x01), 0x01)\n        /* \"contracts/Staking_dApp/StakeRoyalty.sol\":3079:3091  stakingToken */\n      immutable(\"0x3a2a6f4e0dcd4611e0c200ca45f55d44b54b380ac384ae0bef4a36eff139c211\")\n        /* \"contracts/Staking_dApp/StakeRoyalty.sol\":3079:3104  stakingToken.safeTransfer */\n      and\n        /* \"contracts/Staking_dApp/StakeRoyalty.sol\":3105:3115  msg.sender */\n      caller\n        /* \"contracts/Staking_dApp/StakeRoyalty.sol\":3117:3123  amount */\n      dup5\n        /* \"contracts/Staking_dApp/StakeRoyalty.sol\":3079:3104  stakingToken.safeTransfer */\n      tag_122\n        /* \"contracts/Staking_dApp/StakeRoyalty.sol\":3079:3124  stakingToken.safeTransfer(msg.sender, amount) */\n      jump\t// in\n    tag_121:\n        /* \"contracts/Staking_dApp/StakeRoyalty.sol\":3142:3171  Withdrawn(msg.sender, amount) */\n      mload(0x40)\n        /* \"#utility.yul\":451:476   */\n      dup3\n      dup2\n      mstore\n        /* \"contracts/Staking_dApp/StakeRoyalty.sol\":3152:3162  msg.sender */\n      caller\n      swap1\n        /* \"contracts/Staking_dApp/StakeRoyalty.sol\":3142:3171  Withdrawn(msg.sender, amount) */\n      0x7084f5476618d8e60b11ef0d7d3f06914655adb8793e28ff7f018d4c76d505d5\n      swap1\n        /* \"#utility.yul\":439:441   */\n      0x20\n        /* \"#utility.yul\":424:442   */\n      add\n        /* \"contracts/Staking_dApp/StakeRoyalty.sol\":3142:3171  Withdrawn(msg.sender, amount) */\n    tag_123:\n      mload(0x40)\n      dup1\n      swap2\n      sub\n      swap1\n      log2\n        /* \"contracts/Staking_dApp/ReentrancyGuard.sol\":2343:2344  _ */\n      pop\n        /* \"contracts/Staking_dApp/ReentrancyGuard.sol\":2355:2375  _nonReentrantAfter() */\n      tag_104\n        /* \"contracts/Staking_dApp/ReentrancyGuard.sol\":1749:1750  1 */\n      0x01\n        /* \"contracts/Staking_dApp/ReentrancyGuard.sol\":2875:2882  _status */\n      0x00\n        /* \"contracts/Staking_dApp/ReentrancyGuard.sol\":2875:2897  _status = _NOT_ENTERED */\n      sstore\n        /* \"contracts/Staking_dApp/ReentrancyGuard.sol\":2692:2905  function _nonReentrantAfter() private {... */\n      jump\n        /* \"contracts/Staking_dApp/StakeRoyalty.sol\":4856:5764  function notifyRewardAmount(uint256 reward) public payable updateReward(address(0)) onlyDistributor... */\n    tag_41:\n        /* \"contracts/Staking_dApp/StakeRoyalty.sol\":4936:4937  0 */\n      0x00\n        /* \"contracts/Staking_dApp/StakeRoyalty.sol\":5867:5899  _state.updateReward(_totalStake) */\n      tag_127\n        /* \"contracts/Staking_dApp/StakeRoyalty.sol\":5887:5898  _totalStake */\n      sload(0x05)\n        /* \"contracts/Staking_dApp/StakeRoyalty.sol\":5867:5873  _state */\n      0x01\n        /* \"contracts/Staking_dApp/StakeRoyalty.sol\":5867:5886  _state.updateReward */\n      tag_113\n      swap1\n        /* \"contracts/Staking_dApp/StakeRoyalty.sol\":5867:5899  _state.updateReward(_totalStake) */\n      swap2\n      swap1\n      0xffffffff\n      and\n      jump\t// in\n    tag_127:\n      sub(shl(0xa0, 0x01), 0x01)\n        /* \"contracts/Staking_dApp/StakeRoyalty.sol\":5916:5937  account != address(0) */\n      dup2\n      and\n      iszero\n        /* \"contracts/Staking_dApp/StakeRoyalty.sol\":5912:6078  if (account != address(0)) {... */\n      tag_128\n      jumpi\n        /* \"contracts/Staking_dApp/StakeRoyalty.sol\":5974:5989  earned(account) */\n      tag_129\n        /* \"contracts/Staking_dApp/StakeRoyalty.sol\":5981:5988  account */\n      dup2\n        /* \"contracts/Staking_dApp/StakeRoyalty.sol\":5974:5980  earned */\n      tag_25\n        /* \"contracts/Staking_dApp/StakeRoyalty.sol\":5974:5989  earned(account) */\n      jump\t// in\n    tag_129:\n      sub(shl(0xa0, 0x01), 0x01)\n        /* \"contracts/Staking_dApp/StakeRoyalty.sol\":5954:5971  _rewards[account] */\n      dup3\n      and\n      0x00\n      swap1\n      dup2\n      mstore\n        /* \"contracts/Staking_dApp/StakeRoyalty.sol\":5954:5962  _rewards */\n      0x07\n        /* \"contracts/Staking_dApp/StakeRoyalty.sol\":5954:5971  _rewards[account] */\n      0x20\n      swap1\n      dup2\n      mstore\n      0x40\n      dup1\n      dup4\n      keccak256\n        /* \"contracts/Staking_dApp/StakeRoyalty.sol\":5954:5989  _rewards[account] = earned(account) */\n      swap4\n      swap1\n      swap4\n      sstore\n        /* \"contracts/Staking_dApp/StakeRoyalty.sol\":6039:6066  _state.rewardPerTokenStored */\n      sload(0x04)\n        /* \"contracts/Staking_dApp/StakeRoyalty.sol\":6004:6027  _userRewardPerTokenPaid */\n      0x06\n        /* \"contracts/Staking_dApp/StakeRoyalty.sol\":6004:6036  _userRewardPerTokenPaid[account] */\n      swap1\n      swap2\n      mstore\n      swap2\n      swap1\n      keccak256\n        /* \"contracts/Staking_dApp/StakeRoyalty.sol\":6004:6066  _userRewardPerTokenPaid[account] = _state.rewardPerTokenStored */\n      sstore\n        /* \"contracts/Staking_dApp/StakeRoyalty.sol\":5912:6078  if (account != address(0)) {... */\n    tag_128:\n        /* \"contracts/Staking_dApp/StakeRoyalty.sol\":6350:6368  _state.distributor */\n      and(sub(shl(0xa0, 0x01), 0x01), sload(0x02))\n        /* \"contracts/Staking_dApp/StakeRoyalty.sol\":6328:6338  msg.sender */\n      caller\n        /* \"contracts/Staking_dApp/StakeRoyalty.sol\":6328:6369  msg.sender == address(_state.distributor) */\n      eq\n        /* \"contracts/Staking_dApp/StakeRoyalty.sol\":6320:6389  require(msg.sender == address(_state.distributor), \"Not distributor\") */\n      tag_131\n      jumpi\n      mload(0x40)\n      shl(0xe5, 0x461bcd)\n      dup2\n      mstore\n      0x04\n      add\n      tag_96\n      swap1\n      tag_97\n      jump\t// in\n    tag_131:\n        /* \"contracts/Staking_dApp/StakeRoyalty.sol\":4991:4997  _state */\n      0x01\n        /* \"contracts/Staking_dApp/StakeRoyalty.sol\":4991:5013  _state.rewardsDuration */\n      sload\n      0xffffffffffffffff\n      shl(0x40, 0x01)\n      dup3\n      div\n      dup2\n      and\n      swap2\n        /* \"contracts/Staking_dApp/StakeRoyalty.sol\":5049:5068  _state.periodFinish */\n      and\n        /* \"contracts/Staking_dApp/StakeRoyalty.sol\":5030:5045  block.timestamp */\n      timestamp\n        /* \"contracts/Staking_dApp/StakeRoyalty.sol\":5030:5068  block.timestamp >= _state.periodFinish */\n      lt\n        /* \"contracts/Staking_dApp/StakeRoyalty.sol\":5026:5352  if (block.timestamp >= _state.periodFinish) {... */\n      tag_134\n      jumpi\n        /* \"contracts/Staking_dApp/StakeRoyalty.sol\":5105:5122  reward / duration */\n      tag_135\n        /* \"contracts/Staking_dApp/StakeRoyalty.sol\":5114:5122  duration */\n      dup2\n        /* \"contracts/Staking_dApp/StakeRoyalty.sol\":5105:5111  reward */\n      dup5\n        /* \"contracts/Staking_dApp/StakeRoyalty.sol\":5105:5122  reward / duration */\n      tag_91\n      jump\t// in\n    tag_135:\n        /* \"contracts/Staking_dApp/StakeRoyalty.sol\":5085:5102  _state.rewardRate */\n      0x03\n        /* \"contracts/Staking_dApp/StakeRoyalty.sol\":5085:5122  _state.rewardRate = reward / duration */\n      sstore\n        /* \"contracts/Staking_dApp/StakeRoyalty.sol\":5026:5352  if (block.timestamp >= _state.periodFinish) {... */\n      jump(tag_136)\n    tag_134:\n        /* \"contracts/Staking_dApp/StakeRoyalty.sol\":5175:5181  _state */\n      0x01\n        /* \"contracts/Staking_dApp/StakeRoyalty.sol\":5175:5194  _state.periodFinish */\n      sload\n        /* \"contracts/Staking_dApp/StakeRoyalty.sol\":5155:5172  uint256 remaining */\n      0x00\n      swap1\n        /* \"contracts/Staking_dApp/StakeRoyalty.sol\":5175:5212  _state.periodFinish - block.timestamp */\n      tag_137\n      swap1\n        /* \"contracts/Staking_dApp/StakeRoyalty.sol\":5197:5212  block.timestamp */\n      timestamp\n      swap1\n        /* \"contracts/Staking_dApp/StakeRoyalty.sol\":5175:5194  _state.periodFinish */\n      0xffffffffffffffff\n      and\n        /* \"contracts/Staking_dApp/StakeRoyalty.sol\":5175:5212  _state.periodFinish - block.timestamp */\n      tag_87\n      jump\t// in\n    tag_137:\n        /* \"contracts/Staking_dApp/StakeRoyalty.sol\":5258:5275  _state.rewardRate */\n      sload(0x03)\n        /* \"contracts/Staking_dApp/StakeRoyalty.sol\":5155:5212  uint256 remaining = _state.periodFinish - block.timestamp */\n      swap1\n      swap2\n      pop\n        /* \"contracts/Staking_dApp/StakeRoyalty.sol\":5227:5243  uint256 leftover */\n      0x00\n      swap1\n        /* \"contracts/Staking_dApp/StakeRoyalty.sol\":5246:5275  remaining * _state.rewardRate */\n      tag_138\n      swap1\n        /* \"contracts/Staking_dApp/StakeRoyalty.sol\":5155:5212  uint256 remaining = _state.periodFinish - block.timestamp */\n      dup4\n        /* \"contracts/Staking_dApp/StakeRoyalty.sol\":5246:5275  remaining * _state.rewardRate */\n      tag_89\n      jump\t// in\n    tag_138:\n        /* \"contracts/Staking_dApp/StakeRoyalty.sol\":5227:5275  uint256 leftover = remaining * _state.rewardRate */\n      swap1\n      pop\n        /* \"contracts/Staking_dApp/StakeRoyalty.sol\":5332:5340  duration */\n      dup3\n        /* \"contracts/Staking_dApp/StakeRoyalty.sol\":5311:5328  reward + leftover */\n      tag_139\n        /* \"contracts/Staking_dApp/StakeRoyalty.sol\":5227:5275  uint256 leftover = remaining * _state.rewardRate */\n      dup3\n        /* \"contracts/Staking_dApp/StakeRoyalty.sol\":5311:5317  reward */\n      dup8\n        /* \"contracts/Staking_dApp/StakeRoyalty.sol\":5311:5328  reward + leftover */\n      tag_93\n      jump\t// in\n    tag_139:\n        /* \"contracts/Staking_dApp/StakeRoyalty.sol\":5310:5340  (reward + leftover) / duration */\n      tag_140\n      swap2\n      swap1\n      tag_91\n      jump\t// in\n    tag_140:\n        /* \"contracts/Staking_dApp/StakeRoyalty.sol\":5290:5307  _state.rewardRate */\n      0x03\n        /* \"contracts/Staking_dApp/StakeRoyalty.sol\":5290:5340  _state.rewardRate = (reward + leftover) / duration */\n      sstore\n      pop\n      pop\n        /* \"contracts/Staking_dApp/StakeRoyalty.sol\":5026:5352  if (block.timestamp >= _state.periodFinish) {... */\n    tag_136:\n        /* \"contracts/Staking_dApp/StakeRoyalty.sol\":5382:5418  rewardToken.balanceOf(address(this)) */\n      mload(0x40)\n      shl(0xe0, 0x70a08231)\n      dup2\n      mstore\n        /* \"contracts/Staking_dApp/StakeRoyalty.sol\":5412:5416  this */\n      address\n        /* \"contracts/Staking_dApp/StakeRoyalty.sol\":5382:5418  rewardToken.balanceOf(address(this)) */\n      0x04\n      dup3\n      add\n        /* \"#utility.yul\":832:883   */\n      mstore\n        /* \"contracts/Staking_dApp/StakeRoyalty.sol\":5364:5379  uint256 balance */\n      0x00\n      swap1\n        /* \"contracts/Staking_dApp/StakeRoyalty.sol\":5382:5393  rewardToken */\n      immutable(\"0x6357266b9d53c0f9af6b7cc53f59dc85b165702d9398eebfa95f674cadfbd638\")\n      sub(shl(0xa0, 0x01), 0x01)\n        /* \"contracts/Staking_dApp/StakeRoyalty.sol\":5382:5403  rewardToken.balanceOf */\n      and\n      swap1\n      0x70a08231\n      swap1\n        /* \"#utility.yul\":805:823   */\n      0x24\n      add\n        /* \"contracts/Staking_dApp/StakeRoyalty.sol\":5382:5418  rewardToken.balanceOf(address(this)) */\n      0x20\n      mload(0x40)\n      dup1\n      dup4\n      sub\n      dup2\n      dup7\n      gas\n      staticcall\n      iszero\n      dup1\n      iszero\n      tag_143\n      jumpi\n      returndatasize\n      0x00\n      dup1\n      returndatacopy\n      revert(0x00, returndatasize)\n    tag_143:\n      pop\n      pop\n      pop\n      pop\n      mload(0x40)\n      returndatasize\n      not(0x1f)\n      0x1f\n      dup3\n      add\n      and\n      dup3\n      add\n      dup1\n      0x40\n      mstore\n      pop\n      dup2\n      add\n      swap1\n      tag_144\n      swap2\n      swap1\n      tag_145\n      jump\t// in\n    tag_144:\n        /* \"contracts/Staking_dApp/StakeRoyalty.sol\":5364:5418  uint256 balance = rewardToken.balanceOf(address(this)) */\n      swap1\n      pop\n        /* \"contracts/Staking_dApp/StakeRoyalty.sol\":5450:5462  stakingToken */\n      immutable(\"0x3a2a6f4e0dcd4611e0c200ca45f55d44b54b380ac384ae0bef4a36eff139c211\")\n      sub(shl(0xa0, 0x01), 0x01)\n        /* \"contracts/Staking_dApp/StakeRoyalty.sol\":5435:5462  rewardToken == stakingToken */\n      and\n        /* \"contracts/Staking_dApp/StakeRoyalty.sol\":5435:5446  rewardToken */\n      immutable(\"0x6357266b9d53c0f9af6b7cc53f59dc85b165702d9398eebfa95f674cadfbd638\")\n      sub(shl(0xa0, 0x01), 0x01)\n        /* \"contracts/Staking_dApp/StakeRoyalty.sol\":5435:5462  rewardToken == stakingToken */\n      and\n      sub\n        /* \"contracts/Staking_dApp/StakeRoyalty.sol\":5431:5513  if (rewardToken == stakingToken) {... */\n      tag_146\n      jumpi\n        /* \"contracts/Staking_dApp/StakeRoyalty.sol\":5490:5501  _totalStake */\n      sload(0x05)\n        /* \"contracts/Staking_dApp/StakeRoyalty.sol\":5479:5501  balance -= _totalStake */\n      tag_147\n      swap1\n      dup3\n      tag_87\n      jump\t// in\n    tag_147:\n      swap1\n      pop\n        /* \"contracts/Staking_dApp/StakeRoyalty.sol\":5431:5513  if (rewardToken == stakingToken) {... */\n    tag_146:\n        /* \"contracts/Staking_dApp/StakeRoyalty.sol\":5554:5572  balance / duration */\n      tag_148\n        /* \"contracts/Staking_dApp/StakeRoyalty.sol\":5564:5572  duration */\n      dup3\n        /* \"contracts/Staking_dApp/StakeRoyalty.sol\":5554:5561  balance */\n      dup3\n        /* \"contracts/Staking_dApp/StakeRoyalty.sol\":5554:5572  balance / duration */\n      tag_91\n      jump\t// in\n    tag_148:\n        /* \"contracts/Staking_dApp/StakeRoyalty.sol\":5533:5550  _state.rewardRate */\n      sload(0x03)\n        /* \"contracts/Staking_dApp/StakeRoyalty.sol\":5533:5572  _state.rewardRate <= balance / duration */\n      gt\n      iszero\n        /* \"contracts/Staking_dApp/StakeRoyalty.sol\":5525:5592  require(_state.rewardRate <= balance / duration, \"Reward too high\") */\n      tag_149\n      jumpi\n      mload(0x40)\n      shl(0xe5, 0x461bcd)\n      dup2\n      mstore\n        /* \"#utility.yul\":2981:2983   */\n      0x20\n        /* \"contracts/Staking_dApp/StakeRoyalty.sol\":5525:5592  require(_state.rewardRate <= balance / duration, \"Reward too high\") */\n      0x04\n      dup3\n      add\n        /* \"#utility.yul\":2963:2984   */\n      mstore\n        /* \"#utility.yul\":3020:3022   */\n      0x0f\n        /* \"#utility.yul\":3000:3018   */\n      0x24\n      dup3\n      add\n        /* \"#utility.yul\":2993:3023   */\n      mstore\n      shl(0x8b, 0x0a4caeec2e4c840e8dede40d0d2ced)\n        /* \"#utility.yul\":3039:3057   */\n      0x44\n      dup3\n      add\n        /* \"#utility.yul\":3032:3077   */\n      mstore\n        /* \"#utility.yul\":3094:3112   */\n      0x64\n      add\n        /* \"contracts/Staking_dApp/StakeRoyalty.sol\":5525:5592  require(_state.rewardRate <= balance / duration, \"Reward too high\") */\n      tag_96\n        /* \"#utility.yul\":2779:3118   */\n      jump\n        /* \"contracts/Staking_dApp/StakeRoyalty.sol\":5525:5592  require(_state.rewardRate <= balance / duration, \"Reward too high\") */\n    tag_149:\n        /* \"contracts/Staking_dApp/StakeRoyalty.sol\":5605:5611  _state */\n      0x01\n        /* \"contracts/Staking_dApp/StakeRoyalty.sol\":5605:5652  _state.lastUpdateTime = uint64(block.timestamp) */\n      dup1\n      sload\n      0xffffffffffffffff\n        /* \"contracts/Staking_dApp/StakeRoyalty.sol\":5636:5651  block.timestamp */\n      timestamp\n        /* \"contracts/Staking_dApp/StakeRoyalty.sol\":5605:5652  _state.lastUpdateTime = uint64(block.timestamp) */\n      swap1\n      dup2\n      and\n      shl(0x80, 0x01)\n      mul\n      not(shl(0x80, 0xffffffffffffffff))\n      swap1\n      swap3\n      and\n      swap2\n      swap1\n      swap2\n      or\n      swap1\n      swap2\n      sstore\n        /* \"contracts/Staking_dApp/StakeRoyalty.sol\":5692:5718  block.timestamp + duration */\n      tag_152\n      swap1\n        /* \"contracts/Staking_dApp/StakeRoyalty.sol\":5710:5718  duration */\n      dup4\n      swap1\n        /* \"contracts/Staking_dApp/StakeRoyalty.sol\":5692:5718  block.timestamp + duration */\n      tag_93\n      jump\t// in\n    tag_152:\n        /* \"contracts/Staking_dApp/StakeRoyalty.sol\":5663:5669  _state */\n      0x01\n        /* \"contracts/Staking_dApp/StakeRoyalty.sol\":5663:5719  _state.periodFinish = uint64(block.timestamp + duration) */\n      dup1\n      sload\n      not(0xffffffffffffffff)\n      and\n      0xffffffffffffffff\n      swap3\n      swap1\n      swap3\n      and\n      swap2\n      swap1\n      swap2\n      or\n      swap1\n      sstore\n        /* \"contracts/Staking_dApp/StakeRoyalty.sol\":5737:5756  RewardAdded(reward) */\n      mload(0x40)\n        /* \"#utility.yul\":451:476   */\n      dup5\n      dup2\n      mstore\n        /* \"contracts/Staking_dApp/StakeRoyalty.sol\":5737:5756  RewardAdded(reward) */\n      0xde88a922e0d3b88b24e9623efeb464919c6bf9f66857a65e2bfcf2ce87a9433d\n      swap1\n        /* \"#utility.yul\":439:441   */\n      0x20\n        /* \"#utility.yul\":424:442   */\n      add\n        /* \"contracts/Staking_dApp/StakeRoyalty.sol\":5737:5756  RewardAdded(reward) */\n      mload(0x40)\n      dup1\n      swap2\n      sub\n      swap1\n      log1\n        /* \"contracts/Staking_dApp/StakeRoyalty.sol\":4961:5764  {... */\n      pop\n      pop\n        /* \"contracts/Staking_dApp/StakeRoyalty.sol\":4856:5764  function notifyRewardAmount(uint256 reward) public payable updateReward(address(0)) onlyDistributor... */\n      pop\n      pop\n      jump\t// out\n        /* \"contracts/Staking_dApp/StakeRoyalty.sol\":3187:3512  function getReward() public payable nonReentrant updateReward(msg.sender)... */\n    tag_43:\n        /* \"contracts/Staking_dApp/ReentrancyGuard.sol\":2311:2332  _nonReentrantBefore() */\n      tag_155\n        /* \"contracts/Staking_dApp/ReentrancyGuard.sol\":2311:2330  _nonReentrantBefore */\n      tag_110\n        /* \"contracts/Staking_dApp/ReentrancyGuard.sol\":2311:2332  _nonReentrantBefore() */\n      jump\t// in\n    tag_155:\n        /* \"contracts/Staking_dApp/StakeRoyalty.sol\":3249:3259  msg.sender */\n      caller\n        /* \"contracts/Staking_dApp/StakeRoyalty.sol\":5867:5899  _state.updateReward(_totalStake) */\n      tag_157\n        /* \"contracts/Staking_dApp/StakeRoyalty.sol\":5887:5898  _totalStake */\n      sload(0x05)\n        /* \"contracts/Staking_dApp/StakeRoyalty.sol\":5867:5873  _state */\n      0x01\n        /* \"contracts/Staking_dApp/StakeRoyalty.sol\":5867:5886  _state.updateReward */\n      tag_113\n      swap1\n        /* \"contracts/Staking_dApp/StakeRoyalty.sol\":5867:5899  _state.updateReward(_totalStake) */\n      swap2\n      swap1\n      0xffffffff\n      and\n      jump\t// in\n    tag_157:\n      sub(shl(0xa0, 0x01), 0x01)\n        /* \"contracts/Staking_dApp/StakeRoyalty.sol\":5916:5937  account != address(0) */\n      dup2\n      and\n      iszero\n        /* \"contracts/Staking_dApp/StakeRoyalty.sol\":5912:6078  if (account != address(0)) {... */\n      tag_158\n      jumpi\n        /* \"contracts/Staking_dApp/StakeRoyalty.sol\":5974:5989  earned(account) */\n      tag_159\n        /* \"contracts/Staking_dApp/StakeRoyalty.sol\":5981:5988  account */\n      dup2\n        /* \"contracts/Staking_dApp/StakeRoyalty.sol\":5974:5980  earned */\n      tag_25\n        /* \"contracts/Staking_dApp/StakeRoyalty.sol\":5974:5989  earned(account) */\n      jump\t// in\n    tag_159:\n      sub(shl(0xa0, 0x01), 0x01)\n        /* \"contracts/Staking_dApp/StakeRoyalty.sol\":5954:5971  _rewards[account] */\n      dup3\n      and\n      0x00\n      swap1\n      dup2\n      mstore\n        /* \"contracts/Staking_dApp/StakeRoyalty.sol\":5954:5962  _rewards */\n      0x07\n        /* \"contracts/Staking_dApp/StakeRoyalty.sol\":5954:5971  _rewards[account] */\n      0x20\n      swap1\n      dup2\n      mstore\n      0x40\n      dup1\n      dup4\n      keccak256\n        /* \"contracts/Staking_dApp/StakeRoyalty.sol\":5954:5989  _rewards[account] = earned(account) */\n      swap4\n      swap1\n      swap4\n      sstore\n        /* \"contracts/Staking_dApp/StakeRoyalty.sol\":6039:6066  _state.rewardPerTokenStored */\n      sload(0x04)\n        /* \"contracts/Staking_dApp/StakeRoyalty.sol\":6004:6027  _userRewardPerTokenPaid */\n      0x06\n        /* \"contracts/Staking_dApp/StakeRoyalty.sol\":6004:6036  _userRewardPerTokenPaid[account] */\n      swap1\n      swap2\n      mstore\n      swap2\n      swap1\n      keccak256\n        /* \"contracts/Staking_dApp/StakeRoyalty.sol\":6004:6066  _userRewardPerTokenPaid[account] = _state.rewardPerTokenStored */\n      sstore\n        /* \"contracts/Staking_dApp/StakeRoyalty.sol\":5912:6078  if (account != address(0)) {... */\n    tag_158:\n        /* \"contracts/Staking_dApp/StakeRoyalty.sol\":3303:3313  msg.sender */\n      caller\n        /* \"contracts/Staking_dApp/StakeRoyalty.sol\":3277:3291  uint256 reward */\n      0x00\n        /* \"contracts/Staking_dApp/StakeRoyalty.sol\":3294:3314  _rewards[msg.sender] */\n      swap1\n      dup2\n      mstore\n        /* \"contracts/Staking_dApp/StakeRoyalty.sol\":3294:3302  _rewards */\n      0x07\n        /* \"contracts/Staking_dApp/StakeRoyalty.sol\":3294:3314  _rewards[msg.sender] */\n      0x20\n      mstore\n      0x40\n      swap1\n      keccak256\n      sload\n        /* \"contracts/Staking_dApp/StakeRoyalty.sol\":3331:3341  reward > 0 */\n      dup1\n      iszero\n        /* \"contracts/Staking_dApp/StakeRoyalty.sol\":3327:3505  if (reward > 0) {... */\n      tag_161\n      jumpi\n        /* \"contracts/Staking_dApp/StakeRoyalty.sol\":3367:3377  msg.sender */\n      caller\n        /* \"contracts/Staking_dApp/StakeRoyalty.sol\":3381:3382  0 */\n      0x00\n        /* \"contracts/Staking_dApp/StakeRoyalty.sol\":3358:3378  _rewards[msg.sender] */\n      dup2\n      dup2\n      mstore\n        /* \"contracts/Staking_dApp/StakeRoyalty.sol\":3358:3366  _rewards */\n      0x07\n        /* \"contracts/Staking_dApp/StakeRoyalty.sol\":3358:3378  _rewards[msg.sender] */\n      0x20\n      mstore\n      0x40\n      dup2\n      keccak256\n        /* \"contracts/Staking_dApp/StakeRoyalty.sol\":3358:3382  _rewards[msg.sender] = 0 */\n      sstore\n        /* \"contracts/Staking_dApp/StakeRoyalty.sol\":3397:3441  rewardToken.safeTransfer(msg.sender, reward) */\n      tag_162\n      swap1\n        /* \"contracts/Staking_dApp/StakeRoyalty.sol\":3397:3408  rewardToken */\n      immutable(\"0x6357266b9d53c0f9af6b7cc53f59dc85b165702d9398eebfa95f674cadfbd638\")\n      sub(shl(0xa0, 0x01), 0x01)\n        /* \"contracts/Staking_dApp/StakeRoyalty.sol\":3397:3421  rewardToken.safeTransfer */\n      and\n      swap1\n        /* \"contracts/Staking_dApp/StakeRoyalty.sol\":3434:3440  reward */\n      dup4\n        /* \"contracts/Staking_dApp/StakeRoyalty.sol\":3397:3421  rewardToken.safeTransfer */\n      tag_122\n        /* \"contracts/Staking_dApp/StakeRoyalty.sol\":3397:3441  rewardToken.safeTransfer(msg.sender, reward) */\n      jump\t// in\n    tag_162:\n        /* \"contracts/Staking_dApp/StakeRoyalty.sol\":3463:3493  RewardPaid(msg.sender, reward) */\n      mload(0x40)\n        /* \"#utility.yul\":451:476   */\n      dup2\n      dup2\n      mstore\n        /* \"contracts/Staking_dApp/StakeRoyalty.sol\":3474:3484  msg.sender */\n      caller\n      swap1\n        /* \"contracts/Staking_dApp/StakeRoyalty.sol\":3463:3493  RewardPaid(msg.sender, reward) */\n      0xe2403640ba68fed3a2f88b7557551d1993f84b99bb10ff833f0cf8db0c5e0486\n      swap1\n        /* \"#utility.yul\":439:441   */\n      0x20\n        /* \"#utility.yul\":424:442   */\n      add\n        /* \"contracts/Staking_dApp/StakeRoyalty.sol\":3463:3493  RewardPaid(msg.sender, reward) */\n      mload(0x40)\n      dup1\n      swap2\n      sub\n      swap1\n      log2\n        /* \"contracts/Staking_dApp/StakeRoyalty.sol\":3327:3505  if (reward > 0) {... */\n    tag_161:\n        /* \"contracts/Staking_dApp/StakeRoyalty.sol\":3266:3512  {... */\n      pop\n        /* \"contracts/Staking_dApp/ReentrancyGuard.sol\":2343:2344  _ */\n      pop\n        /* \"contracts/Staking_dApp/ReentrancyGuard.sol\":2355:2375  _nonReentrantAfter() */\n      tag_164\n        /* \"contracts/Staking_dApp/ReentrancyGuard.sol\":1749:1750  1 */\n      0x01\n        /* \"contracts/Staking_dApp/ReentrancyGuard.sol\":2875:2882  _status */\n      0x00\n        /* \"contracts/Staking_dApp/ReentrancyGuard.sol\":2875:2897  _status = _NOT_ENTERED */\n      sstore\n        /* \"contracts/Staking_dApp/ReentrancyGuard.sol\":2692:2905  function _nonReentrantAfter() private {... */\n      jump\n        /* \"contracts/Staking_dApp/ReentrancyGuard.sol\":2355:2375  _nonReentrantAfter() */\n    tag_164:\n        /* \"contracts/Staking_dApp/StakeRoyalty.sol\":3187:3512  function getReward() public payable nonReentrant updateReward(msg.sender)... */\n      jump\t// out\n        /* \"contracts/Staking_dApp/StakeRoyalty.sol\":4351:4575  function setDistributor(address newDistributor) external payable onlyDistributor... */\n    tag_56:\n        /* \"contracts/Staking_dApp/StakeRoyalty.sol\":6350:6368  _state.distributor */\n      and(sub(shl(0xa0, 0x01), 0x01), sload(0x02))\n        /* \"contracts/Staking_dApp/StakeRoyalty.sol\":6328:6338  msg.sender */\n      caller\n        /* \"contracts/Staking_dApp/StakeRoyalty.sol\":6328:6369  msg.sender == address(_state.distributor) */\n      eq\n        /* \"contracts/Staking_dApp/StakeRoyalty.sol\":6320:6389  require(msg.sender == address(_state.distributor), \"Not distributor\") */\n      tag_167\n      jumpi\n      mload(0x40)\n      shl(0xe5, 0x461bcd)\n      dup2\n      mstore\n      0x04\n      add\n      tag_96\n      swap1\n      tag_97\n      jump\t// in\n    tag_167:\n      sub(shl(0xa0, 0x01), 0x01)\n        /* \"contracts/Staking_dApp/StakeRoyalty.sol\":4456:4484  newDistributor != address(0) */\n      dup2\n      and\n        /* \"contracts/Staking_dApp/StakeRoyalty.sol\":4448:4512  require(newDistributor != address(0), \"Cannot set to zero addr\") */\n      tag_170\n      jumpi\n      mload(0x40)\n      shl(0xe5, 0x461bcd)\n      dup2\n      mstore\n        /* \"#utility.yul\":3325:3327   */\n      0x20\n        /* \"contracts/Staking_dApp/StakeRoyalty.sol\":4448:4512  require(newDistributor != address(0), \"Cannot set to zero addr\") */\n      0x04\n      dup3\n      add\n        /* \"#utility.yul\":3307:3328   */\n      mstore\n        /* \"#utility.yul\":3364:3366   */\n      0x17\n        /* \"#utility.yul\":3344:3362   */\n      0x24\n      dup3\n      add\n        /* \"#utility.yul\":3337:3367   */\n      mstore\n        /* \"#utility.yul\":3403:3428   */\n      0x43616e6e6f742073657420746f207a65726f2061646472000000000000000000\n        /* \"#utility.yul\":3383:3401   */\n      0x44\n      dup3\n      add\n        /* \"#utility.yul\":3376:3429   */\n      mstore\n        /* \"#utility.yul\":3446:3464   */\n      0x64\n      add\n        /* \"contracts/Staking_dApp/StakeRoyalty.sol\":4448:4512  require(newDistributor != address(0), \"Cannot set to zero addr\") */\n      tag_96\n        /* \"#utility.yul\":3123:3470   */\n      jump\n        /* \"contracts/Staking_dApp/StakeRoyalty.sol\":4448:4512  require(newDistributor != address(0), \"Cannot set to zero addr\") */\n    tag_170:\n        /* \"contracts/Staking_dApp/StakeRoyalty.sol\":4523:4541  _state.distributor */\n      0x02\n        /* \"contracts/Staking_dApp/StakeRoyalty.sol\":4523:4567  _state.distributor = uint160(newDistributor) */\n      dup1\n      sload\n      not(sub(shl(0xa0, 0x01), 0x01))\n      and\n      sub(shl(0xa0, 0x01), 0x01)\n      swap3\n      swap1\n      swap3\n      and\n      swap2\n      swap1\n      swap2\n      or\n      swap1\n      sstore\n        /* \"contracts/Staking_dApp/StakeRoyalty.sol\":4351:4575  function setDistributor(address newDistributor) external payable onlyDistributor... */\n      jump\t// out\n        /* \"contracts/Staking_dApp/StakeRoyalty.sol\":1787:1919  function lastTimeRewardApplicable() external view returns (uint256)... */\n    tag_59:\n        /* \"contracts/Staking_dApp/StakeRoyalty.sol\":1846:1853  uint256 */\n      0x00\n        /* \"contracts/Staking_dApp/StakeRoyalty.sol\":1878:1911  _state.lastTimeRewardApplicable() */\n      tag_106\n        /* \"contracts/Staking_dApp/StakeRoyalty.sol\":1878:1884  _state */\n      0x01\n        /* \"contracts/Staking_dApp/StakeRoyalty.sol\":1878:1909  _state.lastTimeRewardApplicable */\n      tag_175\n        /* \"contracts/Staking_dApp/StakeRoyalty.sol\":1878:1911  _state.lastTimeRewardApplicable() */\n      jump\t// in\n        /* \"contracts/Staking_dApp/StakeRoyalty.sol\":2480:2833  function stake(uint256 amount) external payable nonReentrant updateReward(msg.sender)... */\n    tag_68:\n        /* \"contracts/Staking_dApp/ReentrancyGuard.sol\":2311:2332  _nonReentrantBefore() */\n      tag_178\n        /* \"contracts/Staking_dApp/ReentrancyGuard.sol\":2311:2330  _nonReentrantBefore */\n      tag_110\n        /* \"contracts/Staking_dApp/ReentrancyGuard.sol\":2311:2332  _nonReentrantBefore() */\n      jump\t// in\n    tag_178:\n        /* \"contracts/Staking_dApp/StakeRoyalty.sol\":2554:2564  msg.sender */\n      caller\n        /* \"contracts/Staking_dApp/StakeRoyalty.sol\":5867:5899  _state.updateReward(_totalStake) */\n      tag_180\n        /* \"contracts/Staking_dApp/StakeRoyalty.sol\":5887:5898  _totalStake */\n      sload(0x05)\n        /* \"contracts/Staking_dApp/StakeRoyalty.sol\":5867:5873  _state */\n      0x01\n        /* \"contracts/Staking_dApp/StakeRoyalty.sol\":5867:5886  _state.updateReward */\n      tag_113\n      swap1\n        /* \"contracts/Staking_dApp/StakeRoyalty.sol\":5867:5899  _state.updateReward(_totalStake) */\n      swap2\n      swap1\n      0xffffffff\n      and\n      jump\t// in\n    tag_180:\n      sub(shl(0xa0, 0x01), 0x01)\n        /* \"contracts/Staking_dApp/StakeRoyalty.sol\":5916:5937  account != address(0) */\n      dup2\n      and\n      iszero\n        /* \"contracts/Staking_dApp/StakeRoyalty.sol\":5912:6078  if (account != address(0)) {... */\n      tag_181\n      jumpi\n        /* \"contracts/Staking_dApp/StakeRoyalty.sol\":5974:5989  earned(account) */\n      tag_182\n        /* \"contracts/Staking_dApp/StakeRoyalty.sol\":5981:5988  account */\n      dup2\n        /* \"contracts/Staking_dApp/StakeRoyalty.sol\":5974:5980  earned */\n      tag_25\n        /* \"contracts/Staking_dApp/StakeRoyalty.sol\":5974:5989  earned(account) */\n      jump\t// in\n    tag_182:\n      sub(shl(0xa0, 0x01), 0x01)\n        /* \"contracts/Staking_dApp/StakeRoyalty.sol\":5954:5971  _rewards[account] */\n      dup3\n      and\n      0x00\n      swap1\n      dup2\n      mstore\n        /* \"contracts/Staking_dApp/StakeRoyalty.sol\":5954:5962  _rewards */\n      0x07\n        /* \"contracts/Staking_dApp/StakeRoyalty.sol\":5954:5971  _rewards[account] */\n      0x20\n      swap1\n      dup2\n      mstore\n      0x40\n      dup1\n      dup4\n      keccak256\n        /* \"contracts/Staking_dApp/StakeRoyalty.sol\":5954:5989  _rewards[account] = earned(account) */\n      swap4\n      swap1\n      swap4\n      sstore\n        /* \"contracts/Staking_dApp/StakeRoyalty.sol\":6039:6066  _state.rewardPerTokenStored */\n      sload(0x04)\n        /* \"contracts/Staking_dApp/StakeRoyalty.sol\":6004:6027  _userRewardPerTokenPaid */\n      0x06\n        /* \"contracts/Staking_dApp/StakeRoyalty.sol\":6004:6036  _userRewardPerTokenPaid[account] */\n      swap1\n      swap2\n      mstore\n      swap2\n      swap1\n      keccak256\n        /* \"contracts/Staking_dApp/StakeRoyalty.sol\":6004:6066  _userRewardPerTokenPaid[account] = _state.rewardPerTokenStored */\n      sstore\n        /* \"contracts/Staking_dApp/StakeRoyalty.sol\":5912:6078  if (account != address(0)) {... */\n    tag_181:\n        /* \"contracts/Staking_dApp/StakeRoyalty.sol\":2599:2600  0 */\n      0x00\n        /* \"contracts/Staking_dApp/StakeRoyalty.sol\":2590:2596  amount */\n      dup3\n        /* \"contracts/Staking_dApp/StakeRoyalty.sol\":2590:2600  amount > 0 */\n      gt\n        /* \"contracts/Staking_dApp/StakeRoyalty.sol\":2582:2630  require(amount > 0, \"Must be greater than zero\") */\n      tag_184\n      jumpi\n      mload(0x40)\n      shl(0xe5, 0x461bcd)\n      dup2\n      mstore\n      0x04\n      add\n      tag_96\n      swap1\n      tag_101\n      jump\t// in\n    tag_184:\n        /* \"contracts/Staking_dApp/StakeRoyalty.sol\":2643:2707  stakingToken.safeTransferFrom(msg.sender, address(this), amount) */\n      tag_186\n      sub(shl(0xa0, 0x01), 0x01)\n        /* \"contracts/Staking_dApp/StakeRoyalty.sol\":2643:2655  stakingToken */\n      immutable(\"0x3a2a6f4e0dcd4611e0c200ca45f55d44b54b380ac384ae0bef4a36eff139c211\")\n        /* \"contracts/Staking_dApp/StakeRoyalty.sol\":2643:2672  stakingToken.safeTransferFrom */\n      and\n        /* \"contracts/Staking_dApp/StakeRoyalty.sol\":2673:2683  msg.sender */\n      caller\n        /* \"contracts/Staking_dApp/StakeRoyalty.sol\":2693:2697  this */\n      address\n        /* \"contracts/Staking_dApp/StakeRoyalty.sol\":2700:2706  amount */\n      dup6\n        /* \"contracts/Staking_dApp/StakeRoyalty.sol\":2643:2672  stakingToken.safeTransferFrom */\n      tag_103\n        /* \"contracts/Staking_dApp/StakeRoyalty.sol\":2643:2707  stakingToken.safeTransferFrom(msg.sender, address(this), amount) */\n      jump\t// in\n    tag_186:\n        /* \"contracts/Staking_dApp/StakeRoyalty.sol\":2733:2739  amount */\n      dup2\n        /* \"contracts/Staking_dApp/StakeRoyalty.sol\":2718:2729  _totalStake */\n      0x05\n      0x00\n        /* \"contracts/Staking_dApp/StakeRoyalty.sol\":2718:2739  _totalStake += amount */\n      dup3\n      dup3\n      sload\n      tag_187\n      swap2\n      swap1\n      tag_93\n      jump\t// in\n    tag_187:\n      swap1\n      swap2\n      sstore\n      pop\n      pop\n        /* \"contracts/Staking_dApp/StakeRoyalty.sol\":2760:2770  msg.sender */\n      caller\n        /* \"contracts/Staking_dApp/StakeRoyalty.sol\":2750:2771  _balances[msg.sender] */\n      0x00\n      swap1\n      dup2\n      mstore\n        /* \"contracts/Staking_dApp/StakeRoyalty.sol\":2750:2759  _balances */\n      0x08\n        /* \"contracts/Staking_dApp/StakeRoyalty.sol\":2750:2771  _balances[msg.sender] */\n      0x20\n      mstore\n      0x40\n      dup2\n      keccak256\n        /* \"contracts/Staking_dApp/StakeRoyalty.sol\":2750:2781  _balances[msg.sender] += amount */\n      dup1\n      sload\n        /* \"contracts/Staking_dApp/StakeRoyalty.sol\":2775:2781  amount */\n      dup5\n      swap3\n        /* \"contracts/Staking_dApp/StakeRoyalty.sol\":2750:2771  _balances[msg.sender] */\n      swap1\n        /* \"contracts/Staking_dApp/StakeRoyalty.sol\":2750:2781  _balances[msg.sender] += amount */\n      tag_188\n      swap1\n        /* \"contracts/Staking_dApp/StakeRoyalty.sol\":2775:2781  amount */\n      dup5\n      swap1\n        /* \"contracts/Staking_dApp/StakeRoyalty.sol\":2750:2781  _balances[msg.sender] += amount */\n      tag_93\n      jump\t// in\n    tag_188:\n      swap1\n      swap2\n      sstore\n      pop\n      pop\n        /* \"contracts/Staking_dApp/StakeRoyalty.sol\":2799:2825  Staked(msg.sender, amount) */\n      mload(0x40)\n        /* \"#utility.yul\":451:476   */\n      dup3\n      dup2\n      mstore\n        /* \"contracts/Staking_dApp/StakeRoyalty.sol\":2806:2816  msg.sender */\n      caller\n      swap1\n        /* \"contracts/Staking_dApp/StakeRoyalty.sol\":2799:2825  Staked(msg.sender, amount) */\n      0x9e71bc8eea02a63969f509818f2dafb9254532904319f9dbda79b67bd34a5f3d\n      swap1\n        /* \"#utility.yul\":439:441   */\n      0x20\n        /* \"#utility.yul\":424:442   */\n      add\n        /* \"contracts/Staking_dApp/StakeRoyalty.sol\":2799:2825  Staked(msg.sender, amount) */\n      tag_123\n        /* \"#utility.yul\":305:482   */\n      jump\n        /* \"contracts/Staking_dApp/StakeRoyalty.sol\":1927:2050  function rewardPerToken() external view returns (uint256)... */\n    tag_71:\n        /* \"contracts/Staking_dApp/StakeRoyalty.sol\":1976:1983  uint256 */\n      0x00\n        /* \"contracts/Staking_dApp/StakeRoyalty.sol\":2008:2042  _state.rewardPerToken(_totalStake) */\n      tag_106\n        /* \"contracts/Staking_dApp/StakeRoyalty.sol\":2030:2041  _totalStake */\n      sload(0x05)\n        /* \"contracts/Staking_dApp/StakeRoyalty.sol\":2008:2014  _state */\n      0x01\n        /* \"contracts/Staking_dApp/StakeRoyalty.sol\":2008:2029  _state.rewardPerToken */\n      tag_85\n      swap1\n        /* \"contracts/Staking_dApp/StakeRoyalty.sol\":2008:2042  _state.rewardPerToken(_totalStake) */\n      swap2\n      swap1\n      0xffffffff\n      and\n      jump\t// in\n        /* \"contracts/Staking_dApp/StakeRoyalty.sol\":3520:4300  function exit() external payable... */\n    tag_74:\n        /* \"contracts/Staking_dApp/StakeRoyalty.sol\":3589:3600  _totalStake */\n      sload(0x05)\n        /* \"contracts/Staking_dApp/StakeRoyalty.sol\":3569:3601  _state.updateReward(_totalStake) */\n      tag_194\n      swap1\n        /* \"contracts/Staking_dApp/StakeRoyalty.sol\":3569:3575  _state */\n      0x01\n      swap1\n        /* \"contracts/Staking_dApp/StakeRoyalty.sol\":3569:3588  _state.updateReward */\n      tag_113\n        /* \"contracts/Staking_dApp/StakeRoyalty.sol\":3569:3601  _state.updateReward(_totalStake) */\n      jump\t// in\n    tag_194:\n        /* \"contracts/Staking_dApp/StakeRoyalty.sol\":3642:3652  msg.sender */\n      caller\n        /* \"contracts/Staking_dApp/StakeRoyalty.sol\":3614:3629  uint256 balance */\n      0x00\n        /* \"contracts/Staking_dApp/StakeRoyalty.sol\":3632:3653  _balances[msg.sender] */\n      dup2\n      dup2\n      mstore\n        /* \"contracts/Staking_dApp/StakeRoyalty.sol\":3632:3641  _balances */\n      0x08\n        /* \"contracts/Staking_dApp/StakeRoyalty.sol\":3632:3653  _balances[msg.sender] */\n      0x20\n      mstore\n      0x40\n      dup2\n      keccak256\n      sload\n      swap2\n        /* \"contracts/Staking_dApp/StakeRoyalty.sol\":3681:3699  earned(msg.sender) */\n      tag_195\n      swap1\n        /* \"contracts/Staking_dApp/StakeRoyalty.sol\":3681:3687  earned */\n      tag_25\n        /* \"contracts/Staking_dApp/StakeRoyalty.sol\":3681:3699  earned(msg.sender) */\n      jump\t// in\n    tag_195:\n        /* \"contracts/Staking_dApp/StakeRoyalty.sol\":3750:3777  _state.rewardPerTokenStored */\n      sload(0x04)\n        /* \"contracts/Staking_dApp/StakeRoyalty.sol\":3736:3746  msg.sender */\n      caller\n        /* \"contracts/Staking_dApp/StakeRoyalty.sol\":3712:3747  _userRewardPerTokenPaid[msg.sender] */\n      0x00\n      swap1\n      dup2\n      mstore\n        /* \"contracts/Staking_dApp/StakeRoyalty.sol\":3712:3735  _userRewardPerTokenPaid */\n      0x06\n        /* \"contracts/Staking_dApp/StakeRoyalty.sol\":3712:3747  _userRewardPerTokenPaid[msg.sender] */\n      0x20\n      swap1\n      dup2\n      mstore\n      0x40\n      dup1\n      dup4\n      keccak256\n        /* \"contracts/Staking_dApp/StakeRoyalty.sol\":3712:3777  _userRewardPerTokenPaid[msg.sender] = _state.rewardPerTokenStored */\n      swap4\n      swap1\n      swap4\n      sstore\n        /* \"contracts/Staking_dApp/StakeRoyalty.sol\":3788:3797  _balances */\n      0x08\n        /* \"contracts/Staking_dApp/StakeRoyalty.sol\":3788:3809  _balances[msg.sender] */\n      swap1\n      mstore\n      swap1\n      dup2\n      keccak256\n        /* \"contracts/Staking_dApp/StakeRoyalty.sol\":3788:3820  _balances[msg.sender] -= balance */\n      dup1\n      sload\n        /* \"contracts/Staking_dApp/StakeRoyalty.sol\":3664:3699  uint256 reward = earned(msg.sender) */\n      swap3\n      swap4\n      pop\n        /* \"contracts/Staking_dApp/StakeRoyalty.sol\":3813:3820  balance */\n      dup5\n      swap3\n        /* \"contracts/Staking_dApp/StakeRoyalty.sol\":3788:3809  _balances[msg.sender] */\n      swap1\n      swap2\n        /* \"contracts/Staking_dApp/StakeRoyalty.sol\":3712:3747  _userRewardPerTokenPaid[msg.sender] */\n      swap1\n        /* \"contracts/Staking_dApp/StakeRoyalty.sol\":3788:3820  _balances[msg.sender] -= balance */\n      tag_196\n      swap1\n        /* \"contracts/Staking_dApp/StakeRoyalty.sol\":3813:3820  balance */\n      dup5\n      swap1\n        /* \"contracts/Staking_dApp/StakeRoyalty.sol\":3788:3820  _balances[msg.sender] -= balance */\n      tag_87\n      jump\t// in\n    tag_196:\n      swap1\n      swap2\n      sstore\n      pop\n      pop\n        /* \"contracts/Staking_dApp/StakeRoyalty.sol\":3840:3850  msg.sender */\n      caller\n        /* \"contracts/Staking_dApp/StakeRoyalty.sol\":3854:3855  0 */\n      0x00\n        /* \"contracts/Staking_dApp/StakeRoyalty.sol\":3831:3851  _rewards[msg.sender] */\n      swap1\n      dup2\n      mstore\n        /* \"contracts/Staking_dApp/StakeRoyalty.sol\":3831:3839  _rewards */\n      0x07\n        /* \"contracts/Staking_dApp/StakeRoyalty.sol\":3831:3851  _rewards[msg.sender] */\n      0x20\n      mstore\n      0x40\n      dup2\n      keccak256\n        /* \"contracts/Staking_dApp/StakeRoyalty.sol\":3831:3855  _rewards[msg.sender] = 0 */\n      dup2\n      swap1\n      sstore\n        /* \"contracts/Staking_dApp/StakeRoyalty.sol\":3866:3877  _totalStake */\n      0x05\n        /* \"contracts/Staking_dApp/StakeRoyalty.sol\":3866:3888  _totalStake -= balance */\n      dup1\n      sload\n        /* \"contracts/Staking_dApp/StakeRoyalty.sol\":3881:3888  balance */\n      dup5\n      swap3\n        /* \"contracts/Staking_dApp/StakeRoyalty.sol\":3854:3855  0 */\n      swap1\n        /* \"contracts/Staking_dApp/StakeRoyalty.sol\":3866:3888  _totalStake -= balance */\n      tag_197\n      swap1\n        /* \"contracts/Staking_dApp/StakeRoyalty.sol\":3881:3888  balance */\n      dup5\n      swap1\n        /* \"contracts/Staking_dApp/StakeRoyalty.sol\":3866:3888  _totalStake -= balance */\n      tag_87\n      jump\t// in\n    tag_197:\n      swap1\n      swap2\n      sstore\n      pop\n      pop\n        /* \"contracts/Staking_dApp/StakeRoyalty.sol\":3921:3932  _totalStake */\n      sload(0x05)\n        /* \"contracts/Staking_dApp/StakeRoyalty.sol\":3901:3933  _state.updateReward(_totalStake) */\n      tag_198\n      swap1\n        /* \"contracts/Staking_dApp/StakeRoyalty.sol\":3901:3907  _state */\n      0x01\n      swap1\n        /* \"contracts/Staking_dApp/StakeRoyalty.sol\":3901:3920  _state.updateReward */\n      tag_113\n        /* \"contracts/Staking_dApp/StakeRoyalty.sol\":3901:3933  _state.updateReward(_totalStake) */\n      jump\t// in\n    tag_198:\n        /* \"contracts/Staking_dApp/StakeRoyalty.sol\":3966:3977  rewardToken */\n      immutable(\"0x6357266b9d53c0f9af6b7cc53f59dc85b165702d9398eebfa95f674cadfbd638\")\n      sub(shl(0xa0, 0x01), 0x01)\n        /* \"contracts/Staking_dApp/StakeRoyalty.sol\":3950:3977  stakingToken == rewardToken */\n      and\n        /* \"contracts/Staking_dApp/StakeRoyalty.sol\":3950:3962  stakingToken */\n      immutable(\"0x3a2a6f4e0dcd4611e0c200ca45f55d44b54b380ac384ae0bef4a36eff139c211\")\n      sub(shl(0xa0, 0x01), 0x01)\n        /* \"contracts/Staking_dApp/StakeRoyalty.sol\":3950:3977  stakingToken == rewardToken */\n      and\n      sub\n        /* \"contracts/Staking_dApp/StakeRoyalty.sol\":3946:4199  if (stakingToken == rewardToken) {... */\n      tag_199\n      jumpi\n        /* \"contracts/Staking_dApp/StakeRoyalty.sol\":3994:4049  stakingToken.safeTransfer(msg.sender, balance + reward) */\n      tag_200\n        /* \"contracts/Staking_dApp/StakeRoyalty.sol\":4020:4030  msg.sender */\n      caller\n        /* \"contracts/Staking_dApp/StakeRoyalty.sol\":4032:4048  balance + reward */\n      tag_201\n        /* \"contracts/Staking_dApp/StakeRoyalty.sol\":4042:4048  reward */\n      dup4\n        /* \"contracts/Staking_dApp/StakeRoyalty.sol\":4032:4039  balance */\n      dup6\n        /* \"contracts/Staking_dApp/StakeRoyalty.sol\":4032:4048  balance + reward */\n      tag_93\n      jump\t// in\n    tag_201:\n      sub(shl(0xa0, 0x01), 0x01)\n        /* \"contracts/Staking_dApp/StakeRoyalty.sol\":3994:4006  stakingToken */\n      immutable(\"0x3a2a6f4e0dcd4611e0c200ca45f55d44b54b380ac384ae0bef4a36eff139c211\")\n        /* \"contracts/Staking_dApp/StakeRoyalty.sol\":3994:4019  stakingToken.safeTransfer */\n      and\n      swap2\n        /* \"contracts/Staking_dApp/StakeRoyalty.sol\":3994:4049  stakingToken.safeTransfer(msg.sender, balance + reward) */\n      swap1\n        /* \"contracts/Staking_dApp/StakeRoyalty.sol\":3994:4019  stakingToken.safeTransfer */\n      tag_122\n        /* \"contracts/Staking_dApp/StakeRoyalty.sol\":3994:4049  stakingToken.safeTransfer(msg.sender, balance + reward) */\n      jump\t// in\n    tag_200:\n        /* \"contracts/Staking_dApp/StakeRoyalty.sol\":3946:4199  if (stakingToken == rewardToken) {... */\n      jump(tag_204)\n    tag_199:\n        /* \"contracts/Staking_dApp/StakeRoyalty.sol\":4082:4128  stakingToken.safeTransfer(msg.sender, balance) */\n      tag_203\n      sub(shl(0xa0, 0x01), 0x01)\n        /* \"contracts/Staking_dApp/StakeRoyalty.sol\":4082:4094  stakingToken */\n      immutable(\"0x3a2a6f4e0dcd4611e0c200ca45f55d44b54b380ac384ae0bef4a36eff139c211\")\n        /* \"contracts/Staking_dApp/StakeRoyalty.sol\":4082:4107  stakingToken.safeTransfer */\n      and\n        /* \"contracts/Staking_dApp/StakeRoyalty.sol\":4108:4118  msg.sender */\n      caller\n        /* \"contracts/Staking_dApp/StakeRoyalty.sol\":4120:4127  balance */\n      dup5\n        /* \"contracts/Staking_dApp/StakeRoyalty.sol\":4082:4107  stakingToken.safeTransfer */\n      tag_122\n        /* \"contracts/Staking_dApp/StakeRoyalty.sol\":4082:4128  stakingToken.safeTransfer(msg.sender, balance) */\n      jump\t// in\n    tag_203:\n        /* \"contracts/Staking_dApp/StakeRoyalty.sol\":4143:4187  rewardToken.safeTransfer(msg.sender, reward) */\n      tag_204\n      sub(shl(0xa0, 0x01), 0x01)\n        /* \"contracts/Staking_dApp/StakeRoyalty.sol\":4143:4154  rewardToken */\n      immutable(\"0x6357266b9d53c0f9af6b7cc53f59dc85b165702d9398eebfa95f674cadfbd638\")\n        /* \"contracts/Staking_dApp/StakeRoyalty.sol\":4143:4167  rewardToken.safeTransfer */\n      and\n        /* \"contracts/Staking_dApp/StakeRoyalty.sol\":4168:4178  msg.sender */\n      caller\n        /* \"contracts/Staking_dApp/StakeRoyalty.sol\":4180:4186  reward */\n      dup4\n        /* \"contracts/Staking_dApp/StakeRoyalty.sol\":4143:4167  rewardToken.safeTransfer */\n      tag_122\n        /* \"contracts/Staking_dApp/StakeRoyalty.sol\":4143:4187  rewardToken.safeTransfer(msg.sender, reward) */\n      jump\t// in\n    tag_204:\n        /* \"contracts/Staking_dApp/StakeRoyalty.sol\":4216:4246  Withdrawn(msg.sender, balance) */\n      mload(0x40)\n        /* \"#utility.yul\":451:476   */\n      dup3\n      dup2\n      mstore\n        /* \"contracts/Staking_dApp/StakeRoyalty.sol\":4226:4236  msg.sender */\n      caller\n      swap1\n        /* \"contracts/Staking_dApp/StakeRoyalty.sol\":4216:4246  Withdrawn(msg.sender, balance) */\n      0x7084f5476618d8e60b11ef0d7d3f06914655adb8793e28ff7f018d4c76d505d5\n      swap1\n        /* \"#utility.yul\":439:441   */\n      0x20\n        /* \"#utility.yul\":424:442   */\n      add\n        /* \"contracts/Staking_dApp/StakeRoyalty.sol\":4216:4246  Withdrawn(msg.sender, balance) */\n      mload(0x40)\n      dup1\n      swap2\n      sub\n      swap1\n      log2\n        /* \"contracts/Staking_dApp/StakeRoyalty.sol\":4262:4292  RewardPaid(msg.sender, reward) */\n      mload(0x40)\n        /* \"#utility.yul\":451:476   */\n      dup2\n      dup2\n      mstore\n        /* \"contracts/Staking_dApp/StakeRoyalty.sol\":4273:4283  msg.sender */\n      caller\n      swap1\n        /* \"contracts/Staking_dApp/StakeRoyalty.sol\":4262:4292  RewardPaid(msg.sender, reward) */\n      0xe2403640ba68fed3a2f88b7557551d1993f84b99bb10ff833f0cf8db0c5e0486\n      swap1\n        /* \"#utility.yul\":439:441   */\n      0x20\n        /* \"#utility.yul\":424:442   */\n      add\n        /* \"contracts/Staking_dApp/StakeRoyalty.sol\":4262:4292  RewardPaid(msg.sender, reward) */\n      mload(0x40)\n      dup1\n      swap2\n      sub\n      swap1\n      log2\n        /* \"contracts/Staking_dApp/StakeRoyalty.sol\":3558:4300  {... */\n      pop\n      pop\n        /* \"contracts/Staking_dApp/StakeRoyalty.sol\":3520:4300  function exit() external payable... */\n      jump\t// out\n        /* \"contracts/Staking_dApp/PoolManager.sol\":541:907  function rewardPerToken(PoolState storage state, uint256 totalSupply) internal view returns (uint256)... */\n    tag_85:\n        /* \"contracts/Staking_dApp/PoolManager.sol\":634:641  uint256 */\n      0x00\n        /* \"contracts/Staking_dApp/PoolManager.sol\":663:674  totalSupply */\n      dup2\n        /* \"contracts/Staking_dApp/PoolManager.sol\":678:679  0 */\n      0x00\n        /* \"contracts/Staking_dApp/PoolManager.sol\":663:679  totalSupply == 0 */\n      sub\n        /* \"contracts/Staking_dApp/PoolManager.sol\":659:714  if (totalSupply == 0) return state.rewardPerTokenStored */\n      tag_209\n      jumpi\n      pop\n        /* \"contracts/Staking_dApp/PoolManager.sol\":688:714  state.rewardPerTokenStored */\n      0x03\n      dup3\n      add\n      sload\n        /* \"contracts/Staking_dApp/PoolManager.sol\":681:714  return state.rewardPerTokenStored */\n      jump(tag_92)\n        /* \"contracts/Staking_dApp/PoolManager.sol\":659:714  if (totalSupply == 0) return state.rewardPerTokenStored */\n    tag_209:\n        /* \"contracts/Staking_dApp/PoolManager.sol\":851:867  state.rewardRate */\n      0x02\n      dup4\n      add\n      sload\n        /* \"contracts/Staking_dApp/PoolManager.sol\":827:847  state.lastUpdateTime */\n      dup4\n      sload\n        /* \"contracts/Staking_dApp/PoolManager.sol\":877:888  totalSupply */\n      dup4\n      swap2\n        /* \"contracts/Staking_dApp/PoolManager.sol\":851:867  state.rewardRate */\n      swap1\n        /* \"contracts/Staking_dApp/PoolManager.sol\":827:847  state.lastUpdateTime */\n      0xffffffffffffffff\n      shl(0x80, 0x01)\n      dup3\n      div\n      dup2\n      and\n      swap2\n        /* \"contracts/Staking_dApp/PoolManager.sol\":779:824  Math.min(block.timestamp, state.periodFinish) */\n      tag_210\n      swap2\n        /* \"contracts/Staking_dApp/PoolManager.sol\":788:803  block.timestamp */\n      timestamp\n      swap2\n        /* \"contracts/Staking_dApp/PoolManager.sol\":805:823  state.periodFinish */\n      and\n        /* \"contracts/Staking_dApp/PoolManager.sol\":779:787  Math.min */\n      tag_211\n        /* \"contracts/Staking_dApp/PoolManager.sol\":779:824  Math.min(block.timestamp, state.periodFinish) */\n      jump\t// in\n    tag_210:\n        /* \"contracts/Staking_dApp/PoolManager.sol\":779:847  Math.min(block.timestamp, state.periodFinish) - state.lastUpdateTime */\n      tag_212\n      swap2\n      swap1\n      tag_87\n      jump\t// in\n    tag_212:\n        /* \"contracts/Staking_dApp/PoolManager.sol\":778:867  (Math.min(block.timestamp, state.periodFinish) - state.lastUpdateTime) * state.rewardRate */\n      tag_213\n      swap2\n      swap1\n      tag_89\n      jump\t// in\n    tag_213:\n        /* \"contracts/Staking_dApp/PoolManager.sol\":778:874  (Math.min(block.timestamp, state.periodFinish) - state.lastUpdateTime) * state.rewardRate * 1e18 */\n      tag_214\n      swap1\n        /* \"contracts/Staking_dApp/PoolManager.sol\":870:874  1e18 */\n      0x0de0b6b3a7640000\n        /* \"contracts/Staking_dApp/PoolManager.sol\":778:874  (Math.min(block.timestamp, state.periodFinish) - state.lastUpdateTime) * state.rewardRate * 1e18 */\n      tag_89\n      jump\t// in\n    tag_214:\n        /* \"contracts/Staking_dApp/PoolManager.sol\":778:888  (Math.min(block.timestamp, state.periodFinish) - state.lastUpdateTime) * state.rewardRate * 1e18 / totalSupply */\n      tag_215\n      swap2\n      swap1\n      tag_91\n      jump\t// in\n    tag_215:\n        /* \"contracts/Staking_dApp/PoolManager.sol\":734:739  state */\n      dup4\n        /* \"contracts/Staking_dApp/PoolManager.sol\":734:760  state.rewardPerTokenStored */\n      0x03\n      add\n      sload\n        /* \"contracts/Staking_dApp/PoolManager.sol\":734:899  state.rewardPerTokenStored + (... */\n      tag_216\n      swap2\n      swap1\n      tag_93\n      jump\t// in\n    tag_216:\n        /* \"contracts/Staking_dApp/PoolManager.sol\":727:899  return state.rewardPerTokenStored + (... */\n      swap4\n        /* \"contracts/Staking_dApp/PoolManager.sol\":541:907  function rewardPerToken(PoolState storage state, uint256 totalSupply) internal view returns (uint256)... */\n      swap3\n      pop\n      pop\n      pop\n      jump\t// out\n        /* \"contracts/Staking_dApp/SafeERC20.sol\":926:1174  function safeTransferFrom(... */\n    tag_103:\n        /* \"contracts/Staking_dApp/SafeERC20.sol\":1097:1165  abi.encodeWithSelector(token.transferFrom.selector, from, to, value) */\n      mload(0x40)\n      sub(shl(0xa0, 0x01), 0x01)\n        /* \"#utility.yul\":3733:3748   */\n      dup1\n      dup6\n      and\n        /* \"contracts/Staking_dApp/SafeERC20.sol\":1097:1165  abi.encodeWithSelector(token.transferFrom.selector, from, to, value) */\n      0x24\n      dup4\n      add\n        /* \"#utility.yul\":3715:3749   */\n      mstore\n        /* \"#utility.yul\":3785:3800   */\n      dup4\n      and\n        /* \"#utility.yul\":3765:3783   */\n      0x44\n      dup3\n      add\n        /* \"#utility.yul\":3758:3801   */\n      mstore\n        /* \"#utility.yul\":3817:3835   */\n      0x64\n      dup2\n      add\n        /* \"#utility.yul\":3810:3844   */\n      dup3\n      swap1\n      mstore\n        /* \"contracts/Staking_dApp/SafeERC20.sol\":1070:1166  _callOptionalReturn(token, abi.encodeWithSelector(token.transferFrom.selector, from, to, value)) */\n      tag_218\n      swap1\n        /* \"contracts/Staking_dApp/SafeERC20.sol\":1090:1095  token */\n      dup6\n      swap1\n      shl(0xe0, 0x23b872dd)\n        /* \"contracts/Staking_dApp/SafeERC20.sol\":1120:1147  token.transferFrom.selector */\n      swap1\n        /* \"#utility.yul\":3650:3668   */\n      0x84\n      add\n        /* \"contracts/Staking_dApp/SafeERC20.sol\":1097:1165  abi.encodeWithSelector(token.transferFrom.selector, from, to, value) */\n    tag_219:\n      0x40\n      dup1\n      mload\n      not(0x1f)\n      dup2\n      dup5\n      sub\n      add\n      dup2\n      mstore\n      swap2\n      swap1\n      mstore\n      0x20\n      dup2\n      add\n      dup1\n      mload\n      sub(shl(0xe0, 0x01), 0x01)\n      and\n      not(sub(shl(0xe0, 0x01), 0x01))\n      swap1\n      swap4\n      and\n      swap3\n      swap1\n      swap3\n      or\n      swap1\n      swap2\n      mstore\n        /* \"contracts/Staking_dApp/SafeERC20.sol\":1070:1089  _callOptionalReturn */\n      tag_221\n        /* \"contracts/Staking_dApp/SafeERC20.sol\":1070:1166  _callOptionalReturn(token, abi.encodeWithSelector(token.transferFrom.selector, from, to, value)) */\n      jump\t// in\n    tag_218:\n        /* \"contracts/Staking_dApp/SafeERC20.sol\":926:1174  function safeTransferFrom(... */\n      pop\n      pop\n      pop\n      pop\n      jump\t// out\n        /* \"contracts/Staking_dApp/PoolManager.sol\":915:1073  function getRewardForDuration(PoolState storage state) internal view returns (uint256)... */\n    tag_107:\n        /* \"contracts/Staking_dApp/PoolManager.sol\":1044:1065  state.rewardsDuration */\n      dup1\n      sload\n        /* \"contracts/Staking_dApp/PoolManager.sol\":1025:1041  state.rewardRate */\n      0x02\n      dup3\n      add\n      sload\n        /* \"contracts/Staking_dApp/PoolManager.sol\":993:1000  uint256 */\n      0x00\n      swap2\n        /* \"contracts/Staking_dApp/PoolManager.sol\":1025:1065  state.rewardRate * state.rewardsDuration */\n      tag_92\n      swap2\n      shl(0x40, 0x01)\n        /* \"contracts/Staking_dApp/PoolManager.sol\":1044:1065  state.rewardsDuration */\n      swap1\n      swap2\n      div\n      0xffffffffffffffff\n      and\n      swap1\n        /* \"contracts/Staking_dApp/PoolManager.sol\":1025:1065  state.rewardRate * state.rewardsDuration */\n      tag_89\n      jump\t// in\n        /* \"contracts/Staking_dApp/ReentrancyGuard.sol\":2391:2684  function _nonReentrantBefore() private {... */\n    tag_110:\n        /* \"contracts/Staking_dApp/ReentrancyGuard.sol\":1793:1794  2 */\n      0x02\n        /* \"contracts/Staking_dApp/ReentrancyGuard.sol\":2525:2532  _status */\n      sload(0x00)\n        /* \"contracts/Staking_dApp/ReentrancyGuard.sol\":2525:2544  _status != _ENTERED */\n      sub\n        /* \"contracts/Staking_dApp/ReentrancyGuard.sol\":2517:2580  require(_status != _ENTERED, \"ReentrancyGuard: reentrant call\") */\n      tag_225\n      jumpi\n      mload(0x40)\n      shl(0xe5, 0x461bcd)\n      dup2\n      mstore\n        /* \"#utility.yul\":4057:4059   */\n      0x20\n        /* \"contracts/Staking_dApp/ReentrancyGuard.sol\":2517:2580  require(_status != _ENTERED, \"ReentrancyGuard: reentrant call\") */\n      0x04\n      dup3\n      add\n        /* \"#utility.yul\":4039:4060   */\n      mstore\n        /* \"#utility.yul\":4096:4098   */\n      0x1f\n        /* \"#utility.yul\":4076:4094   */\n      0x24\n      dup3\n      add\n        /* \"#utility.yul\":4069:4099   */\n      mstore\n        /* \"#utility.yul\":4135:4168   */\n      0x5265656e7472616e637947756172643a207265656e7472616e742063616c6c00\n        /* \"#utility.yul\":4115:4133   */\n      0x44\n      dup3\n      add\n        /* \"#utility.yul\":4108:4169   */\n      mstore\n        /* \"#utility.yul\":4186:4204   */\n      0x64\n      add\n        /* \"contracts/Staking_dApp/ReentrancyGuard.sol\":2517:2580  require(_status != _ENTERED, \"ReentrancyGuard: reentrant call\") */\n      tag_96\n        /* \"#utility.yul\":3855:4210   */\n      jump\n        /* \"contracts/Staking_dApp/ReentrancyGuard.sol\":2517:2580  require(_status != _ENTERED, \"ReentrancyGuard: reentrant call\") */\n    tag_225:\n        /* \"contracts/Staking_dApp/ReentrancyGuard.sol\":1793:1794  2 */\n      0x02\n        /* \"contracts/Staking_dApp/ReentrancyGuard.sol\":2658:2665  _status */\n      0x00\n        /* \"contracts/Staking_dApp/ReentrancyGuard.sol\":2658:2676  _status = _ENTERED */\n      sstore\n        /* \"contracts/Staking_dApp/ReentrancyGuard.sol\":2391:2684  function _nonReentrantBefore() private {... */\n      jump\t// out\n        /* \"contracts/Staking_dApp/PoolManager.sol\":1081:1308  function updateReward(PoolState storage state, uint256 supply) internal... */\n    tag_113:\n        /* \"contracts/Staking_dApp/PoolManager.sol\":1198:1227  rewardPerToken(state, supply) */\n      tag_229\n        /* \"contracts/Staking_dApp/PoolManager.sol\":1213:1218  state */\n      dup3\n        /* \"contracts/Staking_dApp/PoolManager.sol\":1220:1226  supply */\n      dup3\n        /* \"contracts/Staking_dApp/PoolManager.sol\":1198:1212  rewardPerToken */\n      tag_85\n        /* \"contracts/Staking_dApp/PoolManager.sol\":1198:1227  rewardPerToken(state, supply) */\n      jump\t// in\n    tag_229:\n        /* \"contracts/Staking_dApp/PoolManager.sol\":1169:1195  state.rewardPerTokenStored */\n      0x03\n      dup4\n      add\n        /* \"contracts/Staking_dApp/PoolManager.sol\":1169:1227  state.rewardPerTokenStored = rewardPerToken(state, supply) */\n      sstore\n        /* \"contracts/Staking_dApp/PoolManager.sol\":1268:1299  lastTimeRewardApplicable(state) */\n      tag_230\n        /* \"contracts/Staking_dApp/PoolManager.sol\":1169:1174  state */\n      dup3\n        /* \"contracts/Staking_dApp/PoolManager.sol\":1268:1292  lastTimeRewardApplicable */\n      tag_175\n        /* \"contracts/Staking_dApp/PoolManager.sol\":1268:1299  lastTimeRewardApplicable(state) */\n      jump\t// in\n    tag_230:\n        /* \"contracts/Staking_dApp/PoolManager.sol\":1238:1300  state.lastUpdateTime = uint64(lastTimeRewardApplicable(state)) */\n      dup3\n      sload\n      0xffffffffffffffff\n      swap2\n      swap1\n      swap2\n      and\n      shl(0x80, 0x01)\n      mul\n      not(shl(0x80, 0xffffffffffffffff))\n      swap1\n      swap2\n      and\n      or\n      swap1\n      swap2\n      sstore\n      pop\n        /* \"contracts/Staking_dApp/PoolManager.sol\":1081:1308  function updateReward(PoolState storage state, uint256 supply) internal... */\n      jump\t// out\n        /* \"contracts/Staking_dApp/SafeERC20.sol\":707:918  function safeTransfer(... */\n    tag_122:\n        /* \"contracts/Staking_dApp/SafeERC20.sol\":851:909  abi.encodeWithSelector(token.transfer.selector, to, value) */\n      mload(0x40)\n      sub(shl(0xa0, 0x01), 0x01)\n        /* \"#utility.yul\":4407:4439   */\n      dup4\n      and\n        /* \"contracts/Staking_dApp/SafeERC20.sol\":851:909  abi.encodeWithSelector(token.transfer.selector, to, value) */\n      0x24\n      dup3\n      add\n        /* \"#utility.yul\":4389:4440   */\n      mstore\n        /* \"#utility.yul\":4456:4474   */\n      0x44\n      dup2\n      add\n        /* \"#utility.yul\":4449:4483   */\n      dup3\n      swap1\n      mstore\n        /* \"contracts/Staking_dApp/SafeERC20.sol\":824:910  _callOptionalReturn(token, abi.encodeWithSelector(token.transfer.selector, to, value)) */\n      tag_232\n      swap1\n        /* \"contracts/Staking_dApp/SafeERC20.sol\":844:849  token */\n      dup5\n      swap1\n      shl(0xe0, 0xa9059cbb)\n        /* \"contracts/Staking_dApp/SafeERC20.sol\":874:897  token.transfer.selector */\n      swap1\n        /* \"#utility.yul\":4362:4380   */\n      0x64\n      add\n        /* \"contracts/Staking_dApp/SafeERC20.sol\":851:909  abi.encodeWithSelector(token.transfer.selector, to, value) */\n      tag_219\n        /* \"#utility.yul\":4215:4489   */\n      jump\n        /* \"contracts/Staking_dApp/SafeERC20.sol\":824:910  _callOptionalReturn(token, abi.encodeWithSelector(token.transfer.selector, to, value)) */\n    tag_232:\n        /* \"contracts/Staking_dApp/SafeERC20.sol\":707:918  function safeTransfer(... */\n      pop\n      pop\n      pop\n      jump\t// out\n        /* \"contracts/Staking_dApp/PoolManager.sol\":366:533  function lastTimeRewardApplicable(PoolState storage state) internal view returns (uint256)... */\n    tag_175:\n        /* \"contracts/Staking_dApp/PoolManager.sol\":506:524  state.periodFinish */\n      dup1\n      sload\n        /* \"contracts/Staking_dApp/PoolManager.sol\":448:455  uint256 */\n      0x00\n      swap1\n        /* \"contracts/Staking_dApp/PoolManager.sol\":480:525  Math.min(block.timestamp, state.periodFinish) */\n      tag_92\n      swap1\n        /* \"contracts/Staking_dApp/PoolManager.sol\":489:504  block.timestamp */\n      timestamp\n      swap1\n        /* \"contracts/Staking_dApp/PoolManager.sol\":506:524  state.periodFinish */\n      0xffffffffffffffff\n      and\n        /* \"contracts/Staking_dApp/Math.sol\":465:571  function min(uint256 a, uint256 b) internal pure returns (uint256) {... */\n    tag_211:\n        /* \"contracts/Staking_dApp/Math.sol\":523:530  uint256 */\n      0x00\n        /* \"contracts/Staking_dApp/Math.sol\":554:555  b */\n      dup2\n        /* \"contracts/Staking_dApp/Math.sol\":550:551  a */\n      dup4\n        /* \"contracts/Staking_dApp/Math.sol\":550:555  a < b */\n      lt\n        /* \"contracts/Staking_dApp/Math.sol\":550:563  a < b ? a : b */\n      tag_239\n      jumpi\n        /* \"contracts/Staking_dApp/Math.sol\":562:563  b */\n      dup2\n        /* \"contracts/Staking_dApp/Math.sol\":550:563  a < b ? a : b */\n      jump(tag_216)\n    tag_239:\n      pop\n        /* \"contracts/Staking_dApp/Math.sol\":558:559  a */\n      swap1\n      swap2\n        /* \"contracts/Staking_dApp/Math.sol\":465:571  function min(uint256 a, uint256 b) internal pure returns (uint256) {... */\n      swap1\n      pop\n      jump\t// out\n        /* \"contracts/Staking_dApp/SafeERC20.sol\":3280:3996  function _callOptionalReturn(IERC20 token, bytes memory data) private {... */\n    tag_221:\n        /* \"contracts/Staking_dApp/SafeERC20.sol\":3704:3727  bytes memory returndata */\n      0x00\n        /* \"contracts/Staking_dApp/SafeERC20.sol\":3730:3799  address(token).functionCall(data, \"SafeERC20: low-level call failed\") */\n      tag_242\n        /* \"contracts/Staking_dApp/SafeERC20.sol\":3758:3762  data */\n      dup3\n        /* \"contracts/Staking_dApp/SafeERC20.sol\":3730:3799  address(token).functionCall(data, \"SafeERC20: low-level call failed\") */\n      mload(0x40)\n      dup1\n      0x40\n      add\n      0x40\n      mstore\n      dup1\n      0x20\n      dup2\n      mstore\n      0x20\n      add\n      0x5361666545524332303a206c6f772d6c6576656c2063616c6c206661696c6564\n      dup2\n      mstore\n      pop\n        /* \"contracts/Staking_dApp/SafeERC20.sol\":3738:3743  token */\n      dup6\n      sub(shl(0xa0, 0x01), 0x01)\n        /* \"contracts/Staking_dApp/SafeERC20.sol\":3730:3757  address(token).functionCall */\n      and\n      tag_243\n      swap1\n        /* \"contracts/Staking_dApp/SafeERC20.sol\":3730:3799  address(token).functionCall(data, \"SafeERC20: low-level call failed\") */\n      swap3\n      swap2\n      swap1\n      0xffffffff\n      and\n      jump\t// in\n    tag_242:\n        /* \"contracts/Staking_dApp/SafeERC20.sol\":3814:3831  returndata.length */\n      dup1\n      mload\n        /* \"contracts/Staking_dApp/SafeERC20.sol\":3704:3799  bytes memory returndata = address(token).functionCall(data, \"SafeERC20: low-level call failed\") */\n      swap1\n      swap2\n      pop\n        /* \"contracts/Staking_dApp/SafeERC20.sol\":3814:3835  returndata.length > 0 */\n      iszero\n        /* \"contracts/Staking_dApp/SafeERC20.sol\":3810:3989  if (returndata.length > 0) {... */\n      tag_232\n      jumpi\n        /* \"contracts/Staking_dApp/SafeERC20.sol\":3911:3921  returndata */\n      dup1\n        /* \"contracts/Staking_dApp/SafeERC20.sol\":3900:3930  abi.decode(returndata, (bool)) */\n      dup1\n      0x20\n      add\n      swap1\n      mload\n      dup2\n      add\n      swap1\n      tag_245\n      swap2\n      swap1\n      tag_246\n      jump\t// in\n    tag_245:\n        /* \"contracts/Staking_dApp/SafeERC20.sol\":3892:3977  require(abi.decode(returndata, (bool)), \"SafeERC20: ERC20 operation did not succeed\") */\n      tag_232\n      jumpi\n      mload(0x40)\n      shl(0xe5, 0x461bcd)\n      dup2\n      mstore\n        /* \"#utility.yul\":4978:4980   */\n      0x20\n        /* \"contracts/Staking_dApp/SafeERC20.sol\":3892:3977  require(abi.decode(returndata, (bool)), \"SafeERC20: ERC20 operation did not succeed\") */\n      0x04\n      dup3\n      add\n        /* \"#utility.yul\":4960:4981   */\n      mstore\n        /* \"#utility.yul\":5017:5019   */\n      0x2a\n        /* \"#utility.yul\":4997:5015   */\n      0x24\n      dup3\n      add\n        /* \"#utility.yul\":4990:5020   */\n      mstore\n        /* \"#utility.yul\":5056:5090   */\n      0x5361666545524332303a204552433230206f7065726174696f6e20646964206e\n        /* \"#utility.yul\":5036:5054   */\n      0x44\n      dup3\n      add\n        /* \"#utility.yul\":5029:5091   */\n      mstore\n      shl(0xb2, 0x1bdd081cdd58d8d95959)\n        /* \"#utility.yul\":5107:5125   */\n      0x64\n      dup3\n      add\n        /* \"#utility.yul\":5100:5140   */\n      mstore\n        /* \"#utility.yul\":5157:5176   */\n      0x84\n      add\n        /* \"contracts/Staking_dApp/SafeERC20.sol\":3892:3977  require(abi.decode(returndata, (bool)), \"SafeERC20: ERC20 operation did not succeed\") */\n      tag_96\n        /* \"#utility.yul\":4776:5182   */\n      jump\n        /* \"contracts/Staking_dApp/Address.sol\":3940:4169  function functionCall(... */\n    tag_243:\n        /* \"contracts/Staking_dApp/Address.sol\":4077:4089  bytes memory */\n      0x60\n        /* \"contracts/Staking_dApp/Address.sol\":4109:4161  functionCallWithValue(target, data, 0, errorMessage) */\n      tag_251\n        /* \"contracts/Staking_dApp/Address.sol\":4131:4137  target */\n      dup5\n        /* \"contracts/Staking_dApp/Address.sol\":4139:4143  data */\n      dup5\n        /* \"contracts/Staking_dApp/Address.sol\":4145:4146  0 */\n      0x00\n        /* \"contracts/Staking_dApp/Address.sol\":4148:4160  errorMessage */\n      dup6\n        /* \"contracts/Staking_dApp/Address.sol\":4109:4130  functionCallWithValue */\n      tag_252\n        /* \"contracts/Staking_dApp/Address.sol\":4109:4161  functionCallWithValue(target, data, 0, errorMessage) */\n      jump\t// in\n    tag_251:\n        /* \"contracts/Staking_dApp/Address.sol\":4102:4161  return functionCallWithValue(target, data, 0, errorMessage) */\n      swap5\n        /* \"contracts/Staking_dApp/Address.sol\":3940:4169  function functionCall(... */\n      swap4\n      pop\n      pop\n      pop\n      pop\n      jump\t// out\n        /* \"contracts/Staking_dApp/Address.sol\":5060:5570  function functionCallWithValue(... */\n    tag_252:\n        /* \"contracts/Staking_dApp/Address.sol\":5230:5242  bytes memory */\n      0x60\n        /* \"contracts/Staking_dApp/Address.sol\":5288:5293  value */\n      dup3\n        /* \"contracts/Staking_dApp/Address.sol\":5263:5284  address(this).balance */\n      selfbalance\n        /* \"contracts/Staking_dApp/Address.sol\":5263:5293  address(this).balance >= value */\n      lt\n      iszero\n        /* \"contracts/Staking_dApp/Address.sol\":5255:5336  require(address(this).balance >= value, \"Address: insufficient balance for call\") */\n      tag_254\n      jumpi\n      mload(0x40)\n      shl(0xe5, 0x461bcd)\n      dup2\n      mstore\n        /* \"#utility.yul\":5389:5391   */\n      0x20\n        /* \"contracts/Staking_dApp/Address.sol\":5255:5336  require(address(this).balance >= value, \"Address: insufficient balance for call\") */\n      0x04\n      dup3\n      add\n        /* \"#utility.yul\":5371:5392   */\n      mstore\n        /* \"#utility.yul\":5428:5430   */\n      0x26\n        /* \"#utility.yul\":5408:5426   */\n      0x24\n      dup3\n      add\n        /* \"#utility.yul\":5401:5431   */\n      mstore\n        /* \"#utility.yul\":5467:5501   */\n      0x416464726573733a20696e73756666696369656e742062616c616e636520666f\n        /* \"#utility.yul\":5447:5465   */\n      0x44\n      dup3\n      add\n        /* \"#utility.yul\":5440:5502   */\n      mstore\n      shl(0xd2, 0x1c8818d85b1b)\n        /* \"#utility.yul\":5518:5536   */\n      0x64\n      dup3\n      add\n        /* \"#utility.yul\":5511:5547   */\n      mstore\n        /* \"#utility.yul\":5564:5583   */\n      0x84\n      add\n        /* \"contracts/Staking_dApp/Address.sol\":5255:5336  require(address(this).balance >= value, \"Address: insufficient balance for call\") */\n      tag_96\n        /* \"#utility.yul\":5187:5589   */\n      jump\n        /* \"contracts/Staking_dApp/Address.sol\":5255:5336  require(address(this).balance >= value, \"Address: insufficient balance for call\") */\n    tag_254:\n      sub(shl(0xa0, 0x01), 0x01)\n        /* \"contracts/Staking_dApp/Address.sol\":1490:1509  account.code.length */\n      dup6\n      and\n      extcodesize\n        /* \"contracts/Staking_dApp/Address.sol\":5347:5407  require(isContract(target), \"Address: call to non-contract\") */\n      tag_259\n      jumpi\n      mload(0x40)\n      shl(0xe5, 0x461bcd)\n      dup2\n      mstore\n        /* \"#utility.yul\":5796:5798   */\n      0x20\n        /* \"contracts/Staking_dApp/Address.sol\":5347:5407  require(isContract(target), \"Address: call to non-contract\") */\n      0x04\n      dup3\n      add\n        /* \"#utility.yul\":5778:5799   */\n      mstore\n        /* \"#utility.yul\":5835:5837   */\n      0x1d\n        /* \"#utility.yul\":5815:5833   */\n      0x24\n      dup3\n      add\n        /* \"#utility.yul\":5808:5838   */\n      mstore\n        /* \"#utility.yul\":5874:5905   */\n      0x416464726573733a2063616c6c20746f206e6f6e2d636f6e7472616374000000\n        /* \"#utility.yul\":5854:5872   */\n      0x44\n      dup3\n      add\n        /* \"#utility.yul\":5847:5906   */\n      mstore\n        /* \"#utility.yul\":5923:5941   */\n      0x64\n      add\n        /* \"contracts/Staking_dApp/Address.sol\":5347:5407  require(isContract(target), \"Address: call to non-contract\") */\n      tag_96\n        /* \"#utility.yul\":5594:5947   */\n      jump\n        /* \"contracts/Staking_dApp/Address.sol\":5347:5407  require(isContract(target), \"Address: call to non-contract\") */\n    tag_259:\n        /* \"contracts/Staking_dApp/Address.sol\":5421:5433  bool success */\n      0x00\n        /* \"contracts/Staking_dApp/Address.sol\":5435:5458  bytes memory returndata */\n      dup1\n        /* \"contracts/Staking_dApp/Address.sol\":5462:5468  target */\n      dup7\n      sub(shl(0xa0, 0x01), 0x01)\n        /* \"contracts/Staking_dApp/Address.sol\":5462:5473  target.call */\n      and\n        /* \"contracts/Staking_dApp/Address.sol\":5481:5486  value */\n      dup6\n        /* \"contracts/Staking_dApp/Address.sol\":5488:5492  data */\n      dup8\n        /* \"contracts/Staking_dApp/Address.sol\":5462:5493  target.call{value: value}(data) */\n      mload(0x40)\n      tag_262\n      swap2\n      swap1\n      tag_263\n      jump\t// in\n    tag_262:\n      0x00\n      mload(0x40)\n      dup1\n      dup4\n      sub\n      dup2\n      dup6\n      dup8\n      gas\n      call\n      swap3\n      pop\n      pop\n      pop\n      returndatasize\n      dup1\n      0x00\n      dup2\n      eq\n      tag_266\n      jumpi\n      mload(0x40)\n      swap2\n      pop\n      and(add(returndatasize, 0x3f), not(0x1f))\n      dup3\n      add\n      0x40\n      mstore\n      returndatasize\n      dup3\n      mstore\n      returndatasize\n      0x00\n      0x20\n      dup5\n      add\n      returndatacopy\n      jump(tag_265)\n    tag_266:\n      0x60\n      swap2\n      pop\n    tag_265:\n      pop\n        /* \"contracts/Staking_dApp/Address.sol\":5420:5493  (bool success, bytes memory returndata) = target.call{value: value}(data) */\n      swap2\n      pop\n      swap2\n      pop\n        /* \"contracts/Staking_dApp/Address.sol\":5511:5562  verifyCallResult(success, returndata, errorMessage) */\n      tag_267\n        /* \"contracts/Staking_dApp/Address.sol\":5528:5535  success */\n      dup3\n        /* \"contracts/Staking_dApp/Address.sol\":5537:5547  returndata */\n      dup3\n        /* \"contracts/Staking_dApp/Address.sol\":5549:5561  errorMessage */\n      dup7\n        /* \"contracts/Staking_dApp/Address.sol\":5511:5527  verifyCallResult */\n      tag_268\n        /* \"contracts/Staking_dApp/Address.sol\":5511:5562  verifyCallResult(success, returndata, errorMessage) */\n      jump\t// in\n    tag_267:\n        /* \"contracts/Staking_dApp/Address.sol\":5504:5562  return verifyCallResult(success, returndata, errorMessage) */\n      swap8\n        /* \"contracts/Staking_dApp/Address.sol\":5060:5570  function functionCallWithValue(... */\n      swap7\n      pop\n      pop\n      pop\n      pop\n      pop\n      pop\n      pop\n      jump\t// out\n        /* \"contracts/Staking_dApp/Address.sol\":7746:8458  function verifyCallResult(... */\n    tag_268:\n        /* \"contracts/Staking_dApp/Address.sol\":7896:7908  bytes memory */\n      0x60\n        /* \"contracts/Staking_dApp/Address.sol\":7925:7932  success */\n      dup4\n        /* \"contracts/Staking_dApp/Address.sol\":7921:8451  if (success) {... */\n      iszero\n      tag_271\n      jumpi\n      pop\n        /* \"contracts/Staking_dApp/Address.sol\":7956:7966  returndata */\n      dup2\n        /* \"contracts/Staking_dApp/Address.sol\":7949:7966  return returndata */\n      jump(tag_216)\n        /* \"contracts/Staking_dApp/Address.sol\":7921:8451  if (success) {... */\n    tag_271:\n        /* \"contracts/Staking_dApp/Address.sol\":8070:8087  returndata.length */\n      dup3\n      mload\n        /* \"contracts/Staking_dApp/Address.sol\":8070:8091  returndata.length > 0 */\n      iszero\n        /* \"contracts/Staking_dApp/Address.sol\":8066:8440  if (returndata.length > 0) {... */\n      tag_273\n      jumpi\n        /* \"contracts/Staking_dApp/Address.sol\":8268:8278  returndata */\n      dup3\n        /* \"contracts/Staking_dApp/Address.sol\":8262:8279  mload(returndata) */\n      mload\n        /* \"contracts/Staking_dApp/Address.sol\":8329:8344  returndata_size */\n      dup1\n        /* \"contracts/Staking_dApp/Address.sol\":8316:8326  returndata */\n      dup5\n        /* \"contracts/Staking_dApp/Address.sol\":8312:8314  32 */\n      0x20\n        /* \"contracts/Staking_dApp/Address.sol\":8308:8327  add(32, returndata) */\n      add\n        /* \"contracts/Staking_dApp/Address.sol\":8301:8345  revert(add(32, returndata), returndata_size) */\n      revert\n        /* \"contracts/Staking_dApp/Address.sol\":8066:8440  if (returndata.length > 0) {... */\n    tag_273:\n        /* \"contracts/Staking_dApp/Address.sol\":8411:8423  errorMessage */\n      dup2\n        /* \"contracts/Staking_dApp/Address.sol\":8404:8424  revert(errorMessage) */\n      mload(0x40)\n      shl(0xe5, 0x461bcd)\n      dup2\n      mstore\n      0x04\n      add\n      tag_96\n      swap2\n      swap1\n      tag_276\n      jump\t// in\n        /* \"#utility.yul\":14:300   */\n    tag_24:\n        /* \"#utility.yul\":73:79   */\n      0x00\n        /* \"#utility.yul\":126:128   */\n      0x20\n        /* \"#utility.yul\":114:123   */\n      dup3\n        /* \"#utility.yul\":105:112   */\n      dup5\n        /* \"#utility.yul\":101:124   */\n      sub\n        /* \"#utility.yul\":97:129   */\n      slt\n        /* \"#utility.yul\":94:146   */\n      iszero\n      tag_281\n      jumpi\n        /* \"#utility.yul\":142:143   */\n      0x00\n        /* \"#utility.yul\":139:140   */\n      dup1\n        /* \"#utility.yul\":132:144   */\n      revert\n        /* \"#utility.yul\":94:146   */\n    tag_281:\n        /* \"#utility.yul\":168:191   */\n      dup2\n      calldataload\n      sub(shl(0xa0, 0x01), 0x01)\n        /* \"#utility.yul\":220:251   */\n      dup2\n      and\n        /* \"#utility.yul\":210:252   */\n      dup2\n      eq\n        /* \"#utility.yul\":200:270   */\n      tag_216\n      jumpi\n        /* \"#utility.yul\":266:267   */\n      0x00\n        /* \"#utility.yul\":263:264   */\n      dup1\n        /* \"#utility.yul\":256:268   */\n      revert\n        /* \"#utility.yul\":487:667   */\n    tag_30:\n        /* \"#utility.yul\":546:552   */\n      0x00\n        /* \"#utility.yul\":599:601   */\n      0x20\n        /* \"#utility.yul\":587:596   */\n      dup3\n        /* \"#utility.yul\":578:585   */\n      dup5\n        /* \"#utility.yul\":574:597   */\n      sub\n        /* \"#utility.yul\":570:602   */\n      slt\n        /* \"#utility.yul\":567:619   */\n      iszero\n      tag_285\n      jumpi\n        /* \"#utility.yul\":615:616   */\n      0x00\n        /* \"#utility.yul\":612:613   */\n      dup1\n        /* \"#utility.yul\":605:617   */\n      revert\n        /* \"#utility.yul\":567:619   */\n    tag_285:\n      pop\n        /* \"#utility.yul\":638:661   */\n      calldataload\n      swap2\n        /* \"#utility.yul\":487:667   */\n      swap1\n      pop\n      jump\t// out\n        /* \"#utility.yul\":1102:1229   */\n    tag_277:\n        /* \"#utility.yul\":1163:1173   */\n      0x4e487b71\n        /* \"#utility.yul\":1158:1161   */\n      0xe0\n        /* \"#utility.yul\":1154:1174   */\n      shl\n        /* \"#utility.yul\":1151:1152   */\n      0x00\n        /* \"#utility.yul\":1144:1175   */\n      mstore\n        /* \"#utility.yul\":1194:1198   */\n      0x11\n        /* \"#utility.yul\":1191:1192   */\n      0x04\n        /* \"#utility.yul\":1184:1199   */\n      mstore\n        /* \"#utility.yul\":1218:1222   */\n      0x24\n        /* \"#utility.yul\":1215:1216   */\n      0x00\n        /* \"#utility.yul\":1208:1223   */\n      revert\n        /* \"#utility.yul\":1234:1359   */\n    tag_87:\n        /* \"#utility.yul\":1274:1278   */\n      0x00\n        /* \"#utility.yul\":1302:1303   */\n      dup3\n        /* \"#utility.yul\":1299:1300   */\n      dup3\n        /* \"#utility.yul\":1296:1304   */\n      lt\n        /* \"#utility.yul\":1293:1327   */\n      iszero\n      tag_291\n      jumpi\n        /* \"#utility.yul\":1307:1325   */\n      tag_291\n      tag_277\n      jump\t// in\n    tag_291:\n      pop\n        /* \"#utility.yul\":1344:1353   */\n      sub\n      swap1\n        /* \"#utility.yul\":1234:1359   */\n      jump\t// out\n        /* \"#utility.yul\":1364:1532   */\n    tag_89:\n        /* \"#utility.yul\":1404:1411   */\n      0x00\n        /* \"#utility.yul\":1470:1471   */\n      dup2\n        /* \"#utility.yul\":1466:1467   */\n      0x00\n        /* \"#utility.yul\":1462:1468   */\n      not\n        /* \"#utility.yul\":1458:1472   */\n      div\n        /* \"#utility.yul\":1455:1456   */\n      dup4\n        /* \"#utility.yul\":1452:1473   */\n      gt\n        /* \"#utility.yul\":1447:1448   */\n      dup3\n        /* \"#utility.yul\":1440:1449   */\n      iszero\n        /* \"#utility.yul\":1433:1450   */\n      iszero\n        /* \"#utility.yul\":1429:1474   */\n      and\n        /* \"#utility.yul\":1426:1497   */\n      iszero\n      tag_294\n      jumpi\n        /* \"#utility.yul\":1477:1495   */\n      tag_294\n      tag_277\n      jump\t// in\n    tag_294:\n      pop\n        /* \"#utility.yul\":1517:1526   */\n      mul\n      swap1\n        /* \"#utility.yul\":1364:1532   */\n      jump\t// out\n        /* \"#utility.yul\":1537:1754   */\n    tag_91:\n        /* \"#utility.yul\":1577:1578   */\n      0x00\n        /* \"#utility.yul\":1603:1604   */\n      dup3\n        /* \"#utility.yul\":1593:1725   */\n      tag_296\n      jumpi\n        /* \"#utility.yul\":1647:1657   */\n      0x4e487b71\n        /* \"#utility.yul\":1642:1645   */\n      0xe0\n        /* \"#utility.yul\":1638:1658   */\n      shl\n        /* \"#utility.yul\":1635:1636   */\n      0x00\n        /* \"#utility.yul\":1628:1659   */\n      mstore\n        /* \"#utility.yul\":1682:1686   */\n      0x12\n        /* \"#utility.yul\":1679:1680   */\n      0x04\n        /* \"#utility.yul\":1672:1687   */\n      mstore\n        /* \"#utility.yul\":1710:1714   */\n      0x24\n        /* \"#utility.yul\":1707:1708   */\n      0x00\n        /* \"#utility.yul\":1700:1715   */\n      revert\n        /* \"#utility.yul\":1593:1725   */\n    tag_296:\n      pop\n        /* \"#utility.yul\":1739:1748   */\n      div\n      swap1\n        /* \"#utility.yul\":1537:1754   */\n      jump\t// out\n        /* \"#utility.yul\":1759:1887   */\n    tag_93:\n        /* \"#utility.yul\":1799:1802   */\n      0x00\n        /* \"#utility.yul\":1830:1831   */\n      dup3\n        /* \"#utility.yul\":1826:1832   */\n      not\n        /* \"#utility.yul\":1823:1824   */\n      dup3\n        /* \"#utility.yul\":1820:1833   */\n      gt\n        /* \"#utility.yul\":1817:1856   */\n      iszero\n      tag_299\n      jumpi\n        /* \"#utility.yul\":1836:1854   */\n      tag_299\n      tag_277\n      jump\t// in\n    tag_299:\n      pop\n        /* \"#utility.yul\":1872:1881   */\n      add\n      swap1\n        /* \"#utility.yul\":1759:1887   */\n      jump\t// out\n        /* \"#utility.yul\":1892:2231   */\n    tag_97:\n        /* \"#utility.yul\":2094:2096   */\n      0x20\n        /* \"#utility.yul\":2076:2097   */\n      dup1\n      dup3\n      mstore\n        /* \"#utility.yul\":2133:2135   */\n      0x0f\n        /* \"#utility.yul\":2113:2131   */\n      swap1\n      dup3\n      add\n        /* \"#utility.yul\":2106:2136   */\n      mstore\n      shl(0x89, 0x2737ba103234b9ba3934b13aba37b9)\n        /* \"#utility.yul\":2167:2169   */\n      0x40\n        /* \"#utility.yul\":2152:2170   */\n      dup3\n      add\n        /* \"#utility.yul\":2145:2190   */\n      mstore\n        /* \"#utility.yul\":2222:2224   */\n      0x60\n        /* \"#utility.yul\":2207:2225   */\n      add\n      swap1\n        /* \"#utility.yul\":1892:2231   */\n      jump\t// out\n        /* \"#utility.yul\":2236:2585   */\n    tag_101:\n        /* \"#utility.yul\":2438:2440   */\n      0x20\n        /* \"#utility.yul\":2420:2441   */\n      dup1\n      dup3\n      mstore\n        /* \"#utility.yul\":2477:2479   */\n      0x19\n        /* \"#utility.yul\":2457:2475   */\n      swap1\n      dup3\n      add\n        /* \"#utility.yul\":2450:2480   */\n      mstore\n        /* \"#utility.yul\":2516:2543   */\n      0x4d7573742062652067726561746572207468616e207a65726f00000000000000\n        /* \"#utility.yul\":2511:2513   */\n      0x40\n        /* \"#utility.yul\":2496:2514   */\n      dup3\n      add\n        /* \"#utility.yul\":2489:2544   */\n      mstore\n        /* \"#utility.yul\":2576:2578   */\n      0x60\n        /* \"#utility.yul\":2561:2579   */\n      add\n      swap1\n        /* \"#utility.yul\":2236:2585   */\n      jump\t// out\n        /* \"#utility.yul\":2590:2774   */\n    tag_145:\n        /* \"#utility.yul\":2660:2666   */\n      0x00\n        /* \"#utility.yul\":2713:2715   */\n      0x20\n        /* \"#utility.yul\":2701:2710   */\n      dup3\n        /* \"#utility.yul\":2692:2699   */\n      dup5\n        /* \"#utility.yul\":2688:2711   */\n      sub\n        /* \"#utility.yul\":2684:2716   */\n      slt\n        /* \"#utility.yul\":2681:2733   */\n      iszero\n      tag_303\n      jumpi\n        /* \"#utility.yul\":2729:2730   */\n      0x00\n        /* \"#utility.yul\":2726:2727   */\n      dup1\n        /* \"#utility.yul\":2719:2731   */\n      revert\n        /* \"#utility.yul\":2681:2733   */\n    tag_303:\n      pop\n        /* \"#utility.yul\":2752:2768   */\n      mload\n      swap2\n        /* \"#utility.yul\":2590:2774   */\n      swap1\n      pop\n      jump\t// out\n        /* \"#utility.yul\":4494:4771   */\n    tag_246:\n        /* \"#utility.yul\":4561:4567   */\n      0x00\n        /* \"#utility.yul\":4614:4616   */\n      0x20\n        /* \"#utility.yul\":4602:4611   */\n      dup3\n        /* \"#utility.yul\":4593:4600   */\n      dup5\n        /* \"#utility.yul\":4589:4612   */\n      sub\n        /* \"#utility.yul\":4585:4617   */\n      slt\n        /* \"#utility.yul\":4582:4634   */\n      iszero\n      tag_310\n      jumpi\n        /* \"#utility.yul\":4630:4631   */\n      0x00\n        /* \"#utility.yul\":4627:4628   */\n      dup1\n        /* \"#utility.yul\":4620:4632   */\n      revert\n        /* \"#utility.yul\":4582:4634   */\n    tag_310:\n        /* \"#utility.yul\":4662:4671   */\n      dup2\n        /* \"#utility.yul\":4656:4672   */\n      mload\n        /* \"#utility.yul\":4715:4720   */\n      dup1\n        /* \"#utility.yul\":4708:4721   */\n      iszero\n        /* \"#utility.yul\":4701:4722   */\n      iszero\n        /* \"#utility.yul\":4694:4699   */\n      dup2\n        /* \"#utility.yul\":4691:4723   */\n      eq\n        /* \"#utility.yul\":4681:4741   */\n      tag_216\n      jumpi\n        /* \"#utility.yul\":4737:4738   */\n      0x00\n        /* \"#utility.yul\":4734:4735   */\n      dup1\n        /* \"#utility.yul\":4727:4739   */\n      revert\n        /* \"#utility.yul\":5952:6210   */\n    tag_278:\n        /* \"#utility.yul\":6024:6025   */\n      0x00\n        /* \"#utility.yul\":6034:6147   */\n    tag_316:\n        /* \"#utility.yul\":6048:6054   */\n      dup4\n        /* \"#utility.yul\":6045:6046   */\n      dup2\n        /* \"#utility.yul\":6042:6055   */\n      lt\n        /* \"#utility.yul\":6034:6147   */\n      iszero\n      tag_318\n      jumpi\n        /* \"#utility.yul\":6124:6135   */\n      dup2\n      dup2\n      add\n        /* \"#utility.yul\":6118:6136   */\n      mload\n        /* \"#utility.yul\":6105:6116   */\n      dup4\n      dup3\n      add\n        /* \"#utility.yul\":6098:6137   */\n      mstore\n        /* \"#utility.yul\":6070:6072   */\n      0x20\n        /* \"#utility.yul\":6063:6073   */\n      add\n        /* \"#utility.yul\":6034:6147   */\n      jump(tag_316)\n    tag_318:\n        /* \"#utility.yul\":6165:6171   */\n      dup4\n        /* \"#utility.yul\":6162:6163   */\n      dup2\n        /* \"#utility.yul\":6159:6172   */\n      gt\n        /* \"#utility.yul\":6156:6204   */\n      iszero\n      tag_218\n      jumpi\n      pop\n      pop\n        /* \"#utility.yul\":6200:6201   */\n      0x00\n        /* \"#utility.yul\":6182:6198   */\n      swap2\n      add\n        /* \"#utility.yul\":6175:6202   */\n      mstore\n        /* \"#utility.yul\":5952:6210   */\n      jump\t// out\n        /* \"#utility.yul\":6215:6489   */\n    tag_263:\n        /* \"#utility.yul\":6344:6347   */\n      0x00\n        /* \"#utility.yul\":6382:6388   */\n      dup3\n        /* \"#utility.yul\":6376:6389   */\n      mload\n        /* \"#utility.yul\":6398:6451   */\n      tag_321\n        /* \"#utility.yul\":6444:6450   */\n      dup2\n        /* \"#utility.yul\":6439:6442   */\n      dup5\n        /* \"#utility.yul\":6432:6436   */\n      0x20\n        /* \"#utility.yul\":6424:6430   */\n      dup8\n        /* \"#utility.yul\":6420:6437   */\n      add\n        /* \"#utility.yul\":6398:6451   */\n      tag_278\n      jump\t// in\n    tag_321:\n        /* \"#utility.yul\":6467:6483   */\n      swap2\n      swap1\n      swap2\n      add\n      swap3\n        /* \"#utility.yul\":6215:6489   */\n      swap2\n      pop\n      pop\n      jump\t// out\n        /* \"#utility.yul\":6494:6877   */\n    tag_276:\n        /* \"#utility.yul\":6643:6645   */\n      0x20\n        /* \"#utility.yul\":6632:6641   */\n      dup2\n        /* \"#utility.yul\":6625:6646   */\n      mstore\n        /* \"#utility.yul\":6606:6610   */\n      0x00\n        /* \"#utility.yul\":6675:6681   */\n      dup3\n        /* \"#utility.yul\":6669:6682   */\n      mload\n        /* \"#utility.yul\":6718:6724   */\n      dup1\n        /* \"#utility.yul\":6713:6715   */\n      0x20\n        /* \"#utility.yul\":6702:6711   */\n      dup5\n        /* \"#utility.yul\":6698:6716   */\n      add\n        /* \"#utility.yul\":6691:6725   */\n      mstore\n        /* \"#utility.yul\":6734:6800   */\n      tag_323\n        /* \"#utility.yul\":6793:6799   */\n      dup2\n        /* \"#utility.yul\":6788:6790   */\n      0x40\n        /* \"#utility.yul\":6777:6786   */\n      dup6\n        /* \"#utility.yul\":6773:6791   */\n      add\n        /* \"#utility.yul\":6768:6770   */\n      0x20\n        /* \"#utility.yul\":6760:6766   */\n      dup8\n        /* \"#utility.yul\":6756:6771   */\n      add\n        /* \"#utility.yul\":6734:6800   */\n      tag_278\n      jump\t// in\n    tag_323:\n        /* \"#utility.yul\":6861:6863   */\n      0x1f\n        /* \"#utility.yul\":6840:6855   */\n      add\n      not(0x1f)\n        /* \"#utility.yul\":6836:6865   */\n      and\n        /* \"#utility.yul\":6821:6866   */\n      swap2\n      swap1\n      swap2\n      add\n        /* \"#utility.yul\":6868:6870   */\n      0x40\n        /* \"#utility.yul\":6817:6871   */\n      add\n      swap3\n        /* \"#utility.yul\":6494:6877   */\n      swap2\n      pop\n      pop\n      jump\t// out\n\n    auxdata: 0xa2646970667358221220e9d08c4d531a2d7c50b24cc8ea73398ea88552b9ee435b8f76782e8ec994a51d64736f6c634300080f0033\n}\n",
				"bytecode": {
					"linkReferences": {},
					"object": "60c06040523480156200001157600080fd5b506040516200156d3803806200156d8339810160408190526200003491620000cf565b60016000556001600160a01b03808416608052821660a0526200005b816201518062000142565b600180546001600160401b03929092166801000000000000000002600160401b600160801b03199092169190911790555050600280546001600160a01b039093166001600160a01b0319909316929092179091555062000180565b6001600160a01b0381168114620000cc57600080fd5b50565b60008060008060808587031215620000e657600080fd5b8451620000f381620000b6565b60208601519094506200010681620000b6565b60408601519093506200011981620000b6565b60608601519092506001600160401b03811681146200013757600080fd5b939692955090935050565b60006001600160401b03828116848216811515828404821116156200017757634e487b7160e01b600052601160045260246000fd5b02949350505050565b60805160a051611373620001fa6000396000818161028c015281816103a801528181610639015281816106da0152818161088701528181610b820152610c5e0152600081816101ca015281816104b9015281816106b001528181610a3801528181610bac01528181610bf10152610c2a01526113736000f3fe6080604052600436106100f25760003560e01c806375619ab51161008a578063cd3daf9d11610059578063cd3daf9d1461025d578063e9fad8ee14610272578063f7c618c11461027a578063fe961f61146102ae57600080fd5b806375619ab51461020457806380faa57d14610217578063893d20e81461022c578063a694fc3a1461024a57600080fd5b80633c6b16ab116100c65780633c6b16ab146101675780633d18b9121461017a57806370a082311461018257806372f702f3146101b857600080fd5b80628cc262146100f757806316c621e01461012a5780631c1f78eb1461013f5780632e1a7d4d14610154575b600080fd5b34801561010357600080fd5b5061011761011236600461115f565b6102c3565b6040519081526020015b60405180910390f35b61013d610138366004611188565b610348565b005b34801561014b57600080fd5b506101176103dc565b61013d610162366004611188565b6103ed565b61013d610175366004611188565b610521565b61013d6107f8565b34801561018e57600080fd5b5061011761019d36600461115f565b6001600160a01b031660009081526008602052604090205490565b3480156101c457600080fd5b506101ec7f000000000000000000000000000000000000000000000000000000000000000081565b6040516001600160a01b039091168152602001610121565b61013d61021236600461115f565b6108fa565b34801561022357600080fd5b5061011761099c565b34801561023857600080fd5b506002546001600160a01b03166101ec565b61013d610258366004611188565b6109a8565b34801561026957600080fd5b50610117610acd565b61013d610ae5565b34801561028657600080fd5b506101ec7f000000000000000000000000000000000000000000000000000000000000000081565b3480156102ba57600080fd5b50600554610117565b6001600160a01b0381166000908152600760209081526040808320546006909252822054600554670de0b6b3a7640000919061030190600190610cf3565b61030b91906111b7565b6001600160a01b03851660009081526008602052604090205461032e91906111ce565b61033891906111ed565b610342919061120f565b92915050565b6002546001600160a01b0316331461037b5760405162461bcd60e51b815260040161037290611227565b60405180910390fd5b6000811161039b5760405162461bcd60e51b815260040161037290611250565b6103d06001600160a01b037f000000000000000000000000000000000000000000000000000000000000000016333084610d77565b6103d981610521565b50565b60006103e86001610de8565b905090565b6103f5610e0e565b3361040c6005546001610e6790919063ffffffff16565b6001600160a01b0381161561045057610424816102c3565b6001600160a01b0382166000908152600760209081526040808320939093556004546006909152919020555b600082116104705760405162461bcd60e51b815260040161037290611250565b816005600082825461048291906111b7565b909155505033600090815260086020526040812080548492906104a69084906111b7565b909155506104e090506001600160a01b037f0000000000000000000000000000000000000000000000000000000000000000163384610eab565b60405182815233907f7084f5476618d8e60b11ef0d7d3f06914655adb8793e28ff7f018d4c76d505d5906020015b60405180910390a2506103d96001600055565b60006105396005546001610e6790919063ffffffff16565b6001600160a01b0381161561057d57610551816102c3565b6001600160a01b0382166000908152600760209081526040808320939093556004546006909152919020555b6002546001600160a01b031633146105a75760405162461bcd60e51b815260040161037290611227565b60015467ffffffffffffffff600160401b82048116911642106105d6576105ce81846111ed565b600355610621565b6001546000906105f190429067ffffffffffffffff166111b7565b60035490915060009061060490836111ce565b905082610611828761120f565b61061b91906111ed565b60035550505b6040516370a0823160e01b81523060048201526000907f00000000000000000000000000000000000000000000000000000000000000006001600160a01b0316906370a0823190602401602060405180830381865afa158015610688573d6000803e3d6000fd5b505050506040513d601f19601f820116820180604052508101906106ac9190611287565b90507f00000000000000000000000000000000000000000000000000000000000000006001600160a01b03167f00000000000000000000000000000000000000000000000000000000000000006001600160a01b0316036107175760055461071490826111b7565b90505b61072182826111ed565b60035411156107645760405162461bcd60e51b815260206004820152600f60248201526e0a4caeec2e4c840e8dede40d0d2ced608b1b6044820152606401610372565b6001805467ffffffffffffffff42908116600160801b0267ffffffffffffffff60801b199092169190911790915561079d90839061120f565b6001805467ffffffffffffffff191667ffffffffffffffff929092169190911790556040518481527fde88a922e0d3b88b24e9623efeb464919c6bf9f66857a65e2bfcf2ce87a9433d9060200160405180910390a150505050565b610800610e0e565b336108176005546001610e6790919063ffffffff16565b6001600160a01b0381161561085b5761082f816102c3565b6001600160a01b0382166000908152600760209081526040808320939093556004546006909152919020555b3360009081526007602052604090205480156108ec57336000818152600760205260408120556108b6907f00000000000000000000000000000000000000000000000000000000000000006001600160a01b03169083610eab565b60405181815233907fe2403640ba68fed3a2f88b7557551d1993f84b99bb10ff833f0cf8db0c5e04869060200160405180910390a25b50506108f86001600055565b565b6002546001600160a01b031633146109245760405162461bcd60e51b815260040161037290611227565b6001600160a01b03811661097a5760405162461bcd60e51b815260206004820152601760248201527f43616e6e6f742073657420746f207a65726f20616464720000000000000000006044820152606401610372565b600280546001600160a01b0319166001600160a01b0392909216919091179055565b60006103e86001610ee0565b6109b0610e0e565b336109c76005546001610e6790919063ffffffff16565b6001600160a01b03811615610a0b576109df816102c3565b6001600160a01b0382166000908152600760209081526040808320939093556004546006909152919020555b60008211610a2b5760405162461bcd60e51b815260040161037290611250565b610a606001600160a01b037f000000000000000000000000000000000000000000000000000000000000000016333085610d77565b8160056000828254610a72919061120f565b90915550503360009081526008602052604081208054849290610a9690849061120f565b909155505060405182815233907f9e71bc8eea02a63969f509818f2dafb9254532904319f9dbda79b67bd34a5f3d9060200161050e565b60006103e86005546001610cf390919063ffffffff16565b600554610af490600190610e67565b3360008181526008602052604081205491610b0e906102c3565b600454336000908152600660209081526040808320939093556008905290812080549293508492909190610b439084906111b7565b909155505033600090815260076020526040812081905560058054849290610b6c9084906111b7565b9091555050600554610b8090600190610e67565b7f00000000000000000000000000000000000000000000000000000000000000006001600160a01b03167f00000000000000000000000000000000000000000000000000000000000000006001600160a01b031603610c1d57610c1833610be7838561120f565b6001600160a01b037f0000000000000000000000000000000000000000000000000000000000000000169190610eab565b610c85565b610c516001600160a01b037f0000000000000000000000000000000000000000000000000000000000000000163384610eab565b610c856001600160a01b037f0000000000000000000000000000000000000000000000000000000000000000163383610eab565b60405182815233907f7084f5476618d8e60b11ef0d7d3f06914655adb8793e28ff7f018d4c76d505d59060200160405180910390a260405181815233907fe2403640ba68fed3a2f88b7557551d1993f84b99bb10ff833f0cf8db0c5e04869060200160405180910390a25050565b600081600003610d0857506003820154610342565b6002830154835483919067ffffffffffffffff600160801b8204811691610d3191429116610ef6565b610d3b91906111b7565b610d4591906111ce565b610d5790670de0b6b3a76400006111ce565b610d6191906111ed565b8360030154610d70919061120f565b9392505050565b6040516001600160a01b0380851660248301528316604482015260648101829052610de29085906323b872dd60e01b906084015b60408051601f198184030181529190526020810180516001600160e01b03166001600160e01b031990931692909217909152610f0c565b50505050565b8054600282015460009161034291600160401b90910467ffffffffffffffff16906111ce565b600260005403610e605760405162461bcd60e51b815260206004820152601f60248201527f5265656e7472616e637947756172643a207265656e7472616e742063616c6c006044820152606401610372565b6002600055565b610e718282610cf3565b6003830155610e7f82610ee0565b825467ffffffffffffffff91909116600160801b0267ffffffffffffffff60801b199091161790915550565b6040516001600160a01b038316602482015260448101829052610edb90849063a9059cbb60e01b90606401610dab565b505050565b805460009061034290429067ffffffffffffffff165b6000818310610f055781610d70565b5090919050565b6000610f61826040518060400160405280602081526020017f5361666545524332303a206c6f772d6c6576656c2063616c6c206661696c6564815250856001600160a01b0316610fde9092919063ffffffff16565b805190915015610edb5780806020019051810190610f7f91906112a0565b610edb5760405162461bcd60e51b815260206004820152602a60248201527f5361666545524332303a204552433230206f7065726174696f6e20646964206e6044820152691bdd081cdd58d8d9595960b21b6064820152608401610372565b6060610fed8484600085610ff5565b949350505050565b6060824710156110565760405162461bcd60e51b815260206004820152602660248201527f416464726573733a20696e73756666696369656e742062616c616e636520666f6044820152651c8818d85b1b60d21b6064820152608401610372565b6001600160a01b0385163b6110ad5760405162461bcd60e51b815260206004820152601d60248201527f416464726573733a2063616c6c20746f206e6f6e2d636f6e74726163740000006044820152606401610372565b600080866001600160a01b031685876040516110c991906112ee565b60006040518083038185875af1925050503d8060008114611106576040519150601f19603f3d011682016040523d82523d6000602084013e61110b565b606091505b509150915061111b828286611126565b979650505050505050565b60608315611135575081610d70565b8251156111455782518084602001fd5b8160405162461bcd60e51b8152600401610372919061130a565b60006020828403121561117157600080fd5b81356001600160a01b0381168114610d7057600080fd5b60006020828403121561119a57600080fd5b5035919050565b634e487b7160e01b600052601160045260246000fd5b6000828210156111c9576111c96111a1565b500390565b60008160001904831182151516156111e8576111e86111a1565b500290565b60008261120a57634e487b7160e01b600052601260045260246000fd5b500490565b60008219821115611222576112226111a1565b500190565b6020808252600f908201526e2737ba103234b9ba3934b13aba37b960891b604082015260600190565b60208082526019908201527f4d7573742062652067726561746572207468616e207a65726f00000000000000604082015260600190565b60006020828403121561129957600080fd5b5051919050565b6000602082840312156112b257600080fd5b81518015158114610d7057600080fd5b60005b838110156112dd5781810151838201526020016112c5565b83811115610de25750506000910152565b600082516113008184602087016112c2565b9190910192915050565b60208152600082518060208401526113298160408501602087016112c2565b601f01601f1916919091016040019291505056fea2646970667358221220e9d08c4d531a2d7c50b24cc8ea73398ea88552b9ee435b8f76782e8ec994a51d64736f6c634300080f0033",
					"opcodes": "PUSH1 0xC0 PUSH1 0x40 MSTORE CALLVALUE DUP1 ISZERO PUSH3 0x11 JUMPI PUSH1 0x0 DUP1 REVERT JUMPDEST POP PUSH1 0x40 MLOAD PUSH3 0x156D CODESIZE SUB DUP1 PUSH3 0x156D DUP4 CODECOPY DUP2 ADD PUSH1 0x40 DUP2 SWAP1 MSTORE PUSH3 0x34 SWAP2 PUSH3 0xCF JUMP JUMPDEST PUSH1 0x1 PUSH1 0x0 SSTORE PUSH1 0x1 PUSH1 0x1 PUSH1 0xA0 SHL SUB DUP1 DUP5 AND PUSH1 0x80 MSTORE DUP3 AND PUSH1 0xA0 MSTORE PUSH3 0x5B DUP2 PUSH3 0x15180 PUSH3 0x142 JUMP JUMPDEST PUSH1 0x1 DUP1 SLOAD PUSH1 0x1 PUSH1 0x1 PUSH1 0x40 SHL SUB SWAP3 SWAP1 SWAP3 AND PUSH9 0x10000000000000000 MUL PUSH1 0x1 PUSH1 0x40 SHL PUSH1 0x1 PUSH1 0x80 SHL SUB NOT SWAP1 SWAP3 AND SWAP2 SWAP1 SWAP2 OR SWAP1 SSTORE POP POP PUSH1 0x2 DUP1 SLOAD PUSH1 0x1 PUSH1 0x1 PUSH1 0xA0 SHL SUB SWAP1 SWAP4 AND PUSH1 0x1 PUSH1 0x1 PUSH1 0xA0 SHL SUB NOT SWAP1 SWAP4 AND SWAP3 SWAP1 SWAP3 OR SWAP1 SWAP2 SSTORE POP PUSH3 0x180 JUMP JUMPDEST PUSH1 0x1 PUSH1 0x1 PUSH1 0xA0 SHL SUB DUP2 AND DUP2 EQ PUSH3 0xCC JUMPI PUSH1 0x0 DUP1 REVERT JUMPDEST POP JUMP JUMPDEST PUSH1 0x0 DUP1 PUSH1 0x0 DUP1 PUSH1 0x80 DUP6 DUP8 SUB SLT ISZERO PUSH3 0xE6 JUMPI PUSH1 0x0 DUP1 REVERT JUMPDEST DUP5 MLOAD PUSH3 0xF3 DUP2 PUSH3 0xB6 JUMP JUMPDEST PUSH1 0x20 DUP7 ADD MLOAD SWAP1 SWAP5 POP PUSH3 0x106 DUP2 PUSH3 0xB6 JUMP JUMPDEST PUSH1 0x40 DUP7 ADD MLOAD SWAP1 SWAP4 POP PUSH3 0x119 DUP2 PUSH3 0xB6 JUMP JUMPDEST PUSH1 0x60 DUP7 ADD MLOAD SWAP1 SWAP3 POP PUSH1 0x1 PUSH1 0x1 PUSH1 0x40 SHL SUB DUP2 AND DUP2 EQ PUSH3 0x137 JUMPI PUSH1 0x0 DUP1 REVERT JUMPDEST SWAP4 SWAP7 SWAP3 SWAP6 POP SWAP1 SWAP4 POP POP JUMP JUMPDEST PUSH1 0x0 PUSH1 0x1 PUSH1 0x1 PUSH1 0x40 SHL SUB DUP3 DUP2 AND DUP5 DUP3 AND DUP2 ISZERO ISZERO DUP3 DUP5 DIV DUP3 GT AND ISZERO PUSH3 0x177 JUMPI PUSH4 0x4E487B71 PUSH1 0xE0 SHL PUSH1 0x0 MSTORE PUSH1 0x11 PUSH1 0x4 MSTORE PUSH1 0x24 PUSH1 0x0 REVERT JUMPDEST MUL SWAP5 SWAP4 POP POP POP POP JUMP JUMPDEST PUSH1 0x80 MLOAD PUSH1 0xA0 MLOAD PUSH2 0x1373 PUSH3 0x1FA PUSH1 0x0 CODECOPY PUSH1 0x0 DUP2 DUP2 PUSH2 0x28C ADD MSTORE DUP2 DUP2 PUSH2 0x3A8 ADD MSTORE DUP2 DUP2 PUSH2 0x639 ADD MSTORE DUP2 DUP2 PUSH2 0x6DA ADD MSTORE DUP2 DUP2 PUSH2 0x887 ADD MSTORE DUP2 DUP2 PUSH2 0xB82 ADD MSTORE PUSH2 0xC5E ADD MSTORE PUSH1 0x0 DUP2 DUP2 PUSH2 0x1CA ADD MSTORE DUP2 DUP2 PUSH2 0x4B9 ADD MSTORE DUP2 DUP2 PUSH2 0x6B0 ADD MSTORE DUP2 DUP2 PUSH2 0xA38 ADD MSTORE DUP2 DUP2 PUSH2 0xBAC ADD MSTORE DUP2 DUP2 PUSH2 0xBF1 ADD MSTORE PUSH2 0xC2A ADD MSTORE PUSH2 0x1373 PUSH1 0x0 RETURN INVALID PUSH1 0x80 PUSH1 0x40 MSTORE PUSH1 0x4 CALLDATASIZE LT PUSH2 0xF2 JUMPI PUSH1 0x0 CALLDATALOAD PUSH1 0xE0 SHR DUP1 PUSH4 0x75619AB5 GT PUSH2 0x8A JUMPI DUP1 PUSH4 0xCD3DAF9D GT PUSH2 0x59 JUMPI DUP1 PUSH4 0xCD3DAF9D EQ PUSH2 0x25D JUMPI DUP1 PUSH4 0xE9FAD8EE EQ PUSH2 0x272 JUMPI DUP1 PUSH4 0xF7C618C1 EQ PUSH2 0x27A JUMPI DUP1 PUSH4 0xFE961F61 EQ PUSH2 0x2AE JUMPI PUSH1 0x0 DUP1 REVERT JUMPDEST DUP1 PUSH4 0x75619AB5 EQ PUSH2 0x204 JUMPI DUP1 PUSH4 0x80FAA57D EQ PUSH2 0x217 JUMPI DUP1 PUSH4 0x893D20E8 EQ PUSH2 0x22C JUMPI DUP1 PUSH4 0xA694FC3A EQ PUSH2 0x24A JUMPI PUSH1 0x0 DUP1 REVERT JUMPDEST DUP1 PUSH4 0x3C6B16AB GT PUSH2 0xC6 JUMPI DUP1 PUSH4 0x3C6B16AB EQ PUSH2 0x167 JUMPI DUP1 PUSH4 0x3D18B912 EQ PUSH2 0x17A JUMPI DUP1 PUSH4 0x70A08231 EQ PUSH2 0x182 JUMPI DUP1 PUSH4 0x72F702F3 EQ PUSH2 0x1B8 JUMPI PUSH1 0x0 DUP1 REVERT JUMPDEST DUP1 PUSH3 0x8CC262 EQ PUSH2 0xF7 JUMPI DUP1 PUSH4 0x16C621E0 EQ PUSH2 0x12A JUMPI DUP1 PUSH4 0x1C1F78EB EQ PUSH2 0x13F JUMPI DUP1 PUSH4 0x2E1A7D4D EQ PUSH2 0x154 JUMPI JUMPDEST PUSH1 0x0 DUP1 REVERT JUMPDEST CALLVALUE DUP1 ISZERO PUSH2 0x103 JUMPI PUSH1 0x0 DUP1 REVERT JUMPDEST POP PUSH2 0x117 PUSH2 0x112 CALLDATASIZE PUSH1 0x4 PUSH2 0x115F JUMP JUMPDEST PUSH2 0x2C3 JUMP JUMPDEST PUSH1 0x40 MLOAD SWAP1 DUP2 MSTORE PUSH1 0x20 ADD JUMPDEST PUSH1 0x40 MLOAD DUP1 SWAP2 SUB SWAP1 RETURN JUMPDEST PUSH2 0x13D PUSH2 0x138 CALLDATASIZE PUSH1 0x4 PUSH2 0x1188 JUMP JUMPDEST PUSH2 0x348 JUMP JUMPDEST STOP JUMPDEST CALLVALUE DUP1 ISZERO PUSH2 0x14B JUMPI PUSH1 0x0 DUP1 REVERT JUMPDEST POP PUSH2 0x117 PUSH2 0x3DC JUMP JUMPDEST PUSH2 0x13D PUSH2 0x162 CALLDATASIZE PUSH1 0x4 PUSH2 0x1188 JUMP JUMPDEST PUSH2 0x3ED JUMP JUMPDEST PUSH2 0x13D PUSH2 0x175 CALLDATASIZE PUSH1 0x4 PUSH2 0x1188 JUMP JUMPDEST PUSH2 0x521 JUMP JUMPDEST PUSH2 0x13D PUSH2 0x7F8 JUMP JUMPDEST CALLVALUE DUP1 ISZERO PUSH2 0x18E JUMPI PUSH1 0x0 DUP1 REVERT JUMPDEST POP PUSH2 0x117 PUSH2 0x19D CALLDATASIZE PUSH1 0x4 PUSH2 0x115F JUMP JUMPDEST PUSH1 0x1 PUSH1 0x1 PUSH1 0xA0 SHL SUB AND PUSH1 0x0 SWAP1 DUP2 MSTORE PUSH1 0x8 PUSH1 0x20 MSTORE PUSH1 0x40 SWAP1 KECCAK256 SLOAD SWAP1 JUMP JUMPDEST CALLVALUE DUP1 ISZERO PUSH2 0x1C4 JUMPI PUSH1 0x0 DUP1 REVERT JUMPDEST POP PUSH2 0x1EC PUSH32 0x0 DUP2 JUMP JUMPDEST PUSH1 0x40 MLOAD PUSH1 0x1 PUSH1 0x1 PUSH1 0xA0 SHL SUB SWAP1 SWAP2 AND DUP2 MSTORE PUSH1 0x20 ADD PUSH2 0x121 JUMP JUMPDEST PUSH2 0x13D PUSH2 0x212 CALLDATASIZE PUSH1 0x4 PUSH2 0x115F JUMP JUMPDEST PUSH2 0x8FA JUMP JUMPDEST CALLVALUE DUP1 ISZERO PUSH2 0x223 JUMPI PUSH1 0x0 DUP1 REVERT JUMPDEST POP PUSH2 0x117 PUSH2 0x99C JUMP JUMPDEST CALLVALUE DUP1 ISZERO PUSH2 0x238 JUMPI PUSH1 0x0 DUP1 REVERT JUMPDEST POP PUSH1 0x2 SLOAD PUSH1 0x1 PUSH1 0x1 PUSH1 0xA0 SHL SUB AND PUSH2 0x1EC JUMP JUMPDEST PUSH2 0x13D PUSH2 0x258 CALLDATASIZE PUSH1 0x4 PUSH2 0x1188 JUMP JUMPDEST PUSH2 0x9A8 JUMP JUMPDEST CALLVALUE DUP1 ISZERO PUSH2 0x269 JUMPI PUSH1 0x0 DUP1 REVERT JUMPDEST POP PUSH2 0x117 PUSH2 0xACD JUMP JUMPDEST PUSH2 0x13D PUSH2 0xAE5 JUMP JUMPDEST CALLVALUE DUP1 ISZERO PUSH2 0x286 JUMPI PUSH1 0x0 DUP1 REVERT JUMPDEST POP PUSH2 0x1EC PUSH32 0x0 DUP2 JUMP JUMPDEST CALLVALUE DUP1 ISZERO PUSH2 0x2BA JUMPI PUSH1 0x0 DUP1 REVERT JUMPDEST POP PUSH1 0x5 SLOAD PUSH2 0x117 JUMP JUMPDEST PUSH1 0x1 PUSH1 0x1 PUSH1 0xA0 SHL SUB DUP2 AND PUSH1 0x0 SWAP1 DUP2 MSTORE PUSH1 0x7 PUSH1 0x20 SWAP1 DUP2 MSTORE PUSH1 0x40 DUP1 DUP4 KECCAK256 SLOAD PUSH1 0x6 SWAP1 SWAP3 MSTORE DUP3 KECCAK256 SLOAD PUSH1 0x5 SLOAD PUSH8 0xDE0B6B3A7640000 SWAP2 SWAP1 PUSH2 0x301 SWAP1 PUSH1 0x1 SWAP1 PUSH2 0xCF3 JUMP JUMPDEST PUSH2 0x30B SWAP2 SWAP1 PUSH2 0x11B7 JUMP JUMPDEST PUSH1 0x1 PUSH1 0x1 PUSH1 0xA0 SHL SUB DUP6 AND PUSH1 0x0 SWAP1 DUP2 MSTORE PUSH1 0x8 PUSH1 0x20 MSTORE PUSH1 0x40 SWAP1 KECCAK256 SLOAD PUSH2 0x32E SWAP2 SWAP1 PUSH2 0x11CE JUMP JUMPDEST PUSH2 0x338 SWAP2 SWAP1 PUSH2 0x11ED JUMP JUMPDEST PUSH2 0x342 SWAP2 SWAP1 PUSH2 0x120F JUMP JUMPDEST SWAP3 SWAP2 POP POP JUMP JUMPDEST PUSH1 0x2 SLOAD PUSH1 0x1 PUSH1 0x1 PUSH1 0xA0 SHL SUB AND CALLER EQ PUSH2 0x37B JUMPI PUSH1 0x40 MLOAD PUSH3 0x461BCD PUSH1 0xE5 SHL DUP2 MSTORE PUSH1 0x4 ADD PUSH2 0x372 SWAP1 PUSH2 0x1227 JUMP JUMPDEST PUSH1 0x40 MLOAD DUP1 SWAP2 SUB SWAP1 REVERT JUMPDEST PUSH1 0x0 DUP2 GT PUSH2 0x39B JUMPI PUSH1 0x40 MLOAD PUSH3 0x461BCD PUSH1 0xE5 SHL DUP2 MSTORE PUSH1 0x4 ADD PUSH2 0x372 SWAP1 PUSH2 0x1250 JUMP JUMPDEST PUSH2 0x3D0 PUSH1 0x1 PUSH1 0x1 PUSH1 0xA0 SHL SUB PUSH32 0x0 AND CALLER ADDRESS DUP5 PUSH2 0xD77 JUMP JUMPDEST PUSH2 0x3D9 DUP2 PUSH2 0x521 JUMP JUMPDEST POP JUMP JUMPDEST PUSH1 0x0 PUSH2 0x3E8 PUSH1 0x1 PUSH2 0xDE8 JUMP JUMPDEST SWAP1 POP SWAP1 JUMP JUMPDEST PUSH2 0x3F5 PUSH2 0xE0E JUMP JUMPDEST CALLER PUSH2 0x40C PUSH1 0x5 SLOAD PUSH1 0x1 PUSH2 0xE67 SWAP1 SWAP2 SWAP1 PUSH4 0xFFFFFFFF AND JUMP JUMPDEST PUSH1 0x1 PUSH1 0x1 PUSH1 0xA0 SHL SUB DUP2 AND ISZERO PUSH2 0x450 JUMPI PUSH2 0x424 DUP2 PUSH2 0x2C3 JUMP JUMPDEST PUSH1 0x1 PUSH1 0x1 PUSH1 0xA0 SHL SUB DUP3 AND PUSH1 0x0 SWAP1 DUP2 MSTORE PUSH1 0x7 PUSH1 0x20 SWAP1 DUP2 MSTORE PUSH1 0x40 DUP1 DUP4 KECCAK256 SWAP4 SWAP1 SWAP4 SSTORE PUSH1 0x4 SLOAD PUSH1 0x6 SWAP1 SWAP2 MSTORE SWAP2 SWAP1 KECCAK256 SSTORE JUMPDEST PUSH1 0x0 DUP3 GT PUSH2 0x470 JUMPI PUSH1 0x40 MLOAD PUSH3 0x461BCD PUSH1 0xE5 SHL DUP2 MSTORE PUSH1 0x4 ADD PUSH2 0x372 SWAP1 PUSH2 0x1250 JUMP JUMPDEST DUP2 PUSH1 0x5 PUSH1 0x0 DUP3 DUP3 SLOAD PUSH2 0x482 SWAP2 SWAP1 PUSH2 0x11B7 JUMP JUMPDEST SWAP1 SWAP2 SSTORE POP POP CALLER PUSH1 0x0 SWAP1 DUP2 MSTORE PUSH1 0x8 PUSH1 0x20 MSTORE PUSH1 0x40 DUP2 KECCAK256 DUP1 SLOAD DUP5 SWAP3 SWAP1 PUSH2 0x4A6 SWAP1 DUP5 SWAP1 PUSH2 0x11B7 JUMP JUMPDEST SWAP1 SWAP2 SSTORE POP PUSH2 0x4E0 SWAP1 POP PUSH1 0x1 PUSH1 0x1 PUSH1 0xA0 SHL SUB PUSH32 0x0 AND CALLER DUP5 PUSH2 0xEAB JUMP JUMPDEST PUSH1 0x40 MLOAD DUP3 DUP2 MSTORE CALLER SWAP1 PUSH32 0x7084F5476618D8E60B11EF0D7D3F06914655ADB8793E28FF7F018D4C76D505D5 SWAP1 PUSH1 0x20 ADD JUMPDEST PUSH1 0x40 MLOAD DUP1 SWAP2 SUB SWAP1 LOG2 POP PUSH2 0x3D9 PUSH1 0x1 PUSH1 0x0 SSTORE JUMP JUMPDEST PUSH1 0x0 PUSH2 0x539 PUSH1 0x5 SLOAD PUSH1 0x1 PUSH2 0xE67 SWAP1 SWAP2 SWAP1 PUSH4 0xFFFFFFFF AND JUMP JUMPDEST PUSH1 0x1 PUSH1 0x1 PUSH1 0xA0 SHL SUB DUP2 AND ISZERO PUSH2 0x57D JUMPI PUSH2 0x551 DUP2 PUSH2 0x2C3 JUMP JUMPDEST PUSH1 0x1 PUSH1 0x1 PUSH1 0xA0 SHL SUB DUP3 AND PUSH1 0x0 SWAP1 DUP2 MSTORE PUSH1 0x7 PUSH1 0x20 SWAP1 DUP2 MSTORE PUSH1 0x40 DUP1 DUP4 KECCAK256 SWAP4 SWAP1 SWAP4 SSTORE PUSH1 0x4 SLOAD PUSH1 0x6 SWAP1 SWAP2 MSTORE SWAP2 SWAP1 KECCAK256 SSTORE JUMPDEST PUSH1 0x2 SLOAD PUSH1 0x1 PUSH1 0x1 PUSH1 0xA0 SHL SUB AND CALLER EQ PUSH2 0x5A7 JUMPI PUSH1 0x40 MLOAD PUSH3 0x461BCD PUSH1 0xE5 SHL DUP2 MSTORE PUSH1 0x4 ADD PUSH2 0x372 SWAP1 PUSH2 0x1227 JUMP JUMPDEST PUSH1 0x1 SLOAD PUSH8 0xFFFFFFFFFFFFFFFF PUSH1 0x1 PUSH1 0x40 SHL DUP3 DIV DUP2 AND SWAP2 AND TIMESTAMP LT PUSH2 0x5D6 JUMPI PUSH2 0x5CE DUP2 DUP5 PUSH2 0x11ED JUMP JUMPDEST PUSH1 0x3 SSTORE PUSH2 0x621 JUMP JUMPDEST PUSH1 0x1 SLOAD PUSH1 0x0 SWAP1 PUSH2 0x5F1 SWAP1 TIMESTAMP SWAP1 PUSH8 0xFFFFFFFFFFFFFFFF AND PUSH2 0x11B7 JUMP JUMPDEST PUSH1 0x3 SLOAD SWAP1 SWAP2 POP PUSH1 0x0 SWAP1 PUSH2 0x604 SWAP1 DUP4 PUSH2 0x11CE JUMP JUMPDEST SWAP1 POP DUP3 PUSH2 0x611 DUP3 DUP8 PUSH2 0x120F JUMP JUMPDEST PUSH2 0x61B SWAP2 SWAP1 PUSH2 0x11ED JUMP JUMPDEST PUSH1 0x3 SSTORE POP POP JUMPDEST PUSH1 0x40 MLOAD PUSH4 0x70A08231 PUSH1 0xE0 SHL DUP2 MSTORE ADDRESS PUSH1 0x4 DUP3 ADD MSTORE PUSH1 0x0 SWAP1 PUSH32 0x0 PUSH1 0x1 PUSH1 0x1 PUSH1 0xA0 SHL SUB AND SWAP1 PUSH4 0x70A08231 SWAP1 PUSH1 0x24 ADD PUSH1 0x20 PUSH1 0x40 MLOAD DUP1 DUP4 SUB DUP2 DUP7 GAS STATICCALL ISZERO DUP1 ISZERO PUSH2 0x688 JUMPI RETURNDATASIZE PUSH1 0x0 DUP1 RETURNDATACOPY RETURNDATASIZE PUSH1 0x0 REVERT JUMPDEST POP POP POP POP PUSH1 0x40 MLOAD RETURNDATASIZE PUSH1 0x1F NOT PUSH1 0x1F DUP3 ADD AND DUP3 ADD DUP1 PUSH1 0x40 MSTORE POP DUP2 ADD SWAP1 PUSH2 0x6AC SWAP2 SWAP1 PUSH2 0x1287 JUMP JUMPDEST SWAP1 POP PUSH32 0x0 PUSH1 0x1 PUSH1 0x1 PUSH1 0xA0 SHL SUB AND PUSH32 0x0 PUSH1 0x1 PUSH1 0x1 PUSH1 0xA0 SHL SUB AND SUB PUSH2 0x717 JUMPI PUSH1 0x5 SLOAD PUSH2 0x714 SWAP1 DUP3 PUSH2 0x11B7 JUMP JUMPDEST SWAP1 POP JUMPDEST PUSH2 0x721 DUP3 DUP3 PUSH2 0x11ED JUMP JUMPDEST PUSH1 0x3 SLOAD GT ISZERO PUSH2 0x764 JUMPI PUSH1 0x40 MLOAD PUSH3 0x461BCD PUSH1 0xE5 SHL DUP2 MSTORE PUSH1 0x20 PUSH1 0x4 DUP3 ADD MSTORE PUSH1 0xF PUSH1 0x24 DUP3 ADD MSTORE PUSH15 0xA4CAEEC2E4C840E8DEDE40D0D2CED PUSH1 0x8B SHL PUSH1 0x44 DUP3 ADD MSTORE PUSH1 0x64 ADD PUSH2 0x372 JUMP JUMPDEST PUSH1 0x1 DUP1 SLOAD PUSH8 0xFFFFFFFFFFFFFFFF TIMESTAMP SWAP1 DUP2 AND PUSH1 0x1 PUSH1 0x80 SHL MUL PUSH8 0xFFFFFFFFFFFFFFFF PUSH1 0x80 SHL NOT SWAP1 SWAP3 AND SWAP2 SWAP1 SWAP2 OR SWAP1 SWAP2 SSTORE PUSH2 0x79D SWAP1 DUP4 SWAP1 PUSH2 0x120F JUMP JUMPDEST PUSH1 0x1 DUP1 SLOAD PUSH8 0xFFFFFFFFFFFFFFFF NOT AND PUSH8 0xFFFFFFFFFFFFFFFF SWAP3 SWAP1 SWAP3 AND SWAP2 SWAP1 SWAP2 OR SWAP1 SSTORE PUSH1 0x40 MLOAD DUP5 DUP2 MSTORE PUSH32 0xDE88A922E0D3B88B24E9623EFEB464919C6BF9F66857A65E2BFCF2CE87A9433D SWAP1 PUSH1 0x20 ADD PUSH1 0x40 MLOAD DUP1 SWAP2 SUB SWAP1 LOG1 POP POP POP POP JUMP JUMPDEST PUSH2 0x800 PUSH2 0xE0E JUMP JUMPDEST CALLER PUSH2 0x817 PUSH1 0x5 SLOAD PUSH1 0x1 PUSH2 0xE67 SWAP1 SWAP2 SWAP1 PUSH4 0xFFFFFFFF AND JUMP JUMPDEST PUSH1 0x1 PUSH1 0x1 PUSH1 0xA0 SHL SUB DUP2 AND ISZERO PUSH2 0x85B JUMPI PUSH2 0x82F DUP2 PUSH2 0x2C3 JUMP JUMPDEST PUSH1 0x1 PUSH1 0x1 PUSH1 0xA0 SHL SUB DUP3 AND PUSH1 0x0 SWAP1 DUP2 MSTORE PUSH1 0x7 PUSH1 0x20 SWAP1 DUP2 MSTORE PUSH1 0x40 DUP1 DUP4 KECCAK256 SWAP4 SWAP1 SWAP4 SSTORE PUSH1 0x4 SLOAD PUSH1 0x6 SWAP1 SWAP2 MSTORE SWAP2 SWAP1 KECCAK256 SSTORE JUMPDEST CALLER PUSH1 0x0 SWAP1 DUP2 MSTORE PUSH1 0x7 PUSH1 0x20 MSTORE PUSH1 0x40 SWAP1 KECCAK256 SLOAD DUP1 ISZERO PUSH2 0x8EC JUMPI CALLER PUSH1 0x0 DUP2 DUP2 MSTORE PUSH1 0x7 PUSH1 0x20 MSTORE PUSH1 0x40 DUP2 KECCAK256 SSTORE PUSH2 0x8B6 SWAP1 PUSH32 0x0 PUSH1 0x1 PUSH1 0x1 PUSH1 0xA0 SHL SUB AND SWAP1 DUP4 PUSH2 0xEAB JUMP JUMPDEST PUSH1 0x40 MLOAD DUP2 DUP2 MSTORE CALLER SWAP1 PUSH32 0xE2403640BA68FED3A2F88B7557551D1993F84B99BB10FF833F0CF8DB0C5E0486 SWAP1 PUSH1 0x20 ADD PUSH1 0x40 MLOAD DUP1 SWAP2 SUB SWAP1 LOG2 JUMPDEST POP POP PUSH2 0x8F8 PUSH1 0x1 PUSH1 0x0 SSTORE JUMP JUMPDEST JUMP JUMPDEST PUSH1 0x2 SLOAD PUSH1 0x1 PUSH1 0x1 PUSH1 0xA0 SHL SUB AND CALLER EQ PUSH2 0x924 JUMPI PUSH1 0x40 MLOAD PUSH3 0x461BCD PUSH1 0xE5 SHL DUP2 MSTORE PUSH1 0x4 ADD PUSH2 0x372 SWAP1 PUSH2 0x1227 JUMP JUMPDEST PUSH1 0x1 PUSH1 0x1 PUSH1 0xA0 SHL SUB DUP2 AND PUSH2 0x97A JUMPI PUSH1 0x40 MLOAD PUSH3 0x461BCD PUSH1 0xE5 SHL DUP2 MSTORE PUSH1 0x20 PUSH1 0x4 DUP3 ADD MSTORE PUSH1 0x17 PUSH1 0x24 DUP3 ADD MSTORE PUSH32 0x43616E6E6F742073657420746F207A65726F2061646472000000000000000000 PUSH1 0x44 DUP3 ADD MSTORE PUSH1 0x64 ADD PUSH2 0x372 JUMP JUMPDEST PUSH1 0x2 DUP1 SLOAD PUSH1 0x1 PUSH1 0x1 PUSH1 0xA0 SHL SUB NOT AND PUSH1 0x1 PUSH1 0x1 PUSH1 0xA0 SHL SUB SWAP3 SWAP1 SWAP3 AND SWAP2 SWAP1 SWAP2 OR SWAP1 SSTORE JUMP JUMPDEST PUSH1 0x0 PUSH2 0x3E8 PUSH1 0x1 PUSH2 0xEE0 JUMP JUMPDEST PUSH2 0x9B0 PUSH2 0xE0E JUMP JUMPDEST CALLER PUSH2 0x9C7 PUSH1 0x5 SLOAD PUSH1 0x1 PUSH2 0xE67 SWAP1 SWAP2 SWAP1 PUSH4 0xFFFFFFFF AND JUMP JUMPDEST PUSH1 0x1 PUSH1 0x1 PUSH1 0xA0 SHL SUB DUP2 AND ISZERO PUSH2 0xA0B JUMPI PUSH2 0x9DF DUP2 PUSH2 0x2C3 JUMP JUMPDEST PUSH1 0x1 PUSH1 0x1 PUSH1 0xA0 SHL SUB DUP3 AND PUSH1 0x0 SWAP1 DUP2 MSTORE PUSH1 0x7 PUSH1 0x20 SWAP1 DUP2 MSTORE PUSH1 0x40 DUP1 DUP4 KECCAK256 SWAP4 SWAP1 SWAP4 SSTORE PUSH1 0x4 SLOAD PUSH1 0x6 SWAP1 SWAP2 MSTORE SWAP2 SWAP1 KECCAK256 SSTORE JUMPDEST PUSH1 0x0 DUP3 GT PUSH2 0xA2B JUMPI PUSH1 0x40 MLOAD PUSH3 0x461BCD PUSH1 0xE5 SHL DUP2 MSTORE PUSH1 0x4 ADD PUSH2 0x372 SWAP1 PUSH2 0x1250 JUMP JUMPDEST PUSH2 0xA60 PUSH1 0x1 PUSH1 0x1 PUSH1 0xA0 SHL SUB PUSH32 0x0 AND CALLER ADDRESS DUP6 PUSH2 0xD77 JUMP JUMPDEST DUP2 PUSH1 0x5 PUSH1 0x0 DUP3 DUP3 SLOAD PUSH2 0xA72 SWAP2 SWAP1 PUSH2 0x120F JUMP JUMPDEST SWAP1 SWAP2 SSTORE POP POP CALLER PUSH1 0x0 SWAP1 DUP2 MSTORE PUSH1 0x8 PUSH1 0x20 MSTORE PUSH1 0x40 DUP2 KECCAK256 DUP1 SLOAD DUP5 SWAP3 SWAP1 PUSH2 0xA96 SWAP1 DUP5 SWAP1 PUSH2 0x120F JUMP JUMPDEST SWAP1 SWAP2 SSTORE POP POP PUSH1 0x40 MLOAD DUP3 DUP2 MSTORE CALLER SWAP1 PUSH32 0x9E71BC8EEA02A63969F509818F2DAFB9254532904319F9DBDA79B67BD34A5F3D SWAP1 PUSH1 0x20 ADD PUSH2 0x50E JUMP JUMPDEST PUSH1 0x0 PUSH2 0x3E8 PUSH1 0x5 SLOAD PUSH1 0x1 PUSH2 0xCF3 SWAP1 SWAP2 SWAP1 PUSH4 0xFFFFFFFF AND JUMP JUMPDEST PUSH1 0x5 SLOAD PUSH2 0xAF4 SWAP1 PUSH1 0x1 SWAP1 PUSH2 0xE67 JUMP JUMPDEST CALLER PUSH1 0x0 DUP2 DUP2 MSTORE PUSH1 0x8 PUSH1 0x20 MSTORE PUSH1 0x40 DUP2 KECCAK256 SLOAD SWAP2 PUSH2 0xB0E SWAP1 PUSH2 0x2C3 JUMP JUMPDEST PUSH1 0x4 SLOAD CALLER PUSH1 0x0 SWAP1 DUP2 MSTORE PUSH1 0x6 PUSH1 0x20 SWAP1 DUP2 MSTORE PUSH1 0x40 DUP1 DUP4 KECCAK256 SWAP4 SWAP1 SWAP4 SSTORE PUSH1 0x8 SWAP1 MSTORE SWAP1 DUP2 KECCAK256 DUP1 SLOAD SWAP3 SWAP4 POP DUP5 SWAP3 SWAP1 SWAP2 SWAP1 PUSH2 0xB43 SWAP1 DUP5 SWAP1 PUSH2 0x11B7 JUMP JUMPDEST SWAP1 SWAP2 SSTORE POP POP CALLER PUSH1 0x0 SWAP1 DUP2 MSTORE PUSH1 0x7 PUSH1 0x20 MSTORE PUSH1 0x40 DUP2 KECCAK256 DUP2 SWAP1 SSTORE PUSH1 0x5 DUP1 SLOAD DUP5 SWAP3 SWAP1 PUSH2 0xB6C SWAP1 DUP5 SWAP1 PUSH2 0x11B7 JUMP JUMPDEST SWAP1 SWAP2 SSTORE POP POP PUSH1 0x5 SLOAD PUSH2 0xB80 SWAP1 PUSH1 0x1 SWAP1 PUSH2 0xE67 JUMP JUMPDEST PUSH32 0x0 PUSH1 0x1 PUSH1 0x1 PUSH1 0xA0 SHL SUB AND PUSH32 0x0 PUSH1 0x1 PUSH1 0x1 PUSH1 0xA0 SHL SUB AND SUB PUSH2 0xC1D JUMPI PUSH2 0xC18 CALLER PUSH2 0xBE7 DUP4 DUP6 PUSH2 0x120F JUMP JUMPDEST PUSH1 0x1 PUSH1 0x1 PUSH1 0xA0 SHL SUB PUSH32 0x0 AND SWAP2 SWAP1 PUSH2 0xEAB JUMP JUMPDEST PUSH2 0xC85 JUMP JUMPDEST PUSH2 0xC51 PUSH1 0x1 PUSH1 0x1 PUSH1 0xA0 SHL SUB PUSH32 0x0 AND CALLER DUP5 PUSH2 0xEAB JUMP JUMPDEST PUSH2 0xC85 PUSH1 0x1 PUSH1 0x1 PUSH1 0xA0 SHL SUB PUSH32 0x0 AND CALLER DUP4 PUSH2 0xEAB JUMP JUMPDEST PUSH1 0x40 MLOAD DUP3 DUP2 MSTORE CALLER SWAP1 PUSH32 0x7084F5476618D8E60B11EF0D7D3F06914655ADB8793E28FF7F018D4C76D505D5 SWAP1 PUSH1 0x20 ADD PUSH1 0x40 MLOAD DUP1 SWAP2 SUB SWAP1 LOG2 PUSH1 0x40 MLOAD DUP2 DUP2 MSTORE CALLER SWAP1 PUSH32 0xE2403640BA68FED3A2F88B7557551D1993F84B99BB10FF833F0CF8DB0C5E0486 SWAP1 PUSH1 0x20 ADD PUSH1 0x40 MLOAD DUP1 SWAP2 SUB SWAP1 LOG2 POP POP JUMP JUMPDEST PUSH1 0x0 DUP2 PUSH1 0x0 SUB PUSH2 0xD08 JUMPI POP PUSH1 0x3 DUP3 ADD SLOAD PUSH2 0x342 JUMP JUMPDEST PUSH1 0x2 DUP4 ADD SLOAD DUP4 SLOAD DUP4 SWAP2 SWAP1 PUSH8 0xFFFFFFFFFFFFFFFF PUSH1 0x1 PUSH1 0x80 SHL DUP3 DIV DUP2 AND SWAP2 PUSH2 0xD31 SWAP2 TIMESTAMP SWAP2 AND PUSH2 0xEF6 JUMP JUMPDEST PUSH2 0xD3B SWAP2 SWAP1 PUSH2 0x11B7 JUMP JUMPDEST PUSH2 0xD45 SWAP2 SWAP1 PUSH2 0x11CE JUMP JUMPDEST PUSH2 0xD57 SWAP1 PUSH8 0xDE0B6B3A7640000 PUSH2 0x11CE JUMP JUMPDEST PUSH2 0xD61 SWAP2 SWAP1 PUSH2 0x11ED JUMP JUMPDEST DUP4 PUSH1 0x3 ADD SLOAD PUSH2 0xD70 SWAP2 SWAP1 PUSH2 0x120F JUMP JUMPDEST SWAP4 SWAP3 POP POP POP JUMP JUMPDEST PUSH1 0x40 MLOAD PUSH1 0x1 PUSH1 0x1 PUSH1 0xA0 SHL SUB DUP1 DUP6 AND PUSH1 0x24 DUP4 ADD MSTORE DUP4 AND PUSH1 0x44 DUP3 ADD MSTORE PUSH1 0x64 DUP2 ADD DUP3 SWAP1 MSTORE PUSH2 0xDE2 SWAP1 DUP6 SWAP1 PUSH4 0x23B872DD PUSH1 0xE0 SHL SWAP1 PUSH1 0x84 ADD JUMPDEST PUSH1 0x40 DUP1 MLOAD PUSH1 0x1F NOT DUP2 DUP5 SUB ADD DUP2 MSTORE SWAP2 SWAP1 MSTORE PUSH1 0x20 DUP2 ADD DUP1 MLOAD PUSH1 0x1 PUSH1 0x1 PUSH1 0xE0 SHL SUB AND PUSH1 0x1 PUSH1 0x1 PUSH1 0xE0 SHL SUB NOT SWAP1 SWAP4 AND SWAP3 SWAP1 SWAP3 OR SWAP1 SWAP2 MSTORE PUSH2 0xF0C JUMP JUMPDEST POP POP POP POP JUMP JUMPDEST DUP1 SLOAD PUSH1 0x2 DUP3 ADD SLOAD PUSH1 0x0 SWAP2 PUSH2 0x342 SWAP2 PUSH1 0x1 PUSH1 0x40 SHL SWAP1 SWAP2 DIV PUSH8 0xFFFFFFFFFFFFFFFF AND SWAP1 PUSH2 0x11CE JUMP JUMPDEST PUSH1 0x2 PUSH1 0x0 SLOAD SUB PUSH2 0xE60 JUMPI PUSH1 0x40 MLOAD PUSH3 0x461BCD PUSH1 0xE5 SHL DUP2 MSTORE PUSH1 0x20 PUSH1 0x4 DUP3 ADD MSTORE PUSH1 0x1F PUSH1 0x24 DUP3 ADD MSTORE PUSH32 0x5265656E7472616E637947756172643A207265656E7472616E742063616C6C00 PUSH1 0x44 DUP3 ADD MSTORE PUSH1 0x64 ADD PUSH2 0x372 JUMP JUMPDEST PUSH1 0x2 PUSH1 0x0 SSTORE JUMP JUMPDEST PUSH2 0xE71 DUP3 DUP3 PUSH2 0xCF3 JUMP JUMPDEST PUSH1 0x3 DUP4 ADD SSTORE PUSH2 0xE7F DUP3 PUSH2 0xEE0 JUMP JUMPDEST DUP3 SLOAD PUSH8 0xFFFFFFFFFFFFFFFF SWAP2 SWAP1 SWAP2 AND PUSH1 0x1 PUSH1 0x80 SHL MUL PUSH8 0xFFFFFFFFFFFFFFFF PUSH1 0x80 SHL NOT SWAP1 SWAP2 AND OR SWAP1 SWAP2 SSTORE POP JUMP JUMPDEST PUSH1 0x40 MLOAD PUSH1 0x1 PUSH1 0x1 PUSH1 0xA0 SHL SUB DUP4 AND PUSH1 0x24 DUP3 ADD MSTORE PUSH1 0x44 DUP2 ADD DUP3 SWAP1 MSTORE PUSH2 0xEDB SWAP1 DUP5 SWAP1 PUSH4 0xA9059CBB PUSH1 0xE0 SHL SWAP1 PUSH1 0x64 ADD PUSH2 0xDAB JUMP JUMPDEST POP POP POP JUMP JUMPDEST DUP1 SLOAD PUSH1 0x0 SWAP1 PUSH2 0x342 SWAP1 TIMESTAMP SWAP1 PUSH8 0xFFFFFFFFFFFFFFFF AND JUMPDEST PUSH1 0x0 DUP2 DUP4 LT PUSH2 0xF05 JUMPI DUP2 PUSH2 0xD70 JUMP JUMPDEST POP SWAP1 SWAP2 SWAP1 POP JUMP JUMPDEST PUSH1 0x0 PUSH2 0xF61 DUP3 PUSH1 0x40 MLOAD DUP1 PUSH1 0x40 ADD PUSH1 0x40 MSTORE DUP1 PUSH1 0x20 DUP2 MSTORE PUSH1 0x20 ADD PUSH32 0x5361666545524332303A206C6F772D6C6576656C2063616C6C206661696C6564 DUP2 MSTORE POP DUP6 PUSH1 0x1 PUSH1 0x1 PUSH1 0xA0 SHL SUB AND PUSH2 0xFDE SWAP1 SWAP3 SWAP2 SWAP1 PUSH4 0xFFFFFFFF AND JUMP JUMPDEST DUP1 MLOAD SWAP1 SWAP2 POP ISZERO PUSH2 0xEDB JUMPI DUP1 DUP1 PUSH1 0x20 ADD SWAP1 MLOAD DUP2 ADD SWAP1 PUSH2 0xF7F SWAP2 SWAP1 PUSH2 0x12A0 JUMP JUMPDEST PUSH2 0xEDB JUMPI PUSH1 0x40 MLOAD PUSH3 0x461BCD PUSH1 0xE5 SHL DUP2 MSTORE PUSH1 0x20 PUSH1 0x4 DUP3 ADD MSTORE PUSH1 0x2A PUSH1 0x24 DUP3 ADD MSTORE PUSH32 0x5361666545524332303A204552433230206F7065726174696F6E20646964206E PUSH1 0x44 DUP3 ADD MSTORE PUSH10 0x1BDD081CDD58D8D95959 PUSH1 0xB2 SHL PUSH1 0x64 DUP3 ADD MSTORE PUSH1 0x84 ADD PUSH2 0x372 JUMP JUMPDEST PUSH1 0x60 PUSH2 0xFED DUP5 DUP5 PUSH1 0x0 DUP6 PUSH2 0xFF5 JUMP JUMPDEST SWAP5 SWAP4 POP POP POP POP JUMP JUMPDEST PUSH1 0x60 DUP3 SELFBALANCE LT ISZERO PUSH2 0x1056 JUMPI PUSH1 0x40 MLOAD PUSH3 0x461BCD PUSH1 0xE5 SHL DUP2 MSTORE PUSH1 0x20 PUSH1 0x4 DUP3 ADD MSTORE PUSH1 0x26 PUSH1 0x24 DUP3 ADD MSTORE PUSH32 0x416464726573733A20696E73756666696369656E742062616C616E636520666F PUSH1 0x44 DUP3 ADD MSTORE PUSH6 0x1C8818D85B1B PUSH1 0xD2 SHL PUSH1 0x64 DUP3 ADD MSTORE PUSH1 0x84 ADD PUSH2 0x372 JUMP JUMPDEST PUSH1 0x1 PUSH1 0x1 PUSH1 0xA0 SHL SUB DUP6 AND EXTCODESIZE PUSH2 0x10AD JUMPI PUSH1 0x40 MLOAD PUSH3 0x461BCD PUSH1 0xE5 SHL DUP2 MSTORE PUSH1 0x20 PUSH1 0x4 DUP3 ADD MSTORE PUSH1 0x1D PUSH1 0x24 DUP3 ADD MSTORE PUSH32 0x416464726573733A2063616C6C20746F206E6F6E2D636F6E7472616374000000 PUSH1 0x44 DUP3 ADD MSTORE PUSH1 0x64 ADD PUSH2 0x372 JUMP JUMPDEST PUSH1 0x0 DUP1 DUP7 PUSH1 0x1 PUSH1 0x1 PUSH1 0xA0 SHL SUB AND DUP6 DUP8 PUSH1 0x40 MLOAD PUSH2 0x10C9 SWAP2 SWAP1 PUSH2 0x12EE JUMP JUMPDEST PUSH1 0x0 PUSH1 0x40 MLOAD DUP1 DUP4 SUB DUP2 DUP6 DUP8 GAS CALL SWAP3 POP POP POP RETURNDATASIZE DUP1 PUSH1 0x0 DUP2 EQ PUSH2 0x1106 JUMPI PUSH1 0x40 MLOAD SWAP2 POP PUSH1 0x1F NOT PUSH1 0x3F RETURNDATASIZE ADD AND DUP3 ADD PUSH1 0x40 MSTORE RETURNDATASIZE DUP3 MSTORE RETURNDATASIZE PUSH1 0x0 PUSH1 0x20 DUP5 ADD RETURNDATACOPY PUSH2 0x110B JUMP JUMPDEST PUSH1 0x60 SWAP2 POP JUMPDEST POP SWAP2 POP SWAP2 POP PUSH2 0x111B DUP3 DUP3 DUP7 PUSH2 0x1126 JUMP JUMPDEST SWAP8 SWAP7 POP POP POP POP POP POP POP JUMP JUMPDEST PUSH1 0x60 DUP4 ISZERO PUSH2 0x1135 JUMPI POP DUP2 PUSH2 0xD70 JUMP JUMPDEST DUP3 MLOAD ISZERO PUSH2 0x1145 JUMPI DUP3 MLOAD DUP1 DUP5 PUSH1 0x20 ADD REVERT JUMPDEST DUP2 PUSH1 0x40 MLOAD PUSH3 0x461BCD PUSH1 0xE5 SHL DUP2 MSTORE PUSH1 0x4 ADD PUSH2 0x372 SWAP2 SWAP1 PUSH2 0x130A JUMP JUMPDEST PUSH1 0x0 PUSH1 0x20 DUP3 DUP5 SUB SLT ISZERO PUSH2 0x1171 JUMPI PUSH1 0x0 DUP1 REVERT JUMPDEST DUP2 CALLDATALOAD PUSH1 0x1 PUSH1 0x1 PUSH1 0xA0 SHL SUB DUP2 AND DUP2 EQ PUSH2 0xD70 JUMPI PUSH1 0x0 DUP1 REVERT JUMPDEST PUSH1 0x0 PUSH1 0x20 DUP3 DUP5 SUB SLT ISZERO PUSH2 0x119A JUMPI PUSH1 0x0 DUP1 REVERT JUMPDEST POP CALLDATALOAD SWAP2 SWAP1 POP JUMP JUMPDEST PUSH4 0x4E487B71 PUSH1 0xE0 SHL PUSH1 0x0 MSTORE PUSH1 0x11 PUSH1 0x4 MSTORE PUSH1 0x24 PUSH1 0x0 REVERT JUMPDEST PUSH1 0x0 DUP3 DUP3 LT ISZERO PUSH2 0x11C9 JUMPI PUSH2 0x11C9 PUSH2 0x11A1 JUMP JUMPDEST POP SUB SWAP1 JUMP JUMPDEST PUSH1 0x0 DUP2 PUSH1 0x0 NOT DIV DUP4 GT DUP3 ISZERO ISZERO AND ISZERO PUSH2 0x11E8 JUMPI PUSH2 0x11E8 PUSH2 0x11A1 JUMP JUMPDEST POP MUL SWAP1 JUMP JUMPDEST PUSH1 0x0 DUP3 PUSH2 0x120A JUMPI PUSH4 0x4E487B71 PUSH1 0xE0 SHL PUSH1 0x0 MSTORE PUSH1 0x12 PUSH1 0x4 MSTORE PUSH1 0x24 PUSH1 0x0 REVERT JUMPDEST POP DIV SWAP1 JUMP JUMPDEST PUSH1 0x0 DUP3 NOT DUP3 GT ISZERO PUSH2 0x1222 JUMPI PUSH2 0x1222 PUSH2 0x11A1 JUMP JUMPDEST POP ADD SWAP1 JUMP JUMPDEST PUSH1 0x20 DUP1 DUP3 MSTORE PUSH1 0xF SWAP1 DUP3 ADD MSTORE PUSH15 0x2737BA103234B9BA3934B13ABA37B9 PUSH1 0x89 SHL PUSH1 0x40 DUP3 ADD MSTORE PUSH1 0x60 ADD SWAP1 JUMP JUMPDEST PUSH1 0x20 DUP1 DUP3 MSTORE PUSH1 0x19 SWAP1 DUP3 ADD MSTORE PUSH32 0x4D7573742062652067726561746572207468616E207A65726F00000000000000 PUSH1 0x40 DUP3 ADD MSTORE PUSH1 0x60 ADD SWAP1 JUMP JUMPDEST PUSH1 0x0 PUSH1 0x20 DUP3 DUP5 SUB SLT ISZERO PUSH2 0x1299 JUMPI PUSH1 0x0 DUP1 REVERT JUMPDEST POP MLOAD SWAP2 SWAP1 POP JUMP JUMPDEST PUSH1 0x0 PUSH1 0x20 DUP3 DUP5 SUB SLT ISZERO PUSH2 0x12B2 JUMPI PUSH1 0x0 DUP1 REVERT JUMPDEST DUP2 MLOAD DUP1 ISZERO ISZERO DUP2 EQ PUSH2 0xD70 JUMPI PUSH1 0x0 DUP1 REVERT JUMPDEST PUSH1 0x0 JUMPDEST DUP4 DUP2 LT ISZERO PUSH2 0x12DD JUMPI DUP2 DUP2 ADD MLOAD DUP4 DUP3 ADD MSTORE PUSH1 0x20 ADD PUSH2 0x12C5 JUMP JUMPDEST DUP4 DUP2 GT ISZERO PUSH2 0xDE2 JUMPI POP POP PUSH1 0x0 SWAP2 ADD MSTORE JUMP JUMPDEST PUSH1 0x0 DUP3 MLOAD PUSH2 0x1300 DUP2 DUP5 PUSH1 0x20 DUP8 ADD PUSH2 0x12C2 JUMP JUMPDEST SWAP2 SWAP1 SWAP2 ADD SWAP3 SWAP2 POP POP JUMP JUMPDEST PUSH1 0x20 DUP2 MSTORE PUSH1 0x0 DUP3 MLOAD DUP1 PUSH1 0x20 DUP5 ADD MSTORE PUSH2 0x1329 DUP2 PUSH1 0x40 DUP6 ADD PUSH1 0x20 DUP8 ADD PUSH2 0x12C2 JUMP JUMPDEST PUSH1 0x1F ADD PUSH1 0x1F NOT AND SWAP2 SWAP1 SWAP2 ADD PUSH1 0x40 ADD SWAP3 SWAP2 POP POP JUMP INVALID LOG2 PUSH5 0x6970667358 0x22 SLT KECCAK256 0xE9 0xD0 DUP13 0x4D MSTORE8 BYTE 0x2D PUSH29 0x50B24CC8EA73398EA88552B9EE435B8F76782E8EC994A51D64736F6C63 NUMBER STOP ADDMOD 0xF STOP CALLER "
				},
				"gasEstimates": {
					"creation": {
						"codeDepositCost": "995800",
						"executionCost": "infinite",
						"totalCost": "infinite"
					},
					"external": {
						"balanceOf(address)": "2558",
						"depositRewardTokens(uint256)": "infinite",
						"earned(address)": "infinite",
						"exit()": "infinite",
						"getOwner()": "2398",
						"getReward()": "infinite",
						"getRewardForDuration()": "4642",
						"lastTimeRewardApplicable()": "2471",
						"notifyRewardAmount(uint256)": "infinite",
						"rewardPerToken()": "infinite",
						"rewardToken()": "infinite",
						"setDistributor(address)": "26710",
						"stake(uint256)": "infinite",
						"stakingToken()": "infinite",
						"totalAmountStaked()": "2369",
						"withdraw(uint256)": "infinite"
					}
				},
				"methodIdentifiers": {
					"balanceOf(address)": "70a08231",
					"depositRewardTokens(uint256)": "16c621e0",
					"earned(address)": "008cc262",
					"exit()": "e9fad8ee",
					"getOwner()": "893d20e8",
					"getReward()": "3d18b912",
					"getRewardForDuration()": "1c1f78eb",
					"lastTimeRewardApplicable()": "80faa57d",
					"notifyRewardAmount(uint256)": "3c6b16ab",
					"rewardPerToken()": "cd3daf9d",
					"rewardToken()": "f7c618c1",
					"setDistributor(address)": "75619ab5",
					"stake(uint256)": "a694fc3a",
					"stakingToken()": "72f702f3",
					"totalAmountStaked()": "fe961f61",
					"withdraw(uint256)": "2e1a7d4d"
				}
			},
			"storageLayout": {
				"storage": [
					{
						"astId": 596,
						"contract": "contracts/Staking_dApp/StakeRoyalty.sol:StakeRoyalty",
						"label": "_status",
						"offset": 0,
						"slot": "0",
						"type": "t_uint256"
					},
					{
						"astId": 893,
						"contract": "contracts/Staking_dApp/StakeRoyalty.sol:StakeRoyalty",
						"label": "_state",
						"offset": 0,
						"slot": "1",
						"type": "t_struct(PoolState)482_storage"
					},
					{
						"astId": 895,
						"contract": "contracts/Staking_dApp/StakeRoyalty.sol:StakeRoyalty",
						"label": "_totalStake",
						"offset": 0,
						"slot": "5",
						"type": "t_uint256"
					},
					{
						"astId": 899,
						"contract": "contracts/Staking_dApp/StakeRoyalty.sol:StakeRoyalty",
						"label": "_userRewardPerTokenPaid",
						"offset": 0,
						"slot": "6",
						"type": "t_mapping(t_address,t_uint256)"
					},
					{
						"astId": 903,
						"contract": "contracts/Staking_dApp/StakeRoyalty.sol:StakeRoyalty",
						"label": "_rewards",
						"offset": 0,
						"slot": "7",
						"type": "t_mapping(t_address,t_uint256)"
					},
					{
						"astId": 907,
						"contract": "contracts/Staking_dApp/StakeRoyalty.sol:StakeRoyalty",
						"label": "_balances",
						"offset": 0,
						"slot": "8",
						"type": "t_mapping(t_address,t_uint256)"
					}
				],
				"types": {
					"t_address": {
						"encoding": "inplace",
						"label": "address",
						"numberOfBytes": "20"
					},
					"t_mapping(t_address,t_uint256)": {
						"encoding": "mapping",
						"key": "t_address",
						"label": "mapping(address => uint256)",
						"numberOfBytes": "32",
						"value": "t_uint256"
					},
					"t_struct(PoolState)482_storage": {
						"encoding": "inplace",
						"label": "struct PoolManager.PoolState",
						"members": [
							{
								"astId": 471,
								"contract": "contracts/Staking_dApp/StakeRoyalty.sol:StakeRoyalty",
								"label": "periodFinish",
								"offset": 0,
								"slot": "0",
								"type": "t_uint64"
							},
							{
								"astId": 473,
								"contract": "contracts/Staking_dApp/StakeRoyalty.sol:StakeRoyalty",
								"label": "rewardsDuration",
								"offset": 8,
								"slot": "0",
								"type": "t_uint64"
							},
							{
								"astId": 475,
								"contract": "contracts/Staking_dApp/StakeRoyalty.sol:StakeRoyalty",
								"label": "lastUpdateTime",
								"offset": 16,
								"slot": "0",
								"type": "t_uint64"
							},
							{
								"astId": 477,
								"contract": "contracts/Staking_dApp/StakeRoyalty.sol:StakeRoyalty",
								"label": "distributor",
								"offset": 0,
								"slot": "1",
								"type": "t_uint160"
							},
							{
								"astId": 479,
								"contract": "contracts/Staking_dApp/StakeRoyalty.sol:StakeRoyalty",
								"label": "rewardRate",
								"offset": 0,
								"slot": "2",
								"type": "t_uint256"
							},
							{
								"astId": 481,
								"contract": "contracts/Staking_dApp/StakeRoyalty.sol:StakeRoyalty",
								"label": "rewardPerTokenStored",
								"offset": 0,
								"slot": "3",
								"type": "t_uint256"
							}
						],
						"numberOfBytes": "128"
					},
					"t_uint160": {
						"encoding": "inplace",
						"label": "uint160",
						"numberOfBytes": "20"
					},
					"t_uint256": {
						"encoding": "inplace",
						"label": "uint256",
						"numberOfBytes": "32"
					},
					"t_uint64": {
						"encoding": "inplace",
						"label": "uint64",
						"numberOfBytes": "8"
					}
				}
			},
			"userdoc": {
				"kind": "user",
				"methods": {},
				"version": 1
			}
		}
	}
}